{
  "_format": "hh-sol-artifact-1",
  "contractName": "OpenQV0",
  "sourceName": "contracts/OpenQ/Implementations/OpenQV0.sol",
  "abi": [
    {
      "anonymous": false,
      "inputs": [
        {
          "indexed": false,
          "internalType": "address",
          "name": "previousAdmin",
          "type": "address"
        },
        {
          "indexed": false,
          "internalType": "address",
          "name": "newAdmin",
          "type": "address"
        }
      ],
      "name": "AdminChanged",
      "type": "event"
    },
    {
      "anonymous": false,
      "inputs": [
        {
          "indexed": true,
          "internalType": "address",
          "name": "beacon",
          "type": "address"
        }
      ],
      "name": "BeaconUpgraded",
      "type": "event"
    },
    {
      "anonymous": false,
      "inputs": [
        {
          "indexed": false,
          "internalType": "string",
          "name": "bountyId",
          "type": "string"
        },
        {
          "indexed": true,
          "internalType": "address",
          "name": "bountyAddress",
          "type": "address"
        },
        {
          "indexed": false,
          "internalType": "string",
          "name": "organization",
          "type": "string"
        },
        {
          "indexed": false,
          "internalType": "address",
          "name": "closer",
          "type": "address"
        },
        {
          "indexed": false,
          "internalType": "uint256",
          "name": "bountyClosedTime",
          "type": "uint256"
        }
      ],
      "name": "BountyClosed",
      "type": "event"
    },
    {
      "anonymous": false,
      "inputs": [
        {
          "indexed": false,
          "internalType": "string",
          "name": "bountyId",
          "type": "string"
        },
        {
          "indexed": false,
          "internalType": "string",
          "name": "organization",
          "type": "string"
        },
        {
          "indexed": false,
          "internalType": "address",
          "name": "issuerAddress",
          "type": "address"
        },
        {
          "indexed": true,
          "internalType": "address",
          "name": "bountyAddress",
          "type": "address"
        },
        {
          "indexed": false,
          "internalType": "uint256",
          "name": "bountyMintTime",
          "type": "uint256"
        }
      ],
      "name": "BountyCreated",
      "type": "event"
    },
    {
      "anonymous": false,
      "inputs": [
        {
          "indexed": false,
          "internalType": "bytes32",
          "name": "depositId",
          "type": "bytes32"
        },
        {
          "indexed": false,
          "internalType": "string",
          "name": "bountyId",
          "type": "string"
        },
        {
          "indexed": true,
          "internalType": "address",
          "name": "bountyAddress",
          "type": "address"
        },
        {
          "indexed": false,
          "internalType": "string",
          "name": "organization",
          "type": "string"
        },
        {
          "indexed": false,
          "internalType": "address",
          "name": "closer",
          "type": "address"
        },
        {
          "indexed": false,
          "internalType": "uint256",
          "name": "payoutTime",
          "type": "uint256"
        }
      ],
      "name": "DepositClaimed",
      "type": "event"
    },
    {
      "anonymous": false,
      "inputs": [
        {
          "indexed": false,
          "internalType": "bytes32",
          "name": "depositId",
          "type": "bytes32"
        },
        {
          "indexed": false,
          "internalType": "string",
          "name": "bountyId",
          "type": "string"
        },
        {
          "indexed": true,
          "internalType": "address",
          "name": "bountyAddress",
          "type": "address"
        },
        {
          "indexed": false,
          "internalType": "string",
          "name": "organization",
          "type": "string"
        },
        {
          "indexed": false,
          "internalType": "uint256",
          "name": "refundTime",
          "type": "uint256"
        }
      ],
      "name": "DepositRefunded",
      "type": "event"
    },
    {
      "anonymous": false,
      "inputs": [
        {
          "indexed": false,
          "internalType": "bytes32",
          "name": "depositId",
          "type": "bytes32"
        },
        {
          "indexed": true,
          "internalType": "address",
          "name": "bountyAddress",
          "type": "address"
        },
        {
          "indexed": false,
          "internalType": "string",
          "name": "bountyId",
          "type": "string"
        },
        {
          "indexed": false,
          "internalType": "string",
          "name": "organization",
          "type": "string"
        },
        {
          "indexed": false,
          "internalType": "address",
          "name": "tokenAddress",
          "type": "address"
        },
        {
          "indexed": false,
          "internalType": "uint256",
          "name": "receiveTime",
          "type": "uint256"
        },
        {
          "indexed": false,
          "internalType": "address",
          "name": "sender",
          "type": "address"
        },
        {
          "indexed": false,
          "internalType": "uint256",
          "name": "expiration",
          "type": "uint256"
        },
        {
          "indexed": false,
          "internalType": "uint256",
          "name": "tokenId",
          "type": "uint256"
        }
      ],
      "name": "NFTDepositReceived",
      "type": "event"
    },
    {
      "anonymous": false,
      "inputs": [
        {
          "indexed": true,
          "internalType": "address",
          "name": "previousOracle",
          "type": "address"
        },
        {
          "indexed": true,
          "internalType": "address",
          "name": "newOracle",
          "type": "address"
        }
      ],
      "name": "OracleTransferred",
      "type": "event"
    },
    {
      "anonymous": false,
      "inputs": [
        {
          "indexed": true,
          "internalType": "address",
          "name": "previousOwner",
          "type": "address"
        },
        {
          "indexed": true,
          "internalType": "address",
          "name": "newOwner",
          "type": "address"
        }
      ],
      "name": "OwnershipTransferred",
      "type": "event"
    },
    {
      "anonymous": false,
      "inputs": [
        {
          "indexed": false,
          "internalType": "bytes32",
          "name": "depositId",
          "type": "bytes32"
        },
        {
          "indexed": true,
          "internalType": "address",
          "name": "bountyAddress",
          "type": "address"
        },
        {
          "indexed": false,
          "internalType": "string",
          "name": "bountyId",
          "type": "string"
        },
        {
          "indexed": false,
          "internalType": "string",
          "name": "organization",
          "type": "string"
        },
        {
          "indexed": false,
          "internalType": "address",
          "name": "tokenAddress",
          "type": "address"
        },
        {
          "indexed": false,
          "internalType": "uint256",
          "name": "receiveTime",
          "type": "uint256"
        },
        {
          "indexed": false,
          "internalType": "address",
          "name": "sender",
          "type": "address"
        },
        {
          "indexed": false,
          "internalType": "uint256",
          "name": "expiration",
          "type": "uint256"
        },
        {
          "indexed": false,
          "internalType": "uint256",
          "name": "volume",
          "type": "uint256"
        }
      ],
      "name": "TokenDepositReceived",
      "type": "event"
    },
    {
      "anonymous": false,
      "inputs": [
        {
          "indexed": true,
          "internalType": "address",
          "name": "implementation",
          "type": "address"
        }
      ],
      "name": "Upgraded",
      "type": "event"
    },
    {
      "anonymous": false,
      "inputs": [
        {
          "indexed": false,
          "internalType": "address",
          "name": "_payoutAddress",
          "type": "address"
        },
        {
          "indexed": false,
          "internalType": "address",
          "name": "_funder",
          "type": "address"
        },
        {
          "indexed": false,
          "internalType": "string",
          "name": "bountyId",
          "type": "string"
        },
        {
          "indexed": true,
          "internalType": "address",
          "name": "bountyAddress",
          "type": "address"
        },
        {
          "indexed": false,
          "internalType": "uint256",
          "name": "selectionTime",
          "type": "uint256"
        }
      ],
      "name": "WinnerSelected",
      "type": "event"
    },
    {
      "stateMutability": "nonpayable",
      "type": "fallback"
    },
    {
      "inputs": [
        {
          "internalType": "address",
          "name": "bountyAddress",
          "type": "address"
        }
      ],
      "name": "bountyAddressToBountyId",
      "outputs": [
        {
          "internalType": "string",
          "name": "",
          "type": "string"
        }
      ],
      "stateMutability": "view",
      "type": "function"
    },
    {
      "inputs": [],
      "name": "bountyFactory",
      "outputs": [
        {
          "internalType": "contract BountyFactory",
          "name": "",
          "type": "address"
        }
      ],
      "stateMutability": "view",
      "type": "function"
    },
    {
      "inputs": [
        {
          "internalType": "string",
          "name": "_id",
          "type": "string"
        }
      ],
      "name": "bountyIdToAddress",
      "outputs": [
        {
          "internalType": "address",
          "name": "",
          "type": "address"
        }
      ],
      "stateMutability": "view",
      "type": "function"
    },
    {
      "inputs": [
        {
          "internalType": "string",
          "name": "_id",
          "type": "string"
        }
      ],
      "name": "bountyIsOpen",
      "outputs": [
        {
          "internalType": "bool",
          "name": "",
          "type": "bool"
        }
      ],
      "stateMutability": "view",
      "type": "function"
    },
    {
      "inputs": [
        {
          "internalType": "string",
          "name": "_bountyId",
          "type": "string"
        },
        {
          "internalType": "address",
          "name": "closer",
          "type": "address"
        }
      ],
      "name": "claimBounty",
      "outputs": [],
      "stateMutability": "nonpayable",
      "type": "function"
    },
    {
      "inputs": [
        {
          "internalType": "address",
          "name": "_bountyAddress",
          "type": "address"
        },
        {
          "internalType": "address",
          "name": "_tokenAddress",
          "type": "address"
        },
        {
          "internalType": "uint256",
          "name": "_tokenId",
          "type": "uint256"
        },
        {
          "internalType": "uint256",
          "name": "_expiration",
          "type": "uint256"
        }
      ],
      "name": "fundBountyNFT",
      "outputs": [
        {
          "internalType": "bool",
          "name": "success",
          "type": "bool"
        }
      ],
      "stateMutability": "nonpayable",
      "type": "function"
    },
    {
      "inputs": [
        {
          "internalType": "address",
          "name": "_bountyAddress",
          "type": "address"
        },
        {
          "internalType": "address",
          "name": "_tokenAddress",
          "type": "address"
        },
        {
          "internalType": "uint256",
          "name": "_volume",
          "type": "uint256"
        },
        {
          "internalType": "uint256",
          "name": "_expiration",
          "type": "uint256"
        }
      ],
      "name": "fundBountyToken",
      "outputs": [
        {
          "internalType": "bool",
          "name": "success",
          "type": "bool"
        }
      ],
      "stateMutability": "payable",
      "type": "function"
    },
    {
      "inputs": [],
      "name": "getImplementation",
      "outputs": [
        {
          "internalType": "address",
          "name": "",
          "type": "address"
        }
      ],
      "stateMutability": "view",
      "type": "function"
    },
    {
      "inputs": [],
      "name": "getOracle",
      "outputs": [
        {
          "internalType": "address",
          "name": "",
          "type": "address"
        }
      ],
      "stateMutability": "view",
      "type": "function"
    },
    {
      "inputs": [
        {
          "internalType": "address",
          "name": "oracle",
          "type": "address"
        }
      ],
      "name": "initialize",
      "outputs": [],
      "stateMutability": "nonpayable",
      "type": "function"
    },
    {
      "inputs": [
        {
          "internalType": "string",
          "name": "_id",
          "type": "string"
        },
        {
          "internalType": "string",
          "name": "_organization",
          "type": "string"
        }
      ],
      "name": "mintBounty",
      "outputs": [
        {
          "internalType": "address",
          "name": "",
          "type": "address"
        }
      ],
      "stateMutability": "nonpayable",
      "type": "function"
    },
    {
      "inputs": [],
      "name": "openQStorage",
      "outputs": [
        {
          "internalType": "contract OpenQStorage",
          "name": "",
          "type": "address"
        }
      ],
      "stateMutability": "view",
      "type": "function"
    },
    {
      "inputs": [],
      "name": "oracle",
      "outputs": [
        {
          "internalType": "address",
          "name": "",
          "type": "address"
        }
      ],
      "stateMutability": "view",
      "type": "function"
    },
    {
      "inputs": [],
      "name": "owner",
      "outputs": [
        {
          "internalType": "address",
          "name": "",
          "type": "address"
        }
      ],
      "stateMutability": "view",
      "type": "function"
    },
    {
      "inputs": [],
      "name": "proxiableUUID",
      "outputs": [
        {
          "internalType": "bytes32",
          "name": "",
          "type": "bytes32"
        }
      ],
      "stateMutability": "view",
      "type": "function"
    },
    {
      "inputs": [
        {
          "internalType": "bytes32",
          "name": "_depositId",
          "type": "bytes32"
        },
        {
          "internalType": "address",
          "name": "_bountyAddress",
          "type": "address"
        }
      ],
      "name": "refundDeposit",
      "outputs": [
        {
          "internalType": "bool",
          "name": "success",
          "type": "bool"
        }
      ],
      "stateMutability": "nonpayable",
      "type": "function"
    },
    {
      "inputs": [],
      "name": "renounceOwnership",
      "outputs": [],
      "stateMutability": "nonpayable",
      "type": "function"
    },
    {
      "inputs": [
        {
          "internalType": "bytes32",
          "name": "submissionId",
          "type": "bytes32"
        },
        {
          "internalType": "string",
          "name": "_bountyId",
          "type": "string"
        }
      ],
      "name": "selectWinner",
      "outputs": [
        {
          "internalType": "address",
          "name": "",
          "type": "address"
        }
      ],
      "stateMutability": "nonpayable",
      "type": "function"
    },
    {
      "inputs": [
        {
          "internalType": "address",
          "name": "_bountyFactory",
          "type": "address"
        }
      ],
      "name": "setBountyFactory",
      "outputs": [],
      "stateMutability": "nonpayable",
      "type": "function"
    },
    {
      "inputs": [
        {
          "internalType": "address",
          "name": "_openQStorage",
          "type": "address"
        }
      ],
      "name": "setOpenQStorage",
      "outputs": [],
      "stateMutability": "nonpayable",
      "type": "function"
    },
    {
      "inputs": [
        {
          "internalType": "string",
          "name": "_bountyId",
          "type": "string"
        }
      ],
      "name": "submitMethod",
      "outputs": [
        {
          "internalType": "bytes32",
          "name": "",
          "type": "bytes32"
        }
      ],
      "stateMutability": "nonpayable",
      "type": "function"
    },
    {
      "inputs": [
        {
          "internalType": "address",
          "name": "newOracle",
          "type": "address"
        }
      ],
      "name": "transferOracle",
      "outputs": [],
      "stateMutability": "nonpayable",
      "type": "function"
    },
    {
      "inputs": [
        {
          "internalType": "address",
          "name": "newOwner",
          "type": "address"
        }
      ],
      "name": "transferOwnership",
      "outputs": [],
      "stateMutability": "nonpayable",
      "type": "function"
    },
    {
      "inputs": [
        {
          "internalType": "address",
          "name": "newImplementation",
          "type": "address"
        }
      ],
      "name": "upgradeTo",
      "outputs": [],
      "stateMutability": "nonpayable",
      "type": "function"
    },
    {
      "inputs": [
        {
          "internalType": "address",
          "name": "newImplementation",
          "type": "address"
        },
        {
          "internalType": "bytes",
          "name": "data",
          "type": "bytes"
        }
      ],
      "name": "upgradeToAndCall",
      "outputs": [],
      "stateMutability": "payable",
      "type": "function"
    }
  ],
  "bytecode": "0x60a06040523073ffffffffffffffffffffffffffffffffffffffff1660809073ffffffffffffffffffffffffffffffffffffffff1681525034801561004357600080fd5b50608051614b2161007b60003960008181610adb01528181610b6a0152818161158f0152818161161e01526119c70152614b216000f3fe60806040526004361061016a5760003560e01c8063641411f8116100d1578063aaf10f421161008a578063e732680611610064578063e73268061461055c578063f2fde38b14610585578063f5258491146105ae578063fd1b2e3f146105d75761016b565b8063aaf10f42146104dd578063b8f75c0b14610508578063c4d66de8146105335761016b565b8063641411f8146103cb578063715018a6146104085780637dc0d1d01461041f578063833b1fce1461044a5780638c04ef98146104755780638da5cb5b146104b25761016b565b80633e7da1a9116101235780633e7da1a9146102b15780634415bdf5146102da57806348bd1e99146103175780634f1ef286146103545780635255008c1461037057806352d1902d146103a05761016b565b80630bc930011461017d57806310fd86c8146101a857806316a2a0cc146101e55780631ee290fb1461020e578063348f4e961461024b5780633659cfe6146102885761016b565b5b34801561017757600080fd5b50600080fd5b34801561018957600080fd5b50610192610614565b60405161019f9190613119565b60405180910390f35b3480156101b457600080fd5b506101cf60048036038101906101ca9190613186565b610638565b6040516101dc919061324c565b60405180910390f35b3480156101f157600080fd5b5061020c60048036038101906102079190613186565b6106bb565b005b34801561021a57600080fd5b50610235600480360381019061023091906132d3565b6106ff565b6040516102429190613363565b60405180910390f35b34801561025757600080fd5b50610272600480360381019061026d91906133b4565b610867565b60405161027f9190613363565b60405180910390f35b34801561029457600080fd5b506102af60048036038101906102aa9190613186565b610ad9565b005b3480156102bd57600080fd5b506102d860048036038101906102d39190613414565b610c62565b005b3480156102e657600080fd5b5061030160048036038101906102fc9190613474565b611245565b60405161030e91906134d0565b60405180910390f35b34801561032357600080fd5b5061033e6004803603810190610339919061361b565b6114e8565b60405161034b9190613363565b60405180910390f35b61036e60048036038101906103699190613705565b61158d565b005b61038a60048036038101906103859190613797565b6116ca565b6040516103979190613819565b60405180910390f35b3480156103ac57600080fd5b506103b56119c3565b6040516103c291906134d0565b60405180910390f35b3480156103d757600080fd5b506103f260048036038101906103ed9190613834565b611a7c565b6040516103ff9190613819565b60405180910390f35b34801561041457600080fd5b5061041d611f8d565b005b34801561042b57600080fd5b50610434612015565b6040516104419190613363565b60405180910390f35b34801561045657600080fd5b5061045f61203f565b60405161046c9190613363565b60405180910390f35b34801561048157600080fd5b5061049c60048036038101906104979190613797565b61204e565b6040516104a99190613819565b60405180910390f35b3480156104be57600080fd5b506104c7612343565b6040516104d49190613363565b60405180910390f35b3480156104e957600080fd5b506104f261236d565b6040516104ff9190613363565b60405180910390f35b34801561051457600080fd5b5061051d61237c565b60405161052a9190613895565b60405180910390f35b34801561053f57600080fd5b5061055a60048036038101906105559190613186565b6123a2565b005b34801561056857600080fd5b50610583600480360381019061057e9190613186565b6124ab565b005b34801561059157600080fd5b506105ac60048036038101906105a79190613186565b6125a3565b005b3480156105ba57600080fd5b506105d560048036038101906105d09190613186565b61269b565b005b3480156105e357600080fd5b506105fe60048036038101906105f9919061361b565b6126de565b60405161060b9190613819565b60405180910390f35b60008054906101000a900473ffffffffffffffffffffffffffffffffffffffff1681565b606060008290508073ffffffffffffffffffffffffffffffffffffffff1663c17bd75e6040518163ffffffff1660e01b8152600401600060405180830381865afa15801561068a573d6000803e3d6000fd5b505050506040513d6000823e3d601f19601f820116820180604052508101906106b39190613920565b915050919050565b80600160006101000a81548173ffffffffffffffffffffffffffffffffffffffff021916908373ffffffffffffffffffffffffffffffffffffffff16021790555050565b6000600260ca541415610747576040517f08c379a000000000000000000000000000000000000000000000000000000000815260040161073e906139b5565b60405180910390fd5b600260ca819055506000600160009054906101000a900473ffffffffffffffffffffffffffffffffffffffff1673ffffffffffffffffffffffffffffffffffffffff166355e2ba408787338888306040518763ffffffff1660e01b81526004016107b696959493929190613a02565b6020604051808303816000875af11580156107d5573d6000803e3d6000fd5b505050506040513d601f19601f820116820180604052508101906107f99190613a6e565b90508073ffffffffffffffffffffffffffffffffffffffff167f9b4ec425461e6b6e22c6b5a40c3fba7c8200dbc1832b92910140d4311872c13987878787334260405161084b96959493929190613aaa565b60405180910390a280915050600160ca81905550949350505050565b6000600260ca5414156108af576040517f08c379a00000000000000000000000000000000000000000000000000000000081526004016108a6906139b5565b60405180910390fd5b600260ca819055506001151561090884848080601f016020809104026020016040519081016040528093929190818152602001838380828437600081840152601f19601f820116905080830192505050505050506126de565b15151461094a576040517f08c379a000000000000000000000000000000000000000000000000000000000815260040161094190613b4d565b60405180910390fd5b600061099984848080601f016020809104026020016040519081016040528093929190818152602001838380828437600081840152601f19601f820116905080830192505050505050506114e8565b905060008190508073ffffffffffffffffffffffffffffffffffffffff16631d1438486040518163ffffffff1660e01b8152600401602060405180830381865afa1580156109eb573d6000803e3d6000fd5b505050506040513d601f19601f82011682018060405250810190610a0f9190613a6e565b73ffffffffffffffffffffffffffffffffffffffff163373ffffffffffffffffffffffffffffffffffffffff1614610a4657600080fd5b60008173ffffffffffffffffffffffffffffffffffffffff1663d2c83c03886040518263ffffffff1660e01b8152600401610a8191906134d0565b602060405180830381865afa158015610a9e573d6000803e3d6000fd5b505050506040513d601f19601f82011682018060405250810190610ac29190613a6e565b9050809350505050600160ca819055509392505050565b7f000000000000000000000000000000000000000000000000000000000000000073ffffffffffffffffffffffffffffffffffffffff163073ffffffffffffffffffffffffffffffffffffffff161415610b68576040517f08c379a0000000000000000000000000000000000000000000000000000000008152600401610b5f90613bdf565b60405180910390fd5b7f000000000000000000000000000000000000000000000000000000000000000073ffffffffffffffffffffffffffffffffffffffff16610ba7612795565b73ffffffffffffffffffffffffffffffffffffffff1614610bfd576040517f08c379a0000000000000000000000000000000000000000000000000000000008152600401610bf490613c71565b60405180910390fd5b610c06816127ec565b610c5f81600067ffffffffffffffff811115610c2557610c246134f0565b5b6040519080825280601f01601f191660200182016040528015610c575781602001600182028036833780820191505090505b50600061286b565b50565b600260ca541415610ca8576040517f08c379a0000000000000000000000000000000000000000000000000000000008152600401610c9f906139b5565b60405180910390fd5b600260ca8190555060011515610d0184848080601f016020809104026020016040519081016040528093929190818152602001838380828437600081840152601f19601f820116905080830192505050505050506126de565b151514610d43576040517f08c379a0000000000000000000000000000000000000000000000000000000008152600401610d3a90613cdd565b60405180910390fd5b6000610d9284848080601f016020809104026020016040519081016040528093929190818152602001838380828437600081840152601f19601f820116905080830192505050505050506114e8565b9050600081905060005b8173ffffffffffffffffffffffffffffffffffffffff16636b149d876040518163ffffffff1660e01b8152600401600060405180830381865afa158015610de7573d6000803e3d6000fd5b505050506040513d6000823e3d601f19601f82011682018060405250810190610e109190613dd5565b518110156110ef5760008273ffffffffffffffffffffffffffffffffffffffff1663b02c43d0836040518263ffffffff1660e01b8152600401610e539190613e1e565b602060405180830381865afa158015610e70573d6000803e3d6000fd5b505050506040513d601f19601f82011682018060405250810190610e949190613e39565b90508273ffffffffffffffffffffffffffffffffffffffff1663f05e0f7e826040518263ffffffff1660e01b8152600401610ecf91906134d0565b602060405180830381865afa158015610eec573d6000803e3d6000fd5b505050506040513d601f19601f82011682018060405250810190610f109190613e92565b6110d4578273ffffffffffffffffffffffffffffffffffffffff1663c8622c2486836040518363ffffffff1660e01b8152600401610f4f929190613ebf565b6020604051808303816000875af1158015610f6e573d6000803e3d6000fd5b505050506040513d601f19601f82011682018060405250810190610f929190613e92565b508373ffffffffffffffffffffffffffffffffffffffff167f5c7bdd5380593839c03f2da29596b513eb5a73a6368e0957b45802752b7bd46d828573ffffffffffffffffffffffffffffffffffffffff1663c17bd75e6040518163ffffffff1660e01b8152600401600060405180830381865afa158015611017573d6000803e3d6000fd5b505050506040513d6000823e3d601f19601f820116820180604052508101906110409190613920565b8673ffffffffffffffffffffffffffffffffffffffff166323bd4d7a6040518163ffffffff1660e01b8152600401600060405180830381865afa15801561108b573d6000803e3d6000fd5b505050506040513d6000823e3d601f19601f820116820180604052508101906110b49190613920565b89426040516110c7959493929190613ee8565b60405180910390a26110da565b506110dc565b505b80806110e790613f78565b915050610d9c565b508073ffffffffffffffffffffffffffffffffffffffff1663c74073a1846040518263ffffffff1660e01b81526004016111299190613363565b6020604051808303816000875af1158015611148573d6000803e3d6000fd5b505050506040513d601f19601f8201168201806040525081019061116c9190613e92565b508173ffffffffffffffffffffffffffffffffffffffff167f9343271f905976f6466b93515ab914676ff8c6c6151a3d597d8c319dc3bc751386868473ffffffffffffffffffffffffffffffffffffffff166323bd4d7a6040518163ffffffff1660e01b8152600401600060405180830381865afa1580156111f2573d6000803e3d6000fd5b505050506040513d6000823e3d601f19601f8201168201806040525081019061121b9190613920565b874260405161122e959493929190613fc1565b60405180910390a25050600160ca81905550505050565b6000600260ca54141561128d576040517f08c379a0000000000000000000000000000000000000000000000000000000008152600401611284906139b5565b60405180910390fd5b600260ca81905550600115156112e684848080601f016020809104026020016040519081016040528093929190818152602001838380828437600081840152601f19601f820116905080830192505050505050506126de565b151514611328576040517f08c379a000000000000000000000000000000000000000000000000000000000815260040161131f90614062565b60405180910390fd5b600061137784848080601f016020809104026020016040519081016040528093929190818152602001838380828437600081840152601f19601f820116905080830192505050505050506114e8565b9050600081905060008173ffffffffffffffffffffffffffffffffffffffff1663c435e2aa336040518263ffffffff1660e01b81526004016113b99190613363565b602060405180830381865afa1580156113d6573d6000803e3d6000fd5b505050506040513d601f19601f820116820180604052508101906113fa9190613e39565b90508173ffffffffffffffffffffffffffffffffffffffff1663f888c85682336040518363ffffffff1660e01b8152600401611437929190614082565b600060405180830381600087803b15801561145157600080fd5b505af1158015611465573d6000803e3d6000fd5b505050508173ffffffffffffffffffffffffffffffffffffffff1663072900f9336040518263ffffffff1660e01b81526004016114a29190613363565b600060405180830381600087803b1580156114bc57600080fd5b505af11580156114d0573d6000803e3d6000fd5b50505050809350505050600160ca8190555092915050565b6000600160009054906101000a900473ffffffffffffffffffffffffffffffffffffffff1673ffffffffffffffffffffffffffffffffffffffff16635c3aaab7836040518263ffffffff1660e01b8152600401611545919061324c565b602060405180830381865afa158015611562573d6000803e3d6000fd5b505050506040513d601f19601f820116820180604052508101906115869190613a6e565b9050919050565b7f000000000000000000000000000000000000000000000000000000000000000073ffffffffffffffffffffffffffffffffffffffff163073ffffffffffffffffffffffffffffffffffffffff16141561161c576040517f08c379a000000000000000000000000000000000000000000000000000000000815260040161161390613bdf565b60405180910390fd5b7f000000000000000000000000000000000000000000000000000000000000000073ffffffffffffffffffffffffffffffffffffffff1661165b612795565b73ffffffffffffffffffffffffffffffffffffffff16146116b1576040517f08c379a00000000000000000000000000000000000000000000000000000000081526004016116a890613c71565b60405180910390fd5b6116ba826127ec565b6116c68282600161286b565b5050565b6000600260ca541415611712576040517f08c379a0000000000000000000000000000000000000000000000000000000008152600401611709906139b5565b60405180910390fd5b600260ca8190555060008590506001151561179f8273ffffffffffffffffffffffffffffffffffffffff1663c17bd75e6040518163ffffffff1660e01b8152600401600060405180830381865afa158015611771573d6000803e3d6000fd5b505050506040513d6000823e3d601f19601f8201168201806040525081019061179a9190613920565b6126de565b1515146117e1576040517f08c379a00000000000000000000000000000000000000000000000000000000081526004016117d8906140f7565b60405180910390fd5b6000808273ffffffffffffffffffffffffffffffffffffffff1663d6fe0f4434338a8a8a6040518663ffffffff1660e01b81526004016118249493929190614117565b604080518083038185885af1158015611841573d6000803e3d6000fd5b50505050506040513d601f19601f820116820180604052508101906118669190614171565b915091508773ffffffffffffffffffffffffffffffffffffffff167faf36131f1dc94492cced7f049feaadaceaba10e417412ce818eccd383e16f563838573ffffffffffffffffffffffffffffffffffffffff1663c17bd75e6040518163ffffffff1660e01b8152600401600060405180830381865afa1580156118ee573d6000803e3d6000fd5b505050506040513d6000823e3d601f19601f820116820180604052508101906119179190613920565b8673ffffffffffffffffffffffffffffffffffffffff166323bd4d7a6040518163ffffffff1660e01b8152600401600060405180830381865afa158015611962573d6000803e3d6000fd5b505050506040513d6000823e3d601f19601f8201168201806040525081019061198b9190613920565b8b42338c896040516119a49897969594939291906141b1565b60405180910390a260019350505050600160ca81905550949350505050565b60007f000000000000000000000000000000000000000000000000000000000000000073ffffffffffffffffffffffffffffffffffffffff163073ffffffffffffffffffffffffffffffffffffffff1614611a53576040517f08c379a0000000000000000000000000000000000000000000000000000000008152600401611a4a906142af565b60405180910390fd5b7f360894a13ba1a3210667c828492db98dca3e2076cc3735a920a3ca505d382bbc60001b905090565b6000600260ca541415611ac4576040517f08c379a0000000000000000000000000000000000000000000000000000000008152600401611abb906139b5565b60405180910390fd5b600260ca81905550600082905060011515611b518273ffffffffffffffffffffffffffffffffffffffff1663c17bd75e6040518163ffffffff1660e01b8152600401600060405180830381865afa158015611b23573d6000803e3d6000fd5b505050506040513d6000823e3d601f19601f82011682018060405250810190611b4c9190613920565b6126de565b151514611b93576040517f08c379a0000000000000000000000000000000000000000000000000000000008152600401611b8a9061431b565b60405180910390fd5b3373ffffffffffffffffffffffffffffffffffffffff168173ffffffffffffffffffffffffffffffffffffffff166359ba8344866040518263ffffffff1660e01b8152600401611be391906134d0565b602060405180830381865afa158015611c00573d6000803e3d6000fd5b505050506040513d601f19601f82011682018060405250810190611c249190613a6e565b73ffffffffffffffffffffffffffffffffffffffff1614611c7a576040517f08c379a0000000000000000000000000000000000000000000000000000000008152600401611c7190614387565b60405180910390fd5b611d7f8173ffffffffffffffffffffffffffffffffffffffff166356406fa5866040518263ffffffff1660e01b8152600401611cb691906134d0565b602060405180830381865afa158015611cd3573d6000803e3d6000fd5b505050506040513d601f19601f82011682018060405250810190611cf791906143a7565b8273ffffffffffffffffffffffffffffffffffffffff1663968b098f876040518263ffffffff1660e01b8152600401611d3091906134d0565b602060405180830381865afa158015611d4d573d6000803e3d6000fd5b505050506040513d601f19601f82011682018060405250810190611d7191906143a7565b6129d990919063ffffffff16565b421015611dc1576040517f08c379a0000000000000000000000000000000000000000000000000000000008152600401611db890614420565b60405180910390fd5b8073ffffffffffffffffffffffffffffffffffffffff1663641411f885336040518363ffffffff1660e01b8152600401611dfc929190614082565b6020604051808303816000875af1158015611e1b573d6000803e3d6000fd5b505050506040513d601f19601f82011682018060405250810190611e3f9190613e92565b508273ffffffffffffffffffffffffffffffffffffffff167f5cfacced9b0054c7760e6620dfb8bb83cae10b8c701ad759b2e68e0d6707bfd4858373ffffffffffffffffffffffffffffffffffffffff1663c17bd75e6040518163ffffffff1660e01b8152600401600060405180830381865afa158015611ec4573d6000803e3d6000fd5b505050506040513d6000823e3d601f19601f82011682018060405250810190611eed9190613920565b8473ffffffffffffffffffffffffffffffffffffffff166323bd4d7a6040518163ffffffff1660e01b8152600401600060405180830381865afa158015611f38573d6000803e3d6000fd5b505050506040513d6000823e3d601f19601f82011682018060405250810190611f619190613920565b42604051611f729493929190614440565b60405180910390a26001915050600160ca8190555092915050565b611f956129ef565b73ffffffffffffffffffffffffffffffffffffffff16611fb3612343565b73ffffffffffffffffffffffffffffffffffffffff1614612009576040517f08c379a0000000000000000000000000000000000000000000000000000000008152600401612000906144df565b60405180910390fd5b61201360006129f7565b565b600060fc60009054906101000a900473ffffffffffffffffffffffffffffffffffffffff16905090565b6000612049612015565b905090565b6000600260ca541415612096576040517f08c379a000000000000000000000000000000000000000000000000000000000815260040161208d906139b5565b60405180910390fd5b600260ca819055506000859050600115156121238273ffffffffffffffffffffffffffffffffffffffff1663c17bd75e6040518163ffffffff1660e01b8152600401600060405180830381865afa1580156120f5573d6000803e3d6000fd5b505050506040513d6000823e3d601f19601f8201168201806040525081019061211e9190613920565b6126de565b151514612165576040517f08c379a000000000000000000000000000000000000000000000000000000000815260040161215c906140f7565b60405180910390fd5b60008173ffffffffffffffffffffffffffffffffffffffff1663e129b333338888886040518563ffffffff1660e01b81526004016121a69493929190614117565b6020604051808303816000875af11580156121c5573d6000803e3d6000fd5b505050506040513d601f19601f820116820180604052508101906121e99190613e39565b90508673ffffffffffffffffffffffffffffffffffffffff167f787b2d0c3b917fe6a118b5225b044e4a4ba6d2d1cfa26f9b156fc1b1e263dee7828473ffffffffffffffffffffffffffffffffffffffff1663c17bd75e6040518163ffffffff1660e01b8152600401600060405180830381865afa15801561226f573d6000803e3d6000fd5b505050506040513d6000823e3d601f19601f820116820180604052508101906122989190613920565b8573ffffffffffffffffffffffffffffffffffffffff166323bd4d7a6040518163ffffffff1660e01b8152600401600060405180830381865afa1580156122e3573d6000803e3d6000fd5b505050506040513d6000823e3d601f19601f8201168201806040525081019061230c9190613920565b8a42338b8d6040516123259897969594939291906141b1565b60405180910390a2600192505050600160ca81905550949350505050565b6000606660009054906101000a900473ffffffffffffffffffffffffffffffffffffffff16905090565b6000612377612795565b905090565b600160009054906101000a900473ffffffffffffffffffffffffffffffffffffffff1681565b600160159054906101000a900460ff166123cc57600160149054906101000a900460ff16156123d5565b6123d4612abd565b5b612414576040517f08c379a000000000000000000000000000000000000000000000000000000000815260040161240b90614571565b60405180910390fd5b6000600160159054906101000a900460ff1615905080156124645760018060156101000a81548160ff02191690831515021790555060018060146101000a81548160ff0219169083151502179055505b61246c612ace565b612474612b27565b61247d82612b78565b612485612c0b565b80156124a7576000600160156101000a81548160ff0219169083151502179055505b5050565b6124b36129ef565b73ffffffffffffffffffffffffffffffffffffffff166124d1612343565b73ffffffffffffffffffffffffffffffffffffffff1614612527576040517f08c379a000000000000000000000000000000000000000000000000000000000815260040161251e906144df565b60405180910390fd5b600073ffffffffffffffffffffffffffffffffffffffff168173ffffffffffffffffffffffffffffffffffffffff161415612597576040517f08c379a000000000000000000000000000000000000000000000000000000000815260040161258e90614603565b60405180910390fd5b6125a081612c64565b50565b6125ab6129ef565b73ffffffffffffffffffffffffffffffffffffffff166125c9612343565b73ffffffffffffffffffffffffffffffffffffffff161461261f576040517f08c379a0000000000000000000000000000000000000000000000000000000008152600401612616906144df565b60405180910390fd5b600073ffffffffffffffffffffffffffffffffffffffff168173ffffffffffffffffffffffffffffffffffffffff16141561268f576040517f08c379a000000000000000000000000000000000000000000000000000000000815260040161268690614695565b60405180910390fd5b612698816129f7565b50565b806000806101000a81548173ffffffffffffffffffffffffffffffffffffffff021916908373ffffffffffffffffffffffffffffffffffffffff16021790555050565b6000806126ea836114e8565b905060008190506000806001811115612706576127056146b5565b5b8273ffffffffffffffffffffffffffffffffffffffff1663200d2ed26040518163ffffffff1660e01b8152600401602060405180830381865afa158015612751573d6000803e3d6000fd5b505050506040513d601f19601f820116820180604052508101906127759190614709565b6001811115612787576127866146b5565b5b149050809350505050919050565b60006127c37f360894a13ba1a3210667c828492db98dca3e2076cc3735a920a3ca505d382bbc60001b612d2a565b60000160009054906101000a900473ffffffffffffffffffffffffffffffffffffffff16905090565b6127f46129ef565b73ffffffffffffffffffffffffffffffffffffffff16612812612343565b73ffffffffffffffffffffffffffffffffffffffff1614612868576040517f08c379a000000000000000000000000000000000000000000000000000000000815260040161285f906144df565b60405180910390fd5b50565b6128977f4910fdfa16fed3260ed0e7147f7cc6da11a60208b5b9406d12a635614ffd914360001b612d34565b60000160009054906101000a900460ff16156128bb576128b683612d3e565b6129d4565b8273ffffffffffffffffffffffffffffffffffffffff166352d1902d6040518163ffffffff1660e01b8152600401602060405180830381865afa92505050801561292357506040513d601f19601f820116820180604052508101906129209190613e39565b60015b612962576040517f08c379a0000000000000000000000000000000000000000000000000000000008152600401612959906147a8565b60405180910390fd5b7f360894a13ba1a3210667c828492db98dca3e2076cc3735a920a3ca505d382bbc60001b81146129c7576040517f08c379a00000000000000000000000000000000000000000000000000000000081526004016129be9061483a565b60405180910390fd5b506129d3838383612df7565b5b505050565b600081836129e7919061485a565b905092915050565b600033905090565b6000606660009054906101000a900473ffffffffffffffffffffffffffffffffffffffff16905081606660006101000a81548173ffffffffffffffffffffffffffffffffffffffff021916908373ffffffffffffffffffffffffffffffffffffffff1602179055508173ffffffffffffffffffffffffffffffffffffffff168173ffffffffffffffffffffffffffffffffffffffff167f8be0079c531659141344cd1fd0a4f28419497f9722a3daafe3b4186f6b6457e060405160405180910390a35050565b6000612ac830612e23565b15905090565b600160159054906101000a900460ff16612b1d576040517f08c379a0000000000000000000000000000000000000000000000000000000008152600401612b1490614922565b60405180910390fd5b612b25612e46565b565b600160159054906101000a900460ff16612b76576040517f08c379a0000000000000000000000000000000000000000000000000000000008152600401612b6d90614922565b60405180910390fd5b565b600160159054906101000a900460ff16612bc7576040517f08c379a0000000000000000000000000000000000000000000000000000000008152600401612bbe90614922565b60405180910390fd5b8060fc60006101000a81548173ffffffffffffffffffffffffffffffffffffffff021916908373ffffffffffffffffffffffffffffffffffffffff16021790555050565b600160159054906101000a900460ff16612c5a576040517f08c379a0000000000000000000000000000000000000000000000000000000008152600401612c5190614922565b60405180910390fd5b612c62612ea7565b565b600060fc60009054906101000a900473ffffffffffffffffffffffffffffffffffffffff1690508160fc60006101000a81548173ffffffffffffffffffffffffffffffffffffffff021916908373ffffffffffffffffffffffffffffffffffffffff1602179055508173ffffffffffffffffffffffffffffffffffffffff168173ffffffffffffffffffffffffffffffffffffffff167f9b0948b943e24ff3413cb400b2eeae4337138739aaf31759dc6e813e8076fbc360405160405180910390a35050565b6000819050919050565b6000819050919050565b612d4781612e23565b612d86576040517f08c379a0000000000000000000000000000000000000000000000000000000008152600401612d7d906149b4565b60405180910390fd5b80612db37f360894a13ba1a3210667c828492db98dca3e2076cc3735a920a3ca505d382bbc60001b612d2a565b60000160006101000a81548173ffffffffffffffffffffffffffffffffffffffff021916908373ffffffffffffffffffffffffffffffffffffffff16021790555050565b612e0083612f00565b600082511180612e0d5750805b15612e1e57612e1c8383612f4f565b505b505050565b6000808273ffffffffffffffffffffffffffffffffffffffff163b119050919050565b600160159054906101000a900460ff16612e95576040517f08c379a0000000000000000000000000000000000000000000000000000000008152600401612e8c90614922565b60405180910390fd5b612ea5612ea06129ef565b6129f7565b565b600160159054906101000a900460ff16612ef6576040517f08c379a0000000000000000000000000000000000000000000000000000000008152600401612eed90614922565b60405180910390fd5b600160ca81905550565b612f0981612d3e565b8073ffffffffffffffffffffffffffffffffffffffff167fbc7cd75a20ee27fd9adebab32041f755214dbc6bffa90cc0225b39da2e5c2d3b60405160405180910390a250565b6060612f5a83612e23565b612f99576040517f08c379a0000000000000000000000000000000000000000000000000000000008152600401612f9090614a46565b60405180910390fd5b6000808473ffffffffffffffffffffffffffffffffffffffff1684604051612fc19190614aad565b600060405180830381855af49150503d8060008114612ffc576040519150601f19603f3d011682016040523d82523d6000602084013e613001565b606091505b50915091506130298282604051806060016040528060278152602001614ac560279139613033565b9250505092915050565b6060831561304357829050613093565b6000835111156130565782518084602001fd5b816040517f08c379a000000000000000000000000000000000000000000000000000000000815260040161308a919061324c565b60405180910390fd5b9392505050565b600073ffffffffffffffffffffffffffffffffffffffff82169050919050565b6000819050919050565b60006130df6130da6130d58461309a565b6130ba565b61309a565b9050919050565b60006130f1826130c4565b9050919050565b6000613103826130e6565b9050919050565b613113816130f8565b82525050565b600060208201905061312e600083018461310a565b92915050565b6000604051905090565b600080fd5b600080fd5b60006131538261309a565b9050919050565b61316381613148565b811461316e57600080fd5b50565b6000813590506131808161315a565b92915050565b60006020828403121561319c5761319b61313e565b5b60006131aa84828501613171565b91505092915050565b600081519050919050565b600082825260208201905092915050565b60005b838110156131ed5780820151818401526020810190506131d2565b838111156131fc576000848401525b50505050565b6000601f19601f8301169050919050565b600061321e826131b3565b61322881856131be565b93506132388185602086016131cf565b61324181613202565b840191505092915050565b600060208201905081810360008301526132668184613213565b905092915050565b600080fd5b600080fd5b600080fd5b60008083601f8401126132935761329261326e565b5b8235905067ffffffffffffffff8111156132b0576132af613273565b5b6020830191508360018202830111156132cc576132cb613278565b5b9250929050565b600080600080604085870312156132ed576132ec61313e565b5b600085013567ffffffffffffffff81111561330b5761330a613143565b5b6133178782880161327d565b9450945050602085013567ffffffffffffffff81111561333a57613339613143565b5b6133468782880161327d565b925092505092959194509250565b61335d81613148565b82525050565b60006020820190506133786000830184613354565b92915050565b6000819050919050565b6133918161337e565b811461339c57600080fd5b50565b6000813590506133ae81613388565b92915050565b6000806000604084860312156133cd576133cc61313e565b5b60006133db8682870161339f565b935050602084013567ffffffffffffffff8111156133fc576133fb613143565b5b6134088682870161327d565b92509250509250925092565b60008060006040848603121561342d5761342c61313e565b5b600084013567ffffffffffffffff81111561344b5761344a613143565b5b6134578682870161327d565b9350935050602061346a86828701613171565b9150509250925092565b6000806020838503121561348b5761348a61313e565b5b600083013567ffffffffffffffff8111156134a9576134a8613143565b5b6134b58582860161327d565b92509250509250929050565b6134ca8161337e565b82525050565b60006020820190506134e560008301846134c1565b92915050565b600080fd5b7f4e487b7100000000000000000000000000000000000000000000000000000000600052604160045260246000fd5b61352882613202565b810181811067ffffffffffffffff82111715613547576135466134f0565b5b80604052505050565b600061355a613134565b9050613566828261351f565b919050565b600067ffffffffffffffff821115613586576135856134f0565b5b61358f82613202565b9050602081019050919050565b82818337600083830152505050565b60006135be6135b98461356b565b613550565b9050828152602081018484840111156135da576135d96134eb565b5b6135e584828561359c565b509392505050565b600082601f8301126136025761360161326e565b5b81356136128482602086016135ab565b91505092915050565b6000602082840312156136315761363061313e565b5b600082013567ffffffffffffffff81111561364f5761364e613143565b5b61365b848285016135ed565b91505092915050565b600067ffffffffffffffff82111561367f5761367e6134f0565b5b61368882613202565b9050602081019050919050565b60006136a86136a384613664565b613550565b9050828152602081018484840111156136c4576136c36134eb565b5b6136cf84828561359c565b509392505050565b600082601f8301126136ec576136eb61326e565b5b81356136fc848260208601613695565b91505092915050565b6000806040838503121561371c5761371b61313e565b5b600061372a85828601613171565b925050602083013567ffffffffffffffff81111561374b5761374a613143565b5b613757858286016136d7565b9150509250929050565b6000819050919050565b61377481613761565b811461377f57600080fd5b50565b6000813590506137918161376b565b92915050565b600080600080608085870312156137b1576137b061313e565b5b60006137bf87828801613171565b94505060206137d087828801613171565b93505060406137e187828801613782565b92505060606137f287828801613782565b91505092959194509250565b60008115159050919050565b613813816137fe565b82525050565b600060208201905061382e600083018461380a565b92915050565b6000806040838503121561384b5761384a61313e565b5b60006138598582860161339f565b925050602061386a85828601613171565b9150509250929050565b600061387f826130e6565b9050919050565b61388f81613874565b82525050565b60006020820190506138aa6000830184613886565b92915050565b60006138c36138be8461356b565b613550565b9050828152602081018484840111156138df576138de6134eb565b5b6138ea8482856131cf565b509392505050565b600082601f8301126139075761390661326e565b5b81516139178482602086016138b0565b91505092915050565b6000602082840312156139365761393561313e565b5b600082015167ffffffffffffffff81111561395457613953613143565b5b613960848285016138f2565b91505092915050565b7f5265656e7472616e637947756172643a207265656e7472616e742063616c6c00600082015250565b600061399f601f836131be565b91506139aa82613969565b602082019050919050565b600060208201905081810360008301526139ce81613992565b9050919050565b60006139e183856131be565b93506139ee83858461359c565b6139f783613202565b840190509392505050565b60006080820190508181036000830152613a1d81888a6139d5565b9050613a2c6020830187613354565b8181036040830152613a3f8185876139d5565b9050613a4e6060830184613354565b979650505050505050565b600081519050613a688161315a565b92915050565b600060208284031215613a8457613a8361313e565b5b6000613a9284828501613a59565b91505092915050565b613aa481613761565b82525050565b60006080820190508181036000830152613ac581888a6139d5565b90508181036020830152613ada8186886139d5565b9050613ae96040830185613354565b613af66060830184613a9b565b979650505050505050565b7f4a554447494e475f434c4f5345445f424f554e54590000000000000000000000600082015250565b6000613b376015836131be565b9150613b4282613b01565b602082019050919050565b60006020820190508181036000830152613b6681613b2a565b9050919050565b7f46756e6374696f6e206d7573742062652063616c6c6564207468726f7567682060008201527f64656c656761746563616c6c0000000000000000000000000000000000000000602082015250565b6000613bc9602c836131be565b9150613bd482613b6d565b604082019050919050565b60006020820190508181036000830152613bf881613bbc565b9050919050565b7f46756e6374696f6e206d7573742062652063616c6c6564207468726f7567682060008201527f6163746976652070726f78790000000000000000000000000000000000000000602082015250565b6000613c5b602c836131be565b9150613c6682613bff565b604082019050919050565b60006020820190508181036000830152613c8a81613c4e565b9050919050565b7f434c41494d494e475f434c4f5345445f424f554e545900000000000000000000600082015250565b6000613cc76016836131be565b9150613cd282613c91565b602082019050919050565b60006020820190508181036000830152613cf681613cba565b9050919050565b600067ffffffffffffffff821115613d1857613d176134f0565b5b602082029050602081019050919050565b600081519050613d3881613388565b92915050565b6000613d51613d4c84613cfd565b613550565b90508083825260208201905060208402830185811115613d7457613d73613278565b5b835b81811015613d9d5780613d898882613d29565b845260208401935050602081019050613d76565b5050509392505050565b600082601f830112613dbc57613dbb61326e565b5b8151613dcc848260208601613d3e565b91505092915050565b600060208284031215613deb57613dea61313e565b5b600082015167ffffffffffffffff811115613e0957613e08613143565b5b613e1584828501613da7565b91505092915050565b6000602082019050613e336000830184613a9b565b92915050565b600060208284031215613e4f57613e4e61313e565b5b6000613e5d84828501613d29565b91505092915050565b613e6f816137fe565b8114613e7a57600080fd5b50565b600081519050613e8c81613e66565b92915050565b600060208284031215613ea857613ea761313e565b5b6000613eb684828501613e7d565b91505092915050565b6000604082019050613ed46000830185613354565b613ee160208301846134c1565b9392505050565b600060a082019050613efd60008301886134c1565b8181036020830152613f0f8187613213565b90508181036040830152613f238186613213565b9050613f326060830185613354565b613f3f6080830184613a9b565b9695505050505050565b7f4e487b7100000000000000000000000000000000000000000000000000000000600052601160045260246000fd5b6000613f8382613761565b91507fffffffffffffffffffffffffffffffffffffffffffffffffffffffffffffffff821415613fb657613fb5613f49565b5b600182019050919050565b60006080820190508181036000830152613fdc8187896139d5565b90508181036020830152613ff08186613213565b9050613fff6040830185613354565b61400c6060830184613a9b565b9695505050505050565b7f5355424d495353494f4e535f434c4f5345440000000000000000000000000000600082015250565b600061404c6012836131be565b915061405782614016565b602082019050919050565b6000602082019050818103600083015261407b8161403f565b9050919050565b600060408201905061409760008301856134c1565b6140a46020830184613354565b9392505050565b7f46554e44494e475f434c4f5345445f424f554e54590000000000000000000000600082015250565b60006140e16015836131be565b91506140ec826140ab565b602082019050919050565b60006020820190508181036000830152614110816140d4565b9050919050565b600060808201905061412c6000830187613354565b6141396020830186613354565b6141466040830185613a9b565b6141536060830184613a9b565b95945050505050565b60008151905061416b8161376b565b92915050565b600080604083850312156141885761418761313e565b5b600061419685828601613d29565b92505060206141a78582860161415c565b9150509250929050565b6000610100820190506141c7600083018b6134c1565b81810360208301526141d9818a613213565b905081810360408301526141ed8189613213565b90506141fc6060830188613354565b6142096080830187613a9b565b61421660a0830186613354565b61422360c0830185613a9b565b61423060e0830184613a9b565b9998505050505050505050565b7f555550535570677261646561626c653a206d757374206e6f742062652063616c60008201527f6c6564207468726f7567682064656c656761746563616c6c0000000000000000602082015250565b60006142996038836131be565b91506142a48261423d565b604082019050919050565b600060208201905081810360008301526142c88161428c565b9050919050565b7f524546554e44494e475f434c4f5345445f424f554e5459000000000000000000600082015250565b60006143056017836131be565b9150614310826142cf565b602082019050919050565b60006020820190508181036000830152614334816142f8565b9050919050565b7f4f4e4c595f46554e4445525f43414e5f524551554553545f524546554e440000600082015250565b6000614371601e836131be565b915061437c8261433b565b602082019050919050565b600060208201905081810360008301526143a081614364565b9050919050565b6000602082840312156143bd576143bc61313e565b5b60006143cb8482850161415c565b91505092915050565b7f5052454d41545552455f524546554e445f524551554553540000000000000000600082015250565b600061440a6018836131be565b9150614415826143d4565b602082019050919050565b60006020820190508181036000830152614439816143fd565b9050919050565b600060808201905061445560008301876134c1565b81810360208301526144678186613213565b9050818103604083015261447b8185613213565b905061448a6060830184613a9b565b95945050505050565b7f4f776e61626c653a2063616c6c6572206973206e6f7420746865206f776e6572600082015250565b60006144c96020836131be565b91506144d482614493565b602082019050919050565b600060208201905081810360008301526144f8816144bc565b9050919050565b7f496e697469616c697a61626c653a20636f6e747261637420697320616c72656160008201527f647920696e697469616c697a6564000000000000000000000000000000000000602082015250565b600061455b602e836131be565b9150614566826144ff565b604082019050919050565b6000602082019050818103600083015261458a8161454e565b9050919050565b7f4f7261636c697a653a206e6577206f7261636c6520697320746865207a65726f60008201527f2061646472657373000000000000000000000000000000000000000000000000602082015250565b60006145ed6028836131be565b91506145f882614591565b604082019050919050565b6000602082019050818103600083015261461c816145e0565b9050919050565b7f4f776e61626c653a206e6577206f776e657220697320746865207a65726f206160008201527f6464726573730000000000000000000000000000000000000000000000000000602082015250565b600061467f6026836131be565b915061468a82614623565b604082019050919050565b600060208201905081810360008301526146ae81614672565b9050919050565b7f4e487b7100000000000000000000000000000000000000000000000000000000600052602160045260246000fd5b600281106146f157600080fd5b50565b600081519050614703816146e4565b92915050565b60006020828403121561471f5761471e61313e565b5b600061472d848285016146f4565b91505092915050565b7f45524331393637557067726164653a206e657720696d706c656d656e7461746960008201527f6f6e206973206e6f742055555053000000000000000000000000000000000000602082015250565b6000614792602e836131be565b915061479d82614736565b604082019050919050565b600060208201905081810360008301526147c181614785565b9050919050565b7f45524331393637557067726164653a20756e737570706f727465642070726f7860008201527f6961626c65555549440000000000000000000000000000000000000000000000602082015250565b60006148246029836131be565b915061482f826147c8565b604082019050919050565b6000602082019050818103600083015261485381614817565b9050919050565b600061486582613761565b915061487083613761565b9250827fffffffffffffffffffffffffffffffffffffffffffffffffffffffffffffffff038211156148a5576148a4613f49565b5b828201905092915050565b7f496e697469616c697a61626c653a20636f6e7472616374206973206e6f74206960008201527f6e697469616c697a696e67000000000000000000000000000000000000000000602082015250565b600061490c602b836131be565b9150614917826148b0565b604082019050919050565b6000602082019050818103600083015261493b816148ff565b9050919050565b7f455243313936373a206e657720696d706c656d656e746174696f6e206973206e60008201527f6f74206120636f6e747261637400000000000000000000000000000000000000602082015250565b600061499e602d836131be565b91506149a982614942565b604082019050919050565b600060208201905081810360008301526149cd81614991565b9050919050565b7f416464726573733a2064656c65676174652063616c6c20746f206e6f6e2d636f60008201527f6e74726163740000000000000000000000000000000000000000000000000000602082015250565b6000614a306026836131be565b9150614a3b826149d4565b604082019050919050565b60006020820190508181036000830152614a5f81614a23565b9050919050565b600081519050919050565b600081905092915050565b6000614a8782614a66565b614a918185614a71565b9350614aa18185602086016131cf565b80840191505092915050565b6000614ab98284614a7c565b91508190509291505056fe416464726573733a206c6f772d6c6576656c2064656c65676174652063616c6c206661696c6564a2646970667358221220f9a445f6cb9238b6952cf7fae06966a324a371e71b580e8f9dcb88bf12abc09264736f6c634300080b0033",
  "linkReferences": {},
  "deployedLinkReferences": {}
}