{
  "_format": "hh-sol-artifact-1",
  "contractName": "OpenQV0",
  "sourceName": "contracts/OpenQ/Implementations/OpenQV0.sol",
  "abi": [
    {
      "anonymous": false,
      "inputs": [
        {
          "indexed": false,
          "internalType": "address",
          "name": "previousAdmin",
          "type": "address"
        },
        {
          "indexed": false,
          "internalType": "address",
          "name": "newAdmin",
          "type": "address"
        }
      ],
      "name": "AdminChanged",
      "type": "event"
    },
    {
      "anonymous": false,
      "inputs": [
        {
          "indexed": true,
          "internalType": "address",
          "name": "beacon",
          "type": "address"
        }
      ],
      "name": "BeaconUpgraded",
      "type": "event"
    },
    {
      "anonymous": false,
      "inputs": [
        {
          "indexed": false,
          "internalType": "string",
          "name": "bountyId",
          "type": "string"
        },
        {
          "indexed": true,
          "internalType": "address",
          "name": "bountyAddress",
          "type": "address"
        },
        {
          "indexed": false,
          "internalType": "string",
          "name": "organization",
          "type": "string"
        },
        {
          "indexed": false,
          "internalType": "address",
          "name": "closer",
          "type": "address"
        },
        {
          "indexed": false,
          "internalType": "uint256",
          "name": "bountyClosedTime",
          "type": "uint256"
        }
      ],
      "name": "BountyClosed",
      "type": "event"
    },
    {
      "anonymous": false,
      "inputs": [
        {
          "indexed": false,
          "internalType": "string",
          "name": "bountyId",
          "type": "string"
        },
        {
          "indexed": false,
          "internalType": "string",
          "name": "organization",
          "type": "string"
        },
        {
          "indexed": false,
          "internalType": "address",
          "name": "issuerAddress",
          "type": "address"
        },
        {
          "indexed": true,
          "internalType": "address",
          "name": "bountyAddress",
          "type": "address"
        },
        {
          "indexed": false,
          "internalType": "uint256",
          "name": "bountyMintTime",
          "type": "uint256"
        }
      ],
      "name": "BountyCreated",
      "type": "event"
    },
    {
      "anonymous": false,
      "inputs": [
        {
          "indexed": false,
          "internalType": "bytes32",
          "name": "depositId",
          "type": "bytes32"
        },
        {
          "indexed": false,
          "internalType": "string",
          "name": "bountyId",
          "type": "string"
        },
        {
          "indexed": true,
          "internalType": "address",
          "name": "bountyAddress",
          "type": "address"
        },
        {
          "indexed": false,
          "internalType": "string",
          "name": "organization",
          "type": "string"
        },
        {
          "indexed": false,
          "internalType": "address",
          "name": "closer",
          "type": "address"
        },
        {
          "indexed": false,
          "internalType": "uint256",
          "name": "payoutTime",
          "type": "uint256"
        }
      ],
      "name": "DepositClaimed",
      "type": "event"
    },
    {
      "anonymous": false,
      "inputs": [
        {
          "indexed": false,
          "internalType": "bytes32",
          "name": "depositId",
          "type": "bytes32"
        },
        {
          "indexed": false,
          "internalType": "string",
          "name": "bountyId",
          "type": "string"
        },
        {
          "indexed": true,
          "internalType": "address",
          "name": "bountyAddress",
          "type": "address"
        },
        {
          "indexed": false,
          "internalType": "string",
          "name": "organization",
          "type": "string"
        },
        {
          "indexed": false,
          "internalType": "uint256",
          "name": "refundTime",
          "type": "uint256"
        }
      ],
      "name": "DepositRefunded",
      "type": "event"
    },
    {
      "anonymous": false,
      "inputs": [
        {
          "indexed": false,
          "internalType": "bytes32",
          "name": "depositId",
          "type": "bytes32"
        },
        {
          "indexed": true,
          "internalType": "address",
          "name": "bountyAddress",
          "type": "address"
        },
        {
          "indexed": false,
          "internalType": "string",
          "name": "bountyId",
          "type": "string"
        },
        {
          "indexed": false,
          "internalType": "string",
          "name": "organization",
          "type": "string"
        },
        {
          "indexed": false,
          "internalType": "address",
          "name": "tokenAddress",
          "type": "address"
        },
        {
          "indexed": false,
          "internalType": "uint256",
          "name": "receiveTime",
          "type": "uint256"
        },
        {
          "indexed": false,
          "internalType": "address",
          "name": "sender",
          "type": "address"
        },
        {
          "indexed": false,
          "internalType": "uint256",
          "name": "expiration",
          "type": "uint256"
        },
        {
          "indexed": false,
          "internalType": "uint256",
          "name": "tokenId",
          "type": "uint256"
        }
      ],
      "name": "NFTDepositReceived",
      "type": "event"
    },
    {
      "anonymous": false,
      "inputs": [
        {
          "indexed": true,
          "internalType": "address",
          "name": "previousOracle",
          "type": "address"
        },
        {
          "indexed": true,
          "internalType": "address",
          "name": "newOracle",
          "type": "address"
        }
      ],
      "name": "OracleTransferred",
      "type": "event"
    },
    {
      "anonymous": false,
      "inputs": [
        {
          "indexed": true,
          "internalType": "address",
          "name": "previousOwner",
          "type": "address"
        },
        {
          "indexed": true,
          "internalType": "address",
          "name": "newOwner",
          "type": "address"
        }
      ],
      "name": "OwnershipTransferred",
      "type": "event"
    },
    {
      "anonymous": false,
      "inputs": [
        {
          "indexed": false,
          "internalType": "bytes32",
          "name": "submissionId",
          "type": "bytes32"
        }
      ],
      "name": "SubmissionReceived",
      "type": "event"
    },
    {
      "anonymous": false,
      "inputs": [
        {
          "indexed": false,
          "internalType": "bytes32",
          "name": "depositId",
          "type": "bytes32"
        },
        {
          "indexed": true,
          "internalType": "address",
          "name": "bountyAddress",
          "type": "address"
        },
        {
          "indexed": false,
          "internalType": "string",
          "name": "bountyId",
          "type": "string"
        },
        {
          "indexed": false,
          "internalType": "string",
          "name": "organization",
          "type": "string"
        },
        {
          "indexed": false,
          "internalType": "address",
          "name": "tokenAddress",
          "type": "address"
        },
        {
          "indexed": false,
          "internalType": "uint256",
          "name": "receiveTime",
          "type": "uint256"
        },
        {
          "indexed": false,
          "internalType": "address",
          "name": "sender",
          "type": "address"
        },
        {
          "indexed": false,
          "internalType": "uint256",
          "name": "expiration",
          "type": "uint256"
        },
        {
          "indexed": false,
          "internalType": "uint256",
          "name": "volume",
          "type": "uint256"
        }
      ],
      "name": "TokenDepositReceived",
      "type": "event"
    },
    {
      "anonymous": false,
      "inputs": [
        {
          "indexed": true,
          "internalType": "address",
          "name": "implementation",
          "type": "address"
        }
      ],
      "name": "Upgraded",
      "type": "event"
    },
    {
      "anonymous": false,
      "inputs": [
        {
          "indexed": false,
          "internalType": "address",
          "name": "_payoutAddress",
          "type": "address"
        },
        {
          "indexed": false,
          "internalType": "address",
          "name": "_funder",
          "type": "address"
        },
        {
          "indexed": false,
          "internalType": "string",
          "name": "bountyId",
          "type": "string"
        },
        {
          "indexed": true,
          "internalType": "address",
          "name": "bountyAddress",
          "type": "address"
        },
        {
          "indexed": false,
          "internalType": "uint256",
          "name": "selectionTime",
          "type": "uint256"
        }
      ],
      "name": "WinnerSelected",
      "type": "event"
    },
    {
      "stateMutability": "nonpayable",
      "type": "fallback"
    },
    {
      "inputs": [
        {
          "internalType": "address",
          "name": "bountyAddress",
          "type": "address"
        }
      ],
      "name": "bountyAddressToBountyId",
      "outputs": [
        {
          "internalType": "string",
          "name": "",
          "type": "string"
        }
      ],
      "stateMutability": "view",
      "type": "function"
    },
    {
      "inputs": [],
      "name": "bountyFactory",
      "outputs": [
        {
          "internalType": "contract BountyFactory",
          "name": "",
          "type": "address"
        }
      ],
      "stateMutability": "view",
      "type": "function"
    },
    {
      "inputs": [
        {
          "internalType": "string",
          "name": "_id",
          "type": "string"
        }
      ],
      "name": "bountyIdToAddress",
      "outputs": [
        {
          "internalType": "address",
          "name": "",
          "type": "address"
        }
      ],
      "stateMutability": "view",
      "type": "function"
    },
    {
      "inputs": [
        {
          "internalType": "string",
          "name": "_id",
          "type": "string"
        }
      ],
      "name": "bountyIsOpen",
      "outputs": [
        {
          "internalType": "bool",
          "name": "",
          "type": "bool"
        }
      ],
      "stateMutability": "view",
      "type": "function"
    },
    {
      "inputs": [
        {
          "internalType": "string",
          "name": "_bountyId",
          "type": "string"
        },
        {
          "internalType": "address",
          "name": "closer",
          "type": "address"
        }
      ],
      "name": "claimBounty",
      "outputs": [],
      "stateMutability": "nonpayable",
      "type": "function"
    },
    {
      "inputs": [
        {
          "internalType": "address",
          "name": "_bountyAddress",
          "type": "address"
        },
        {
          "internalType": "address",
          "name": "_tokenAddress",
          "type": "address"
        },
        {
          "internalType": "uint256",
          "name": "_tokenId",
          "type": "uint256"
        },
        {
          "internalType": "uint256",
          "name": "_expiration",
          "type": "uint256"
        }
      ],
      "name": "fundBountyNFT",
      "outputs": [
        {
          "internalType": "bool",
          "name": "success",
          "type": "bool"
        }
      ],
      "stateMutability": "nonpayable",
      "type": "function"
    },
    {
      "inputs": [
        {
          "internalType": "address",
          "name": "_bountyAddress",
          "type": "address"
        },
        {
          "internalType": "address",
          "name": "_tokenAddress",
          "type": "address"
        },
        {
          "internalType": "uint256",
          "name": "_volume",
          "type": "uint256"
        },
        {
          "internalType": "uint256",
          "name": "_expiration",
          "type": "uint256"
        }
      ],
      "name": "fundBountyToken",
      "outputs": [
        {
          "internalType": "bool",
          "name": "success",
          "type": "bool"
        }
      ],
      "stateMutability": "payable",
      "type": "function"
    },
    {
      "inputs": [],
      "name": "getImplementation",
      "outputs": [
        {
          "internalType": "address",
          "name": "",
          "type": "address"
        }
      ],
      "stateMutability": "view",
      "type": "function"
    },
    {
      "inputs": [],
      "name": "getOracle",
      "outputs": [
        {
          "internalType": "address",
          "name": "",
          "type": "address"
        }
      ],
      "stateMutability": "view",
      "type": "function"
    },
    {
      "inputs": [
        {
          "internalType": "address",
          "name": "oracle",
          "type": "address"
        }
      ],
      "name": "initialize",
      "outputs": [],
      "stateMutability": "nonpayable",
      "type": "function"
    },
    {
      "inputs": [
        {
          "internalType": "string",
          "name": "_id",
          "type": "string"
        },
        {
          "internalType": "string",
          "name": "_organization",
          "type": "string"
        }
      ],
      "name": "mintBounty",
      "outputs": [
        {
          "internalType": "address",
          "name": "",
          "type": "address"
        }
      ],
      "stateMutability": "nonpayable",
      "type": "function"
    },
    {
      "inputs": [],
      "name": "openQStorage",
      "outputs": [
        {
          "internalType": "contract OpenQStorage",
          "name": "",
          "type": "address"
        }
      ],
      "stateMutability": "view",
      "type": "function"
    },
    {
      "inputs": [],
      "name": "oracle",
      "outputs": [
        {
          "internalType": "address",
          "name": "",
          "type": "address"
        }
      ],
      "stateMutability": "view",
      "type": "function"
    },
    {
      "inputs": [],
      "name": "owner",
      "outputs": [
        {
          "internalType": "address",
          "name": "",
          "type": "address"
        }
      ],
      "stateMutability": "view",
      "type": "function"
    },
    {
      "inputs": [
        {
          "internalType": "bytes32",
          "name": "_depositId",
          "type": "bytes32"
        },
        {
          "internalType": "address",
          "name": "_bountyAddress",
          "type": "address"
        }
      ],
      "name": "refundDeposit",
      "outputs": [
        {
          "internalType": "bool",
          "name": "success",
          "type": "bool"
        }
      ],
      "stateMutability": "nonpayable",
      "type": "function"
    },
    {
      "inputs": [],
      "name": "renounceOwnership",
      "outputs": [],
      "stateMutability": "nonpayable",
      "type": "function"
    },
    {
      "inputs": [
        {
          "internalType": "bytes32",
          "name": "submissionId",
          "type": "bytes32"
        },
        {
          "internalType": "string",
          "name": "_bountyId",
          "type": "string"
        }
      ],
      "name": "selectWinner",
      "outputs": [
        {
          "internalType": "address",
          "name": "",
          "type": "address"
        }
      ],
      "stateMutability": "nonpayable",
      "type": "function"
    },
    {
      "inputs": [
        {
          "internalType": "address",
          "name": "_bountyFactory",
          "type": "address"
        }
      ],
      "name": "setBountyFactory",
      "outputs": [],
      "stateMutability": "nonpayable",
      "type": "function"
    },
    {
      "inputs": [
        {
          "internalType": "address",
          "name": "_openQStorage",
          "type": "address"
        }
      ],
      "name": "setOpenQStorage",
      "outputs": [],
      "stateMutability": "nonpayable",
      "type": "function"
    },
    {
      "inputs": [
        {
          "internalType": "string",
          "name": "_bountyId",
          "type": "string"
        }
      ],
      "name": "submitMethod",
      "outputs": [
        {
          "internalType": "bytes32",
          "name": "",
          "type": "bytes32"
        }
      ],
      "stateMutability": "nonpayable",
      "type": "function"
    },
    {
      "inputs": [
        {
          "internalType": "address",
          "name": "newOracle",
          "type": "address"
        }
      ],
      "name": "transferOracle",
      "outputs": [],
      "stateMutability": "nonpayable",
      "type": "function"
    },
    {
      "inputs": [
        {
          "internalType": "address",
          "name": "newOwner",
          "type": "address"
        }
      ],
      "name": "transferOwnership",
      "outputs": [],
      "stateMutability": "nonpayable",
      "type": "function"
    },
    {
      "inputs": [
        {
          "internalType": "address",
          "name": "newImplementation",
          "type": "address"
        }
      ],
      "name": "upgradeTo",
      "outputs": [],
      "stateMutability": "nonpayable",
      "type": "function"
    },
    {
      "inputs": [
        {
          "internalType": "address",
          "name": "newImplementation",
          "type": "address"
        },
        {
          "internalType": "bytes",
          "name": "data",
          "type": "bytes"
        }
      ],
      "name": "upgradeToAndCall",
      "outputs": [],
      "stateMutability": "payable",
      "type": "function"
    }
  ],
  "bytecode": "0x60a06040523073ffffffffffffffffffffffffffffffffffffffff1660809073ffffffffffffffffffffffffffffffffffffffff1681525034801561004357600080fd5b50608051614bd961007460003960008181610a9501528181610b24015281816115fd015261168c0152614bd96000f3fe60806040526004361061014f5760003560e01c8063715018a6116100b6578063b8f75c0b1161006f578063b8f75c0b146104c2578063c4d66de8146104ed578063e732680614610516578063f2fde38b1461053f578063f525849114610568578063fd1b2e3f1461059157610150565b8063715018a6146103c25780637dc0d1d0146103d9578063833b1fce146104045780638c04ef981461042f5780638da5cb5b1461046c578063aaf10f421461049757610150565b80633e7da1a9116101085780633e7da1a9146102965780634415bdf5146102bf57806348bd1e99146102fc5780634f1ef286146103395780635255008c14610355578063641411f81461038557610150565b80630bc930011461016257806310fd86c81461018d57806316a2a0cc146101ca5780631ee290fb146101f3578063348f4e96146102305780633659cfe61461026d57610150565b5b34801561015c57600080fd5b50600080fd5b34801561016e57600080fd5b506101776105ce565b60405161018491906132c5565b60405180910390f35b34801561019957600080fd5b506101b460048036038101906101af9190613332565b6105f2565b6040516101c191906133f8565b60405180910390f35b3480156101d657600080fd5b506101f160048036038101906101ec9190613332565b610675565b005b3480156101ff57600080fd5b5061021a6004803603810190610215919061347f565b6106b9565b604051610227919061350f565b60405180910390f35b34801561023c57600080fd5b5061025760048036038101906102529190613560565b610821565b604051610264919061350f565b60405180910390f35b34801561027957600080fd5b50610294600480360381019061028f9190613332565b610a93565b005b3480156102a257600080fd5b506102bd60048036038101906102b891906135c0565b610c1c565b005b3480156102cb57600080fd5b506102e660048036038101906102e19190613620565b6111ff565b6040516102f3919061367c565b60405180910390f35b34801561030857600080fd5b50610323600480360381019061031e91906137c7565b611556565b604051610330919061350f565b60405180910390f35b610353600480360381019061034e91906138b1565b6115fb565b005b61036f600480360381019061036a9190613943565b611738565b60405161037c91906139c5565b60405180910390f35b34801561039157600080fd5b506103ac60048036038101906103a791906139e0565b611a31565b6040516103b991906139c5565b60405180910390f35b3480156103ce57600080fd5b506103d7611f42565b005b3480156103e557600080fd5b506103ee611fca565b6040516103fb919061350f565b60405180910390f35b34801561041057600080fd5b50610419611ff4565b604051610426919061350f565b60405180910390f35b34801561043b57600080fd5b5061045660048036038101906104519190613943565b612003565b60405161046391906139c5565b60405180910390f35b34801561047857600080fd5b506104816122f8565b60405161048e919061350f565b60405180910390f35b3480156104a357600080fd5b506104ac612322565b6040516104b9919061350f565b60405180910390f35b3480156104ce57600080fd5b506104d7612331565b6040516104e49190613a41565b60405180910390f35b3480156104f957600080fd5b50610514600480360381019061050f9190613332565b612357565b005b34801561052257600080fd5b5061053d60048036038101906105389190613332565b612460565b005b34801561054b57600080fd5b5061056660048036038101906105619190613332565b612558565b005b34801561057457600080fd5b5061058f600480360381019061058a9190613332565b612650565b005b34801561059d57600080fd5b506105b860048036038101906105b391906137c7565b612693565b6040516105c591906139c5565b60405180910390f35b60008054906101000a900473ffffffffffffffffffffffffffffffffffffffff1681565b606060008290508073ffffffffffffffffffffffffffffffffffffffff1663c17bd75e6040518163ffffffff1660e01b8152600401600060405180830381865afa158015610644573d6000803e3d6000fd5b505050506040513d6000823e3d601f19601f8201168201806040525081019061066d9190613acc565b915050919050565b80600160006101000a81548173ffffffffffffffffffffffffffffffffffffffff021916908373ffffffffffffffffffffffffffffffffffffffff16021790555050565b6000600260ca541415610701576040517f08c379a00000000000000000000000000000000000000000000000000000000081526004016106f890613b61565b60405180910390fd5b600260ca819055506000600160009054906101000a900473ffffffffffffffffffffffffffffffffffffffff1673ffffffffffffffffffffffffffffffffffffffff166355e2ba408787338888306040518763ffffffff1660e01b815260040161077096959493929190613bae565b6020604051808303816000875af115801561078f573d6000803e3d6000fd5b505050506040513d601f19601f820116820180604052508101906107b39190613c1a565b90508073ffffffffffffffffffffffffffffffffffffffff167f9b4ec425461e6b6e22c6b5a40c3fba7c8200dbc1832b92910140d4311872c13987878787334260405161080596959493929190613c56565b60405180910390a280915050600160ca81905550949350505050565b6000600260ca541415610869576040517f08c379a000000000000000000000000000000000000000000000000000000000815260040161086090613b61565b60405180910390fd5b600260ca81905550600115156108c284848080601f016020809104026020016040519081016040528093929190818152602001838380828437600081840152601f19601f82011690508083019250505050505050612693565b151514610904576040517f08c379a00000000000000000000000000000000000000000000000000000000081526004016108fb90613cf9565b60405180910390fd5b600061095384848080601f016020809104026020016040519081016040528093929190818152602001838380828437600081840152601f19601f82011690508083019250505050505050611556565b905060008190508073ffffffffffffffffffffffffffffffffffffffff16631d1438486040518163ffffffff1660e01b8152600401602060405180830381865afa1580156109a5573d6000803e3d6000fd5b505050506040513d601f19601f820116820180604052508101906109c99190613c1a565b73ffffffffffffffffffffffffffffffffffffffff163373ffffffffffffffffffffffffffffffffffffffff1614610a0057600080fd5b60008173ffffffffffffffffffffffffffffffffffffffff1663d2c83c03886040518263ffffffff1660e01b8152600401610a3b919061367c565b602060405180830381865afa158015610a58573d6000803e3d6000fd5b505050506040513d601f19601f82011682018060405250810190610a7c9190613c1a565b9050809350505050600160ca819055509392505050565b7f000000000000000000000000000000000000000000000000000000000000000073ffffffffffffffffffffffffffffffffffffffff163073ffffffffffffffffffffffffffffffffffffffff161415610b22576040517f08c379a0000000000000000000000000000000000000000000000000000000008152600401610b1990613d8b565b60405180910390fd5b7f000000000000000000000000000000000000000000000000000000000000000073ffffffffffffffffffffffffffffffffffffffff16610b6161274a565b73ffffffffffffffffffffffffffffffffffffffff1614610bb7576040517f08c379a0000000000000000000000000000000000000000000000000000000008152600401610bae90613e1d565b60405180910390fd5b610bc0816127a1565b610c1981600067ffffffffffffffff811115610bdf57610bde61369c565b5b6040519080825280601f01601f191660200182016040528015610c115781602001600182028036833780820191505090505b506000612820565b50565b600260ca541415610c62576040517f08c379a0000000000000000000000000000000000000000000000000000000008152600401610c5990613b61565b60405180910390fd5b600260ca8190555060011515610cbb84848080601f016020809104026020016040519081016040528093929190818152602001838380828437600081840152601f19601f82011690508083019250505050505050612693565b151514610cfd576040517f08c379a0000000000000000000000000000000000000000000000000000000008152600401610cf490613e89565b60405180910390fd5b6000610d4c84848080601f016020809104026020016040519081016040528093929190818152602001838380828437600081840152601f19601f82011690508083019250505050505050611556565b9050600081905060005b8173ffffffffffffffffffffffffffffffffffffffff16636b149d876040518163ffffffff1660e01b8152600401600060405180830381865afa158015610da1573d6000803e3d6000fd5b505050506040513d6000823e3d601f19601f82011682018060405250810190610dca9190613f81565b518110156110a95760008273ffffffffffffffffffffffffffffffffffffffff1663b02c43d0836040518263ffffffff1660e01b8152600401610e0d9190613fca565b602060405180830381865afa158015610e2a573d6000803e3d6000fd5b505050506040513d601f19601f82011682018060405250810190610e4e9190613fe5565b90508273ffffffffffffffffffffffffffffffffffffffff1663f05e0f7e826040518263ffffffff1660e01b8152600401610e89919061367c565b602060405180830381865afa158015610ea6573d6000803e3d6000fd5b505050506040513d601f19601f82011682018060405250810190610eca919061403e565b61108e578273ffffffffffffffffffffffffffffffffffffffff1663c8622c2486836040518363ffffffff1660e01b8152600401610f0992919061406b565b6020604051808303816000875af1158015610f28573d6000803e3d6000fd5b505050506040513d601f19601f82011682018060405250810190610f4c919061403e565b508373ffffffffffffffffffffffffffffffffffffffff167f5c7bdd5380593839c03f2da29596b513eb5a73a6368e0957b45802752b7bd46d828573ffffffffffffffffffffffffffffffffffffffff1663c17bd75e6040518163ffffffff1660e01b8152600401600060405180830381865afa158015610fd1573d6000803e3d6000fd5b505050506040513d6000823e3d601f19601f82011682018060405250810190610ffa9190613acc565b8673ffffffffffffffffffffffffffffffffffffffff166323bd4d7a6040518163ffffffff1660e01b8152600401600060405180830381865afa158015611045573d6000803e3d6000fd5b505050506040513d6000823e3d601f19601f8201168201806040525081019061106e9190613acc565b8942604051611081959493929190614094565b60405180910390a2611094565b50611096565b505b80806110a190614124565b915050610d56565b508073ffffffffffffffffffffffffffffffffffffffff1663c74073a1846040518263ffffffff1660e01b81526004016110e3919061350f565b6020604051808303816000875af1158015611102573d6000803e3d6000fd5b505050506040513d601f19601f82011682018060405250810190611126919061403e565b508173ffffffffffffffffffffffffffffffffffffffff167f9343271f905976f6466b93515ab914676ff8c6c6151a3d597d8c319dc3bc751386868473ffffffffffffffffffffffffffffffffffffffff166323bd4d7a6040518163ffffffff1660e01b8152600401600060405180830381865afa1580156111ac573d6000803e3d6000fd5b505050506040513d6000823e3d601f19601f820116820180604052508101906111d59190613acc565b87426040516111e895949392919061416d565b60405180910390a25050600160ca81905550505050565b6000600260ca541415611247576040517f08c379a000000000000000000000000000000000000000000000000000000000815260040161123e90613b61565b60405180910390fd5b600260ca81905550600115156112a084848080601f016020809104026020016040519081016040528093929190818152602001838380828437600081840152601f19601f82011690508083019250505050505050612693565b1515146112e2576040517f08c379a00000000000000000000000000000000000000000000000000000000081526004016112d99061420e565b60405180910390fd5b600061133184848080601f016020809104026020016040519081016040528093929190818152602001838380828437600081840152601f19601f82011690508083019250505050505050611556565b9050600081905060008173ffffffffffffffffffffffffffffffffffffffff1663c435e2aa336040518263ffffffff1660e01b8152600401611373919061350f565b602060405180830381865afa158015611390573d6000803e3d6000fd5b505050506040513d601f19601f820116820180604052508101906113b49190613fe5565b90506113f86040518060400160405280600c81526020017f7375626d697373696f6e496400000000000000000000000000000000000000008152508260001c6129f1565b60006040518060400160405280600c81526020017f72616e646f6d537472696e67000000000000000000000000000000000000000081525090508273ffffffffffffffffffffffffffffffffffffffff1663f888c85683336040518363ffffffff1660e01b815260040161146d92919061422e565b600060405180830381600087803b15801561148757600080fd5b505af115801561149b573d6000803e3d6000fd5b505050508273ffffffffffffffffffffffffffffffffffffffff1663072900f9336040518263ffffffff1660e01b81526004016114d8919061350f565b600060405180830381600087803b1580156114f257600080fd5b505af1158015611506573d6000803e3d6000fd5b505050507f50b958137cb95e69873f083a4afcebc05722eb97d73537385f62ca325fd18d8782604051611539919061367c565b60405180910390a181945050505050600160ca8190555092915050565b6000600160009054906101000a900473ffffffffffffffffffffffffffffffffffffffff1673ffffffffffffffffffffffffffffffffffffffff16635c3aaab7836040518263ffffffff1660e01b81526004016115b391906133f8565b602060405180830381865afa1580156115d0573d6000803e3d6000fd5b505050506040513d601f19601f820116820180604052508101906115f49190613c1a565b9050919050565b7f000000000000000000000000000000000000000000000000000000000000000073ffffffffffffffffffffffffffffffffffffffff163073ffffffffffffffffffffffffffffffffffffffff16141561168a576040517f08c379a000000000000000000000000000000000000000000000000000000000815260040161168190613d8b565b60405180910390fd5b7f000000000000000000000000000000000000000000000000000000000000000073ffffffffffffffffffffffffffffffffffffffff166116c961274a565b73ffffffffffffffffffffffffffffffffffffffff161461171f576040517f08c379a000000000000000000000000000000000000000000000000000000000815260040161171690613e1d565b60405180910390fd5b611728826127a1565b61173482826001612820565b5050565b6000600260ca541415611780576040517f08c379a000000000000000000000000000000000000000000000000000000000815260040161177790613b61565b60405180910390fd5b600260ca8190555060008590506001151561180d8273ffffffffffffffffffffffffffffffffffffffff1663c17bd75e6040518163ffffffff1660e01b8152600401600060405180830381865afa1580156117df573d6000803e3d6000fd5b505050506040513d6000823e3d601f19601f820116820180604052508101906118089190613acc565b612693565b15151461184f576040517f08c379a0000000000000000000000000000000000000000000000000000000008152600401611846906142a3565b60405180910390fd5b6000808273ffffffffffffffffffffffffffffffffffffffff1663d6fe0f4434338a8a8a6040518663ffffffff1660e01b815260040161189294939291906142c3565b604080518083038185885af11580156118af573d6000803e3d6000fd5b50505050506040513d601f19601f820116820180604052508101906118d4919061431d565b915091508773ffffffffffffffffffffffffffffffffffffffff167faf36131f1dc94492cced7f049feaadaceaba10e417412ce818eccd383e16f563838573ffffffffffffffffffffffffffffffffffffffff1663c17bd75e6040518163ffffffff1660e01b8152600401600060405180830381865afa15801561195c573d6000803e3d6000fd5b505050506040513d6000823e3d601f19601f820116820180604052508101906119859190613acc565b8673ffffffffffffffffffffffffffffffffffffffff166323bd4d7a6040518163ffffffff1660e01b8152600401600060405180830381865afa1580156119d0573d6000803e3d6000fd5b505050506040513d6000823e3d601f19601f820116820180604052508101906119f99190613acc565b8b42338c89604051611a1298979695949392919061435d565b60405180910390a260019350505050600160ca81905550949350505050565b6000600260ca541415611a79576040517f08c379a0000000000000000000000000000000000000000000000000000000008152600401611a7090613b61565b60405180910390fd5b600260ca81905550600082905060011515611b068273ffffffffffffffffffffffffffffffffffffffff1663c17bd75e6040518163ffffffff1660e01b8152600401600060405180830381865afa158015611ad8573d6000803e3d6000fd5b505050506040513d6000823e3d601f19601f82011682018060405250810190611b019190613acc565b612693565b151514611b48576040517f08c379a0000000000000000000000000000000000000000000000000000000008152600401611b3f90614435565b60405180910390fd5b3373ffffffffffffffffffffffffffffffffffffffff168173ffffffffffffffffffffffffffffffffffffffff166359ba8344866040518263ffffffff1660e01b8152600401611b98919061367c565b602060405180830381865afa158015611bb5573d6000803e3d6000fd5b505050506040513d601f19601f82011682018060405250810190611bd99190613c1a565b73ffffffffffffffffffffffffffffffffffffffff1614611c2f576040517f08c379a0000000000000000000000000000000000000000000000000000000008152600401611c26906144a1565b60405180910390fd5b611d348173ffffffffffffffffffffffffffffffffffffffff166356406fa5866040518263ffffffff1660e01b8152600401611c6b919061367c565b602060405180830381865afa158015611c88573d6000803e3d6000fd5b505050506040513d601f19601f82011682018060405250810190611cac91906144c1565b8273ffffffffffffffffffffffffffffffffffffffff1663968b098f876040518263ffffffff1660e01b8152600401611ce5919061367c565b602060405180830381865afa158015611d02573d6000803e3d6000fd5b505050506040513d601f19601f82011682018060405250810190611d2691906144c1565b612a8d90919063ffffffff16565b421015611d76576040517f08c379a0000000000000000000000000000000000000000000000000000000008152600401611d6d9061453a565b60405180910390fd5b8073ffffffffffffffffffffffffffffffffffffffff1663641411f885336040518363ffffffff1660e01b8152600401611db192919061422e565b6020604051808303816000875af1158015611dd0573d6000803e3d6000fd5b505050506040513d601f19601f82011682018060405250810190611df4919061403e565b508273ffffffffffffffffffffffffffffffffffffffff167f5cfacced9b0054c7760e6620dfb8bb83cae10b8c701ad759b2e68e0d6707bfd4858373ffffffffffffffffffffffffffffffffffffffff1663c17bd75e6040518163ffffffff1660e01b8152600401600060405180830381865afa158015611e79573d6000803e3d6000fd5b505050506040513d6000823e3d601f19601f82011682018060405250810190611ea29190613acc565b8473ffffffffffffffffffffffffffffffffffffffff166323bd4d7a6040518163ffffffff1660e01b8152600401600060405180830381865afa158015611eed573d6000803e3d6000fd5b505050506040513d6000823e3d601f19601f82011682018060405250810190611f169190613acc565b42604051611f27949392919061455a565b60405180910390a26001915050600160ca8190555092915050565b611f4a612aa3565b73ffffffffffffffffffffffffffffffffffffffff16611f686122f8565b73ffffffffffffffffffffffffffffffffffffffff1614611fbe576040517f08c379a0000000000000000000000000000000000000000000000000000000008152600401611fb5906145f9565b60405180910390fd5b611fc86000612aab565b565b600060fc60009054906101000a900473ffffffffffffffffffffffffffffffffffffffff16905090565b6000611ffe611fca565b905090565b6000600260ca54141561204b576040517f08c379a000000000000000000000000000000000000000000000000000000000815260040161204290613b61565b60405180910390fd5b600260ca819055506000859050600115156120d88273ffffffffffffffffffffffffffffffffffffffff1663c17bd75e6040518163ffffffff1660e01b8152600401600060405180830381865afa1580156120aa573d6000803e3d6000fd5b505050506040513d6000823e3d601f19601f820116820180604052508101906120d39190613acc565b612693565b15151461211a576040517f08c379a0000000000000000000000000000000000000000000000000000000008152600401612111906142a3565b60405180910390fd5b60008173ffffffffffffffffffffffffffffffffffffffff1663e129b333338888886040518563ffffffff1660e01b815260040161215b94939291906142c3565b6020604051808303816000875af115801561217a573d6000803e3d6000fd5b505050506040513d601f19601f8201168201806040525081019061219e9190613fe5565b90508673ffffffffffffffffffffffffffffffffffffffff167f787b2d0c3b917fe6a118b5225b044e4a4ba6d2d1cfa26f9b156fc1b1e263dee7828473ffffffffffffffffffffffffffffffffffffffff1663c17bd75e6040518163ffffffff1660e01b8152600401600060405180830381865afa158015612224573d6000803e3d6000fd5b505050506040513d6000823e3d601f19601f8201168201806040525081019061224d9190613acc565b8573ffffffffffffffffffffffffffffffffffffffff166323bd4d7a6040518163ffffffff1660e01b8152600401600060405180830381865afa158015612298573d6000803e3d6000fd5b505050506040513d6000823e3d601f19601f820116820180604052508101906122c19190613acc565b8a42338b8d6040516122da98979695949392919061435d565b60405180910390a2600192505050600160ca81905550949350505050565b6000606660009054906101000a900473ffffffffffffffffffffffffffffffffffffffff16905090565b600061232c61274a565b905090565b600160009054906101000a900473ffffffffffffffffffffffffffffffffffffffff1681565b600160159054906101000a900460ff1661238157600160149054906101000a900460ff161561238a565b612389612b71565b5b6123c9576040517f08c379a00000000000000000000000000000000000000000000000000000000081526004016123c09061468b565b60405180910390fd5b6000600160159054906101000a900460ff1615905080156124195760018060156101000a81548160ff02191690831515021790555060018060146101000a81548160ff0219169083151502179055505b612421612b82565b612429612be3565b61243282612c44565b61243a612cd7565b801561245c576000600160156101000a81548160ff0219169083151502179055505b5050565b612468612aa3565b73ffffffffffffffffffffffffffffffffffffffff166124866122f8565b73ffffffffffffffffffffffffffffffffffffffff16146124dc576040517f08c379a00000000000000000000000000000000000000000000000000000000081526004016124d3906145f9565b60405180910390fd5b600073ffffffffffffffffffffffffffffffffffffffff168173ffffffffffffffffffffffffffffffffffffffff16141561254c576040517f08c379a00000000000000000000000000000000000000000000000000000000081526004016125439061471d565b60405180910390fd5b61255581612d30565b50565b612560612aa3565b73ffffffffffffffffffffffffffffffffffffffff1661257e6122f8565b73ffffffffffffffffffffffffffffffffffffffff16146125d4576040517f08c379a00000000000000000000000000000000000000000000000000000000081526004016125cb906145f9565b60405180910390fd5b600073ffffffffffffffffffffffffffffffffffffffff168173ffffffffffffffffffffffffffffffffffffffff161415612644576040517f08c379a000000000000000000000000000000000000000000000000000000000815260040161263b906147af565b60405180910390fd5b61264d81612aab565b50565b806000806101000a81548173ffffffffffffffffffffffffffffffffffffffff021916908373ffffffffffffffffffffffffffffffffffffffff16021790555050565b60008061269f83611556565b9050600081905060008060018111156126bb576126ba6147cf565b5b8273ffffffffffffffffffffffffffffffffffffffff1663200d2ed26040518163ffffffff1660e01b8152600401602060405180830381865afa158015612706573d6000803e3d6000fd5b505050506040513d601f19601f8201168201806040525081019061272a9190614823565b600181111561273c5761273b6147cf565b5b149050809350505050919050565b60006127787f360894a13ba1a3210667c828492db98dca3e2076cc3735a920a3ca505d382bbc60001b612df6565b60000160009054906101000a900473ffffffffffffffffffffffffffffffffffffffff16905090565b6127a9612aa3565b73ffffffffffffffffffffffffffffffffffffffff166127c76122f8565b73ffffffffffffffffffffffffffffffffffffffff161461281d576040517f08c379a0000000000000000000000000000000000000000000000000000000008152600401612814906145f9565b60405180910390fd5b50565b600061282a61274a565b905061283584612e00565b6000835111806128425750815b15612853576128518484612eb9565b505b60006128817f4910fdfa16fed3260ed0e7147f7cc6da11a60208b5b9406d12a635614ffd914360001b612f9d565b90508060000160009054906101000a900460ff166129ea5760018160000160006101000a81548160ff02191690831515021790555061294d85836040516024016128cb919061350f565b6040516020818303038152906040527f3659cfe6000000000000000000000000000000000000000000000000000000007bffffffffffffffffffffffffffffffffffffffffffffffffffffffff19166020820180517bffffffffffffffffffffffffffffffffffffffffffffffffffffffff8381831617835250505050612eb9565b5060008160000160006101000a81548160ff02191690831515021790555061297361274a565b73ffffffffffffffffffffffffffffffffffffffff168273ffffffffffffffffffffffffffffffffffffffff16146129e0576040517f08c379a00000000000000000000000000000000000000000000000000000000081526004016129d7906148c2565b60405180910390fd5b6129e985612fa7565b5b5050505050565b612a898282604051602401612a079291906148e2565b6040516020818303038152906040527f9710a9d0000000000000000000000000000000000000000000000000000000007bffffffffffffffffffffffffffffffffffffffffffffffffffffffff19166020820180517bffffffffffffffffffffffffffffffffffffffffffffffffffffffff8381831617835250505050612ff6565b5050565b60008183612a9b9190614912565b905092915050565b600033905090565b6000606660009054906101000a900473ffffffffffffffffffffffffffffffffffffffff16905081606660006101000a81548173ffffffffffffffffffffffffffffffffffffffff021916908373ffffffffffffffffffffffffffffffffffffffff1602179055508173ffffffffffffffffffffffffffffffffffffffff168173ffffffffffffffffffffffffffffffffffffffff167f8be0079c531659141344cd1fd0a4f28419497f9722a3daafe3b4186f6b6457e060405160405180910390a35050565b6000612b7c3061301f565b15905090565b600160159054906101000a900460ff16612bd1576040517f08c379a0000000000000000000000000000000000000000000000000000000008152600401612bc8906149da565b60405180910390fd5b612bd9613032565b612be1613083565b565b600160159054906101000a900460ff16612c32576040517f08c379a0000000000000000000000000000000000000000000000000000000008152600401612c29906149da565b60405180910390fd5b612c3a6130e4565b612c42613135565b565b600160159054906101000a900460ff16612c93576040517f08c379a0000000000000000000000000000000000000000000000000000000008152600401612c8a906149da565b60405180910390fd5b8060fc60006101000a81548173ffffffffffffffffffffffffffffffffffffffff021916908373ffffffffffffffffffffffffffffffffffffffff16021790555050565b600160159054906101000a900460ff16612d26576040517f08c379a0000000000000000000000000000000000000000000000000000000008152600401612d1d906149da565b60405180910390fd5b612d2e613186565b565b600060fc60009054906101000a900473ffffffffffffffffffffffffffffffffffffffff1690508160fc60006101000a81548173ffffffffffffffffffffffffffffffffffffffff021916908373ffffffffffffffffffffffffffffffffffffffff1602179055508173ffffffffffffffffffffffffffffffffffffffff168173ffffffffffffffffffffffffffffffffffffffff167f9b0948b943e24ff3413cb400b2eeae4337138739aaf31759dc6e813e8076fbc360405160405180910390a35050565b6000819050919050565b612e098161301f565b612e48576040517f08c379a0000000000000000000000000000000000000000000000000000000008152600401612e3f90614a6c565b60405180910390fd5b80612e757f360894a13ba1a3210667c828492db98dca3e2076cc3735a920a3ca505d382bbc60001b612df6565b60000160006101000a81548173ffffffffffffffffffffffffffffffffffffffff021916908373ffffffffffffffffffffffffffffffffffffffff16021790555050565b6060612ec48361301f565b612f03576040517f08c379a0000000000000000000000000000000000000000000000000000000008152600401612efa90614afe565b60405180910390fd5b6000808473ffffffffffffffffffffffffffffffffffffffff1684604051612f2b9190614b65565b600060405180830381855af49150503d8060008114612f66576040519150601f19603f3d011682016040523d82523d6000602084013e612f6b565b606091505b5091509150612f938282604051806060016040528060278152602001614b7d602791396131df565b9250505092915050565b6000819050919050565b612fb081612e00565b8073ffffffffffffffffffffffffffffffffffffffff167fbc7cd75a20ee27fd9adebab32041f755214dbc6bffa90cc0225b39da2e5c2d3b60405160405180910390a250565b60008151905060006a636f6e736f6c652e6c6f679050602083016000808483855afa5050505050565b600080823b905060008111915050919050565b600160159054906101000a900460ff16613081576040517f08c379a0000000000000000000000000000000000000000000000000000000008152600401613078906149da565b60405180910390fd5b565b600160159054906101000a900460ff166130d2576040517f08c379a00000000000000000000000000000000000000000000000000000000081526004016130c9906149da565b60405180910390fd5b6130e26130dd612aa3565b612aab565b565b600160159054906101000a900460ff16613133576040517f08c379a000000000000000000000000000000000000000000000000000000000815260040161312a906149da565b60405180910390fd5b565b600160159054906101000a900460ff16613184576040517f08c379a000000000000000000000000000000000000000000000000000000000815260040161317b906149da565b60405180910390fd5b565b600160159054906101000a900460ff166131d5576040517f08c379a00000000000000000000000000000000000000000000000000000000081526004016131cc906149da565b60405180910390fd5b600160ca81905550565b606083156131ef5782905061323f565b6000835111156132025782518084602001fd5b816040517f08c379a000000000000000000000000000000000000000000000000000000000815260040161323691906133f8565b60405180910390fd5b9392505050565b600073ffffffffffffffffffffffffffffffffffffffff82169050919050565b6000819050919050565b600061328b61328661328184613246565b613266565b613246565b9050919050565b600061329d82613270565b9050919050565b60006132af82613292565b9050919050565b6132bf816132a4565b82525050565b60006020820190506132da60008301846132b6565b92915050565b6000604051905090565b600080fd5b600080fd5b60006132ff82613246565b9050919050565b61330f816132f4565b811461331a57600080fd5b50565b60008135905061332c81613306565b92915050565b600060208284031215613348576133476132ea565b5b60006133568482850161331d565b91505092915050565b600081519050919050565b600082825260208201905092915050565b60005b8381101561339957808201518184015260208101905061337e565b838111156133a8576000848401525b50505050565b6000601f19601f8301169050919050565b60006133ca8261335f565b6133d4818561336a565b93506133e481856020860161337b565b6133ed816133ae565b840191505092915050565b6000602082019050818103600083015261341281846133bf565b905092915050565b600080fd5b600080fd5b600080fd5b60008083601f84011261343f5761343e61341a565b5b8235905067ffffffffffffffff81111561345c5761345b61341f565b5b60208301915083600182028301111561347857613477613424565b5b9250929050565b60008060008060408587031215613499576134986132ea565b5b600085013567ffffffffffffffff8111156134b7576134b66132ef565b5b6134c387828801613429565b9450945050602085013567ffffffffffffffff8111156134e6576134e56132ef565b5b6134f287828801613429565b925092505092959194509250565b613509816132f4565b82525050565b60006020820190506135246000830184613500565b92915050565b6000819050919050565b61353d8161352a565b811461354857600080fd5b50565b60008135905061355a81613534565b92915050565b600080600060408486031215613579576135786132ea565b5b60006135878682870161354b565b935050602084013567ffffffffffffffff8111156135a8576135a76132ef565b5b6135b486828701613429565b92509250509250925092565b6000806000604084860312156135d9576135d86132ea565b5b600084013567ffffffffffffffff8111156135f7576135f66132ef565b5b61360386828701613429565b935093505060206136168682870161331d565b9150509250925092565b60008060208385031215613637576136366132ea565b5b600083013567ffffffffffffffff811115613655576136546132ef565b5b61366185828601613429565b92509250509250929050565b6136768161352a565b82525050565b6000602082019050613691600083018461366d565b92915050565b600080fd5b7f4e487b7100000000000000000000000000000000000000000000000000000000600052604160045260246000fd5b6136d4826133ae565b810181811067ffffffffffffffff821117156136f3576136f261369c565b5b80604052505050565b60006137066132e0565b905061371282826136cb565b919050565b600067ffffffffffffffff8211156137325761373161369c565b5b61373b826133ae565b9050602081019050919050565b82818337600083830152505050565b600061376a61376584613717565b6136fc565b90508281526020810184848401111561378657613785613697565b5b613791848285613748565b509392505050565b600082601f8301126137ae576137ad61341a565b5b81356137be848260208601613757565b91505092915050565b6000602082840312156137dd576137dc6132ea565b5b600082013567ffffffffffffffff8111156137fb576137fa6132ef565b5b61380784828501613799565b91505092915050565b600067ffffffffffffffff82111561382b5761382a61369c565b5b613834826133ae565b9050602081019050919050565b600061385461384f84613810565b6136fc565b9050828152602081018484840111156138705761386f613697565b5b61387b848285613748565b509392505050565b600082601f8301126138985761389761341a565b5b81356138a8848260208601613841565b91505092915050565b600080604083850312156138c8576138c76132ea565b5b60006138d68582860161331d565b925050602083013567ffffffffffffffff8111156138f7576138f66132ef565b5b61390385828601613883565b9150509250929050565b6000819050919050565b6139208161390d565b811461392b57600080fd5b50565b60008135905061393d81613917565b92915050565b6000806000806080858703121561395d5761395c6132ea565b5b600061396b8782880161331d565b945050602061397c8782880161331d565b935050604061398d8782880161392e565b925050606061399e8782880161392e565b91505092959194509250565b60008115159050919050565b6139bf816139aa565b82525050565b60006020820190506139da60008301846139b6565b92915050565b600080604083850312156139f7576139f66132ea565b5b6000613a058582860161354b565b9250506020613a168582860161331d565b9150509250929050565b6000613a2b82613292565b9050919050565b613a3b81613a20565b82525050565b6000602082019050613a566000830184613a32565b92915050565b6000613a6f613a6a84613717565b6136fc565b905082815260208101848484011115613a8b57613a8a613697565b5b613a9684828561337b565b509392505050565b600082601f830112613ab357613ab261341a565b5b8151613ac3848260208601613a5c565b91505092915050565b600060208284031215613ae257613ae16132ea565b5b600082015167ffffffffffffffff811115613b0057613aff6132ef565b5b613b0c84828501613a9e565b91505092915050565b7f5265656e7472616e637947756172643a207265656e7472616e742063616c6c00600082015250565b6000613b4b601f8361336a565b9150613b5682613b15565b602082019050919050565b60006020820190508181036000830152613b7a81613b3e565b9050919050565b6000613b8d838561336a565b9350613b9a838584613748565b613ba3836133ae565b840190509392505050565b60006080820190508181036000830152613bc981888a613b81565b9050613bd86020830187613500565b8181036040830152613beb818587613b81565b9050613bfa6060830184613500565b979650505050505050565b600081519050613c1481613306565b92915050565b600060208284031215613c3057613c2f6132ea565b5b6000613c3e84828501613c05565b91505092915050565b613c508161390d565b82525050565b60006080820190508181036000830152613c7181888a613b81565b90508181036020830152613c86818688613b81565b9050613c956040830185613500565b613ca26060830184613c47565b979650505050505050565b7f4a554447494e475f434c4f5345445f424f554e54590000000000000000000000600082015250565b6000613ce360158361336a565b9150613cee82613cad565b602082019050919050565b60006020820190508181036000830152613d1281613cd6565b9050919050565b7f46756e6374696f6e206d7573742062652063616c6c6564207468726f7567682060008201527f64656c656761746563616c6c0000000000000000000000000000000000000000602082015250565b6000613d75602c8361336a565b9150613d8082613d19565b604082019050919050565b60006020820190508181036000830152613da481613d68565b9050919050565b7f46756e6374696f6e206d7573742062652063616c6c6564207468726f7567682060008201527f6163746976652070726f78790000000000000000000000000000000000000000602082015250565b6000613e07602c8361336a565b9150613e1282613dab565b604082019050919050565b60006020820190508181036000830152613e3681613dfa565b9050919050565b7f434c41494d494e475f434c4f5345445f424f554e545900000000000000000000600082015250565b6000613e7360168361336a565b9150613e7e82613e3d565b602082019050919050565b60006020820190508181036000830152613ea281613e66565b9050919050565b600067ffffffffffffffff821115613ec457613ec361369c565b5b602082029050602081019050919050565b600081519050613ee481613534565b92915050565b6000613efd613ef884613ea9565b6136fc565b90508083825260208201905060208402830185811115613f2057613f1f613424565b5b835b81811015613f495780613f358882613ed5565b845260208401935050602081019050613f22565b5050509392505050565b600082601f830112613f6857613f6761341a565b5b8151613f78848260208601613eea565b91505092915050565b600060208284031215613f9757613f966132ea565b5b600082015167ffffffffffffffff811115613fb557613fb46132ef565b5b613fc184828501613f53565b91505092915050565b6000602082019050613fdf6000830184613c47565b92915050565b600060208284031215613ffb57613ffa6132ea565b5b600061400984828501613ed5565b91505092915050565b61401b816139aa565b811461402657600080fd5b50565b60008151905061403881614012565b92915050565b600060208284031215614054576140536132ea565b5b600061406284828501614029565b91505092915050565b60006040820190506140806000830185613500565b61408d602083018461366d565b9392505050565b600060a0820190506140a9600083018861366d565b81810360208301526140bb81876133bf565b905081810360408301526140cf81866133bf565b90506140de6060830185613500565b6140eb6080830184613c47565b9695505050505050565b7f4e487b7100000000000000000000000000000000000000000000000000000000600052601160045260246000fd5b600061412f8261390d565b91507fffffffffffffffffffffffffffffffffffffffffffffffffffffffffffffffff821415614162576141616140f5565b5b600182019050919050565b60006080820190508181036000830152614188818789613b81565b9050818103602083015261419c81866133bf565b90506141ab6040830185613500565b6141b86060830184613c47565b9695505050505050565b7f5355424d495353494f4e535f434c4f5345440000000000000000000000000000600082015250565b60006141f860128361336a565b9150614203826141c2565b602082019050919050565b60006020820190508181036000830152614227816141eb565b9050919050565b6000604082019050614243600083018561366d565b6142506020830184613500565b9392505050565b7f46554e44494e475f434c4f5345445f424f554e54590000000000000000000000600082015250565b600061428d60158361336a565b915061429882614257565b602082019050919050565b600060208201905081810360008301526142bc81614280565b9050919050565b60006080820190506142d86000830187613500565b6142e56020830186613500565b6142f26040830185613c47565b6142ff6060830184613c47565b95945050505050565b60008151905061431781613917565b92915050565b60008060408385031215614334576143336132ea565b5b600061434285828601613ed5565b925050602061435385828601614308565b9150509250929050565b600061010082019050614373600083018b61366d565b8181036020830152614385818a6133bf565b9050818103604083015261439981896133bf565b90506143a86060830188613500565b6143b56080830187613c47565b6143c260a0830186613500565b6143cf60c0830185613c47565b6143dc60e0830184613c47565b9998505050505050505050565b7f524546554e44494e475f434c4f5345445f424f554e5459000000000000000000600082015250565b600061441f60178361336a565b915061442a826143e9565b602082019050919050565b6000602082019050818103600083015261444e81614412565b9050919050565b7f4f4e4c595f46554e4445525f43414e5f524551554553545f524546554e440000600082015250565b600061448b601e8361336a565b915061449682614455565b602082019050919050565b600060208201905081810360008301526144ba8161447e565b9050919050565b6000602082840312156144d7576144d66132ea565b5b60006144e584828501614308565b91505092915050565b7f5052454d41545552455f524546554e445f524551554553540000000000000000600082015250565b600061452460188361336a565b915061452f826144ee565b602082019050919050565b6000602082019050818103600083015261455381614517565b9050919050565b600060808201905061456f600083018761366d565b818103602083015261458181866133bf565b9050818103604083015261459581856133bf565b90506145a46060830184613c47565b95945050505050565b7f4f776e61626c653a2063616c6c6572206973206e6f7420746865206f776e6572600082015250565b60006145e360208361336a565b91506145ee826145ad565b602082019050919050565b60006020820190508181036000830152614612816145d6565b9050919050565b7f496e697469616c697a61626c653a20636f6e747261637420697320616c72656160008201527f647920696e697469616c697a6564000000000000000000000000000000000000602082015250565b6000614675602e8361336a565b915061468082614619565b604082019050919050565b600060208201905081810360008301526146a481614668565b9050919050565b7f4f7261636c697a653a206e6577206f7261636c6520697320746865207a65726f60008201527f2061646472657373000000000000000000000000000000000000000000000000602082015250565b600061470760288361336a565b9150614712826146ab565b604082019050919050565b60006020820190508181036000830152614736816146fa565b9050919050565b7f4f776e61626c653a206e6577206f776e657220697320746865207a65726f206160008201527f6464726573730000000000000000000000000000000000000000000000000000602082015250565b600061479960268361336a565b91506147a48261473d565b604082019050919050565b600060208201905081810360008301526147c88161478c565b9050919050565b7f4e487b7100000000000000000000000000000000000000000000000000000000600052602160045260246000fd5b6002811061480b57600080fd5b50565b60008151905061481d816147fe565b92915050565b600060208284031215614839576148386132ea565b5b60006148478482850161480e565b91505092915050565b7f45524331393637557067726164653a207570677261646520627265616b73206660008201527f7572746865722075706772616465730000000000000000000000000000000000602082015250565b60006148ac602f8361336a565b91506148b782614850565b604082019050919050565b600060208201905081810360008301526148db8161489f565b9050919050565b600060408201905081810360008301526148fc81856133bf565b905061490b6020830184613c47565b9392505050565b600061491d8261390d565b91506149288361390d565b9250827fffffffffffffffffffffffffffffffffffffffffffffffffffffffffffffffff0382111561495d5761495c6140f5565b5b828201905092915050565b7f496e697469616c697a61626c653a20636f6e7472616374206973206e6f74206960008201527f6e697469616c697a696e67000000000000000000000000000000000000000000602082015250565b60006149c4602b8361336a565b91506149cf82614968565b604082019050919050565b600060208201905081810360008301526149f3816149b7565b9050919050565b7f455243313936373a206e657720696d706c656d656e746174696f6e206973206e60008201527f6f74206120636f6e747261637400000000000000000000000000000000000000602082015250565b6000614a56602d8361336a565b9150614a61826149fa565b604082019050919050565b60006020820190508181036000830152614a8581614a49565b9050919050565b7f416464726573733a2064656c65676174652063616c6c20746f206e6f6e2d636f60008201527f6e74726163740000000000000000000000000000000000000000000000000000602082015250565b6000614ae860268361336a565b9150614af382614a8c565b604082019050919050565b60006020820190508181036000830152614b1781614adb565b9050919050565b600081519050919050565b600081905092915050565b6000614b3f82614b1e565b614b498185614b29565b9350614b5981856020860161337b565b80840191505092915050565b6000614b718284614b34565b91508190509291505056fe416464726573733a206c6f772d6c6576656c2064656c65676174652063616c6c206661696c6564a264697066735822122064e3379ef026c572d4e4c5fecc11b4b61ba94242d716259a36068ba79ae87a3664736f6c634300080b0033",
  "linkReferences": {},
  "deployedLinkReferences": {}
}