{
  "_format": "hh-sol-artifact-1",
  "contractName": "OpenQV0",
  "sourceName": "contracts/OpenQ/Implementations/OpenQV0.sol",
  "abi": [
    {
      "anonymous": false,
      "inputs": [
        {
          "indexed": false,
          "internalType": "address",
          "name": "previousAdmin",
          "type": "address"
        },
        {
          "indexed": false,
          "internalType": "address",
          "name": "newAdmin",
          "type": "address"
        }
      ],
      "name": "AdminChanged",
      "type": "event"
    },
    {
      "anonymous": false,
      "inputs": [
        {
          "indexed": true,
          "internalType": "address",
          "name": "beacon",
          "type": "address"
        }
      ],
      "name": "BeaconUpgraded",
      "type": "event"
    },
    {
      "anonymous": false,
      "inputs": [
        {
          "indexed": false,
          "internalType": "string",
          "name": "bountyId",
          "type": "string"
        },
        {
          "indexed": true,
          "internalType": "address",
          "name": "bountyAddress",
          "type": "address"
        },
        {
          "indexed": false,
          "internalType": "string",
          "name": "organization",
          "type": "string"
        },
        {
          "indexed": false,
          "internalType": "address",
          "name": "closer",
          "type": "address"
        },
        {
          "indexed": false,
          "internalType": "uint256",
          "name": "bountyClosedTime",
          "type": "uint256"
        }
      ],
      "name": "BountyClosed",
      "type": "event"
    },
    {
      "anonymous": false,
      "inputs": [
        {
          "indexed": false,
          "internalType": "string",
          "name": "bountyId",
          "type": "string"
        },
        {
          "indexed": false,
          "internalType": "string",
          "name": "organization",
          "type": "string"
        },
        {
          "indexed": false,
          "internalType": "address",
          "name": "issuerAddress",
          "type": "address"
        },
        {
          "indexed": true,
          "internalType": "address",
          "name": "bountyAddress",
          "type": "address"
        },
        {
          "indexed": false,
          "internalType": "uint256",
          "name": "bountyMintTime",
          "type": "uint256"
        }
      ],
      "name": "BountyCreated",
      "type": "event"
    },
    {
      "anonymous": false,
      "inputs": [
        {
          "indexed": false,
          "internalType": "bytes32",
          "name": "depositId",
          "type": "bytes32"
        },
        {
          "indexed": false,
          "internalType": "string",
          "name": "bountyId",
          "type": "string"
        },
        {
          "indexed": true,
          "internalType": "address",
          "name": "bountyAddress",
          "type": "address"
        },
        {
          "indexed": false,
          "internalType": "string",
          "name": "organization",
          "type": "string"
        },
        {
          "indexed": false,
          "internalType": "address",
          "name": "closer",
          "type": "address"
        },
        {
          "indexed": false,
          "internalType": "uint256",
          "name": "payoutTime",
          "type": "uint256"
        }
      ],
      "name": "DepositClaimed",
      "type": "event"
    },
    {
      "anonymous": false,
      "inputs": [
        {
          "indexed": false,
          "internalType": "bytes32",
          "name": "depositId",
          "type": "bytes32"
        },
        {
          "indexed": false,
          "internalType": "string",
          "name": "bountyId",
          "type": "string"
        },
        {
          "indexed": true,
          "internalType": "address",
          "name": "bountyAddress",
          "type": "address"
        },
        {
          "indexed": false,
          "internalType": "string",
          "name": "organization",
          "type": "string"
        },
        {
          "indexed": false,
          "internalType": "uint256",
          "name": "refundTime",
          "type": "uint256"
        }
      ],
      "name": "DepositRefunded",
      "type": "event"
    },
    {
      "anonymous": false,
      "inputs": [
        {
          "indexed": false,
          "internalType": "bytes32",
          "name": "depositId",
          "type": "bytes32"
        },
        {
          "indexed": true,
          "internalType": "address",
          "name": "bountyAddress",
          "type": "address"
        },
        {
          "indexed": false,
          "internalType": "string",
          "name": "bountyId",
          "type": "string"
        },
        {
          "indexed": false,
          "internalType": "string",
          "name": "organization",
          "type": "string"
        },
        {
          "indexed": false,
          "internalType": "address",
          "name": "tokenAddress",
          "type": "address"
        },
        {
          "indexed": false,
          "internalType": "uint256",
          "name": "receiveTime",
          "type": "uint256"
        },
        {
          "indexed": false,
          "internalType": "address",
          "name": "sender",
          "type": "address"
        },
        {
          "indexed": false,
          "internalType": "uint256",
          "name": "expiration",
          "type": "uint256"
        },
        {
          "indexed": false,
          "internalType": "uint256",
          "name": "tokenId",
          "type": "uint256"
        }
      ],
      "name": "NFTDepositReceived",
      "type": "event"
    },
    {
      "anonymous": false,
      "inputs": [
        {
          "indexed": true,
          "internalType": "address",
          "name": "previousOracle",
          "type": "address"
        },
        {
          "indexed": true,
          "internalType": "address",
          "name": "newOracle",
          "type": "address"
        }
      ],
      "name": "OracleTransferred",
      "type": "event"
    },
    {
      "anonymous": false,
      "inputs": [
        {
          "indexed": true,
          "internalType": "address",
          "name": "previousOwner",
          "type": "address"
        },
        {
          "indexed": true,
          "internalType": "address",
          "name": "newOwner",
          "type": "address"
        }
      ],
      "name": "OwnershipTransferred",
      "type": "event"
    },
    {
      "anonymous": false,
      "inputs": [
        {
          "indexed": false,
          "internalType": "string",
          "name": "myString",
          "type": "string"
        }
      ],
      "name": "SubmissionReceived",
      "type": "event"
    },
    {
      "anonymous": false,
      "inputs": [
        {
          "indexed": false,
          "internalType": "bytes32",
          "name": "depositId",
          "type": "bytes32"
        },
        {
          "indexed": true,
          "internalType": "address",
          "name": "bountyAddress",
          "type": "address"
        },
        {
          "indexed": false,
          "internalType": "string",
          "name": "bountyId",
          "type": "string"
        },
        {
          "indexed": false,
          "internalType": "string",
          "name": "organization",
          "type": "string"
        },
        {
          "indexed": false,
          "internalType": "address",
          "name": "tokenAddress",
          "type": "address"
        },
        {
          "indexed": false,
          "internalType": "uint256",
          "name": "receiveTime",
          "type": "uint256"
        },
        {
          "indexed": false,
          "internalType": "address",
          "name": "sender",
          "type": "address"
        },
        {
          "indexed": false,
          "internalType": "uint256",
          "name": "expiration",
          "type": "uint256"
        },
        {
          "indexed": false,
          "internalType": "uint256",
          "name": "volume",
          "type": "uint256"
        }
      ],
      "name": "TokenDepositReceived",
      "type": "event"
    },
    {
      "anonymous": false,
      "inputs": [
        {
          "indexed": true,
          "internalType": "address",
          "name": "implementation",
          "type": "address"
        }
      ],
      "name": "Upgraded",
      "type": "event"
    },
    {
      "anonymous": false,
      "inputs": [
        {
          "indexed": false,
          "internalType": "address",
          "name": "_payoutAddress",
          "type": "address"
        },
        {
          "indexed": false,
          "internalType": "address",
          "name": "_funder",
          "type": "address"
        },
        {
          "indexed": false,
          "internalType": "string",
          "name": "bountyId",
          "type": "string"
        },
        {
          "indexed": true,
          "internalType": "address",
          "name": "bountyAddress",
          "type": "address"
        },
        {
          "indexed": false,
          "internalType": "uint256",
          "name": "selectionTime",
          "type": "uint256"
        }
      ],
      "name": "WinnerSelected",
      "type": "event"
    },
    {
      "stateMutability": "nonpayable",
      "type": "fallback"
    },
    {
      "inputs": [
        {
          "internalType": "address",
          "name": "bountyAddress",
          "type": "address"
        }
      ],
      "name": "bountyAddressToBountyId",
      "outputs": [
        {
          "internalType": "string",
          "name": "",
          "type": "string"
        }
      ],
      "stateMutability": "view",
      "type": "function"
    },
    {
      "inputs": [],
      "name": "bountyFactory",
      "outputs": [
        {
          "internalType": "contract BountyFactory",
          "name": "",
          "type": "address"
        }
      ],
      "stateMutability": "view",
      "type": "function"
    },
    {
      "inputs": [
        {
          "internalType": "string",
          "name": "_id",
          "type": "string"
        }
      ],
      "name": "bountyIdToAddress",
      "outputs": [
        {
          "internalType": "address",
          "name": "",
          "type": "address"
        }
      ],
      "stateMutability": "view",
      "type": "function"
    },
    {
      "inputs": [
        {
          "internalType": "string",
          "name": "_id",
          "type": "string"
        }
      ],
      "name": "bountyIsOpen",
      "outputs": [
        {
          "internalType": "bool",
          "name": "",
          "type": "bool"
        }
      ],
      "stateMutability": "view",
      "type": "function"
    },
    {
      "inputs": [
        {
          "internalType": "string",
          "name": "_bountyId",
          "type": "string"
        },
        {
          "internalType": "address",
          "name": "closer",
          "type": "address"
        }
      ],
      "name": "claimBounty",
      "outputs": [],
      "stateMutability": "nonpayable",
      "type": "function"
    },
    {
      "inputs": [
        {
          "internalType": "address",
          "name": "_bountyAddress",
          "type": "address"
        },
        {
          "internalType": "address",
          "name": "_tokenAddress",
          "type": "address"
        },
        {
          "internalType": "uint256",
          "name": "_tokenId",
          "type": "uint256"
        },
        {
          "internalType": "uint256",
          "name": "_expiration",
          "type": "uint256"
        }
      ],
      "name": "fundBountyNFT",
      "outputs": [
        {
          "internalType": "bool",
          "name": "success",
          "type": "bool"
        }
      ],
      "stateMutability": "nonpayable",
      "type": "function"
    },
    {
      "inputs": [
        {
          "internalType": "address",
          "name": "_bountyAddress",
          "type": "address"
        },
        {
          "internalType": "address",
          "name": "_tokenAddress",
          "type": "address"
        },
        {
          "internalType": "uint256",
          "name": "_volume",
          "type": "uint256"
        },
        {
          "internalType": "uint256",
          "name": "_expiration",
          "type": "uint256"
        }
      ],
      "name": "fundBountyToken",
      "outputs": [
        {
          "internalType": "bool",
          "name": "success",
          "type": "bool"
        }
      ],
      "stateMutability": "payable",
      "type": "function"
    },
    {
      "inputs": [],
      "name": "getImplementation",
      "outputs": [
        {
          "internalType": "address",
          "name": "",
          "type": "address"
        }
      ],
      "stateMutability": "view",
      "type": "function"
    },
    {
      "inputs": [],
      "name": "getOracle",
      "outputs": [
        {
          "internalType": "address",
          "name": "",
          "type": "address"
        }
      ],
      "stateMutability": "view",
      "type": "function"
    },
    {
      "inputs": [
        {
          "internalType": "address",
          "name": "oracle",
          "type": "address"
        }
      ],
      "name": "initialize",
      "outputs": [],
      "stateMutability": "nonpayable",
      "type": "function"
    },
    {
      "inputs": [
        {
          "internalType": "string",
          "name": "_id",
          "type": "string"
        },
        {
          "internalType": "string",
          "name": "_organization",
          "type": "string"
        }
      ],
      "name": "mintBounty",
      "outputs": [
        {
          "internalType": "address",
          "name": "",
          "type": "address"
        }
      ],
      "stateMutability": "nonpayable",
      "type": "function"
    },
    {
      "inputs": [],
      "name": "openQStorage",
      "outputs": [
        {
          "internalType": "contract OpenQStorage",
          "name": "",
          "type": "address"
        }
      ],
      "stateMutability": "view",
      "type": "function"
    },
    {
      "inputs": [],
      "name": "oracle",
      "outputs": [
        {
          "internalType": "address",
          "name": "",
          "type": "address"
        }
      ],
      "stateMutability": "view",
      "type": "function"
    },
    {
      "inputs": [],
      "name": "owner",
      "outputs": [
        {
          "internalType": "address",
          "name": "",
          "type": "address"
        }
      ],
      "stateMutability": "view",
      "type": "function"
    },
    {
      "inputs": [
        {
          "internalType": "bytes32",
          "name": "_depositId",
          "type": "bytes32"
        },
        {
          "internalType": "address",
          "name": "_bountyAddress",
          "type": "address"
        }
      ],
      "name": "refundDeposit",
      "outputs": [
        {
          "internalType": "bool",
          "name": "success",
          "type": "bool"
        }
      ],
      "stateMutability": "nonpayable",
      "type": "function"
    },
    {
      "inputs": [],
      "name": "renounceOwnership",
      "outputs": [],
      "stateMutability": "nonpayable",
      "type": "function"
    },
    {
      "inputs": [
        {
          "internalType": "bytes32",
          "name": "submissionId",
          "type": "bytes32"
        },
        {
          "internalType": "string",
          "name": "_bountyId",
          "type": "string"
        }
      ],
      "name": "selectWinner",
      "outputs": [
        {
          "internalType": "address",
          "name": "",
          "type": "address"
        }
      ],
      "stateMutability": "nonpayable",
      "type": "function"
    },
    {
      "inputs": [
        {
          "internalType": "address",
          "name": "_bountyFactory",
          "type": "address"
        }
      ],
      "name": "setBountyFactory",
      "outputs": [],
      "stateMutability": "nonpayable",
      "type": "function"
    },
    {
      "inputs": [
        {
          "internalType": "address",
          "name": "_openQStorage",
          "type": "address"
        }
      ],
      "name": "setOpenQStorage",
      "outputs": [],
      "stateMutability": "nonpayable",
      "type": "function"
    },
    {
      "inputs": [
        {
          "internalType": "string",
          "name": "_bountyId",
          "type": "string"
        }
      ],
      "name": "submitMethod",
      "outputs": [
        {
          "internalType": "bytes32",
          "name": "",
          "type": "bytes32"
        }
      ],
      "stateMutability": "nonpayable",
      "type": "function"
    },
    {
      "inputs": [
        {
          "internalType": "address",
          "name": "newOracle",
          "type": "address"
        }
      ],
      "name": "transferOracle",
      "outputs": [],
      "stateMutability": "nonpayable",
      "type": "function"
    },
    {
      "inputs": [
        {
          "internalType": "address",
          "name": "newOwner",
          "type": "address"
        }
      ],
      "name": "transferOwnership",
      "outputs": [],
      "stateMutability": "nonpayable",
      "type": "function"
    },
    {
      "inputs": [
        {
          "internalType": "address",
          "name": "newImplementation",
          "type": "address"
        }
      ],
      "name": "upgradeTo",
      "outputs": [],
      "stateMutability": "nonpayable",
      "type": "function"
    },
    {
      "inputs": [
        {
          "internalType": "address",
          "name": "newImplementation",
          "type": "address"
        },
        {
          "internalType": "bytes",
          "name": "data",
          "type": "bytes"
        }
      ],
      "name": "upgradeToAndCall",
      "outputs": [],
      "stateMutability": "payable",
      "type": "function"
    }
  ],
  "bytecode": "0x60a06040523073ffffffffffffffffffffffffffffffffffffffff1660809073ffffffffffffffffffffffffffffffffffffffff1681525034801561004357600080fd5b50608051614ba261007460003960008181610a9501528181610b24015281816115c601526116550152614ba26000f3fe60806040526004361061014f5760003560e01c8063715018a6116100b6578063b8f75c0b1161006f578063b8f75c0b146104c2578063c4d66de8146104ed578063e732680614610516578063f2fde38b1461053f578063f525849114610568578063fd1b2e3f1461059157610150565b8063715018a6146103c25780637dc0d1d0146103d9578063833b1fce146104045780638c04ef981461042f5780638da5cb5b1461046c578063aaf10f421461049757610150565b80633e7da1a9116101085780633e7da1a9146102965780634415bdf5146102bf57806348bd1e99146102fc5780634f1ef286146103395780635255008c14610355578063641411f81461038557610150565b80630bc930011461016257806310fd86c81461018d57806316a2a0cc146101ca5780631ee290fb146101f3578063348f4e96146102305780633659cfe61461026d57610150565b5b34801561015c57600080fd5b50600080fd5b34801561016e57600080fd5b506101776105ce565b604051610184919061328e565b60405180910390f35b34801561019957600080fd5b506101b460048036038101906101af91906132fb565b6105f2565b6040516101c191906133c1565b60405180910390f35b3480156101d657600080fd5b506101f160048036038101906101ec91906132fb565b610675565b005b3480156101ff57600080fd5b5061021a60048036038101906102159190613448565b6106b9565b60405161022791906134d8565b60405180910390f35b34801561023c57600080fd5b5061025760048036038101906102529190613529565b610821565b60405161026491906134d8565b60405180910390f35b34801561027957600080fd5b50610294600480360381019061028f91906132fb565b610a93565b005b3480156102a257600080fd5b506102bd60048036038101906102b89190613589565b610c1c565b005b3480156102cb57600080fd5b506102e660048036038101906102e191906135e9565b6111ff565b6040516102f39190613645565b60405180910390f35b34801561030857600080fd5b50610323600480360381019061031e9190613790565b61151f565b60405161033091906134d8565b60405180910390f35b610353600480360381019061034e919061387a565b6115c4565b005b61036f600480360381019061036a919061390c565b611701565b60405161037c919061398e565b60405180910390f35b34801561039157600080fd5b506103ac60048036038101906103a791906139a9565b6119fa565b6040516103b9919061398e565b60405180910390f35b3480156103ce57600080fd5b506103d7611f0b565b005b3480156103e557600080fd5b506103ee611f93565b6040516103fb91906134d8565b60405180910390f35b34801561041057600080fd5b50610419611fbd565b60405161042691906134d8565b60405180910390f35b34801561043b57600080fd5b506104566004803603810190610451919061390c565b611fcc565b604051610463919061398e565b60405180910390f35b34801561047857600080fd5b506104816122c1565b60405161048e91906134d8565b60405180910390f35b3480156104a357600080fd5b506104ac6122eb565b6040516104b991906134d8565b60405180910390f35b3480156104ce57600080fd5b506104d76122fa565b6040516104e49190613a0a565b60405180910390f35b3480156104f957600080fd5b50610514600480360381019061050f91906132fb565b612320565b005b34801561052257600080fd5b5061053d600480360381019061053891906132fb565b612429565b005b34801561054b57600080fd5b50610566600480360381019061056191906132fb565b612521565b005b34801561057457600080fd5b5061058f600480360381019061058a91906132fb565b612619565b005b34801561059d57600080fd5b506105b860048036038101906105b39190613790565b61265c565b6040516105c5919061398e565b60405180910390f35b60008054906101000a900473ffffffffffffffffffffffffffffffffffffffff1681565b606060008290508073ffffffffffffffffffffffffffffffffffffffff1663c17bd75e6040518163ffffffff1660e01b8152600401600060405180830381865afa158015610644573d6000803e3d6000fd5b505050506040513d6000823e3d601f19601f8201168201806040525081019061066d9190613a95565b915050919050565b80600160006101000a81548173ffffffffffffffffffffffffffffffffffffffff021916908373ffffffffffffffffffffffffffffffffffffffff16021790555050565b6000600260ca541415610701576040517f08c379a00000000000000000000000000000000000000000000000000000000081526004016106f890613b2a565b60405180910390fd5b600260ca819055506000600160009054906101000a900473ffffffffffffffffffffffffffffffffffffffff1673ffffffffffffffffffffffffffffffffffffffff166355e2ba408787338888306040518763ffffffff1660e01b815260040161077096959493929190613b77565b6020604051808303816000875af115801561078f573d6000803e3d6000fd5b505050506040513d601f19601f820116820180604052508101906107b39190613be3565b90508073ffffffffffffffffffffffffffffffffffffffff167f9b4ec425461e6b6e22c6b5a40c3fba7c8200dbc1832b92910140d4311872c13987878787334260405161080596959493929190613c1f565b60405180910390a280915050600160ca81905550949350505050565b6000600260ca541415610869576040517f08c379a000000000000000000000000000000000000000000000000000000000815260040161086090613b2a565b60405180910390fd5b600260ca81905550600115156108c284848080601f016020809104026020016040519081016040528093929190818152602001838380828437600081840152601f19601f8201169050808301925050505050505061265c565b151514610904576040517f08c379a00000000000000000000000000000000000000000000000000000000081526004016108fb90613cc2565b60405180910390fd5b600061095384848080601f016020809104026020016040519081016040528093929190818152602001838380828437600081840152601f19601f8201169050808301925050505050505061151f565b905060008190508073ffffffffffffffffffffffffffffffffffffffff16631d1438486040518163ffffffff1660e01b8152600401602060405180830381865afa1580156109a5573d6000803e3d6000fd5b505050506040513d601f19601f820116820180604052508101906109c99190613be3565b73ffffffffffffffffffffffffffffffffffffffff163373ffffffffffffffffffffffffffffffffffffffff1614610a0057600080fd5b60008173ffffffffffffffffffffffffffffffffffffffff1663d2c83c03886040518263ffffffff1660e01b8152600401610a3b9190613645565b602060405180830381865afa158015610a58573d6000803e3d6000fd5b505050506040513d601f19601f82011682018060405250810190610a7c9190613be3565b9050809350505050600160ca819055509392505050565b7f000000000000000000000000000000000000000000000000000000000000000073ffffffffffffffffffffffffffffffffffffffff163073ffffffffffffffffffffffffffffffffffffffff161415610b22576040517f08c379a0000000000000000000000000000000000000000000000000000000008152600401610b1990613d54565b60405180910390fd5b7f000000000000000000000000000000000000000000000000000000000000000073ffffffffffffffffffffffffffffffffffffffff16610b61612713565b73ffffffffffffffffffffffffffffffffffffffff1614610bb7576040517f08c379a0000000000000000000000000000000000000000000000000000000008152600401610bae90613de6565b60405180910390fd5b610bc08161276a565b610c1981600067ffffffffffffffff811115610bdf57610bde613665565b5b6040519080825280601f01601f191660200182016040528015610c115781602001600182028036833780820191505090505b5060006127e9565b50565b600260ca541415610c62576040517f08c379a0000000000000000000000000000000000000000000000000000000008152600401610c5990613b2a565b60405180910390fd5b600260ca8190555060011515610cbb84848080601f016020809104026020016040519081016040528093929190818152602001838380828437600081840152601f19601f8201169050808301925050505050505061265c565b151514610cfd576040517f08c379a0000000000000000000000000000000000000000000000000000000008152600401610cf490613e52565b60405180910390fd5b6000610d4c84848080601f016020809104026020016040519081016040528093929190818152602001838380828437600081840152601f19601f8201169050808301925050505050505061151f565b9050600081905060005b8173ffffffffffffffffffffffffffffffffffffffff16636b149d876040518163ffffffff1660e01b8152600401600060405180830381865afa158015610da1573d6000803e3d6000fd5b505050506040513d6000823e3d601f19601f82011682018060405250810190610dca9190613f4a565b518110156110a95760008273ffffffffffffffffffffffffffffffffffffffff1663b02c43d0836040518263ffffffff1660e01b8152600401610e0d9190613f93565b602060405180830381865afa158015610e2a573d6000803e3d6000fd5b505050506040513d601f19601f82011682018060405250810190610e4e9190613fae565b90508273ffffffffffffffffffffffffffffffffffffffff1663f05e0f7e826040518263ffffffff1660e01b8152600401610e899190613645565b602060405180830381865afa158015610ea6573d6000803e3d6000fd5b505050506040513d601f19601f82011682018060405250810190610eca9190614007565b61108e578273ffffffffffffffffffffffffffffffffffffffff1663c8622c2486836040518363ffffffff1660e01b8152600401610f09929190614034565b6020604051808303816000875af1158015610f28573d6000803e3d6000fd5b505050506040513d601f19601f82011682018060405250810190610f4c9190614007565b508373ffffffffffffffffffffffffffffffffffffffff167f5c7bdd5380593839c03f2da29596b513eb5a73a6368e0957b45802752b7bd46d828573ffffffffffffffffffffffffffffffffffffffff1663c17bd75e6040518163ffffffff1660e01b8152600401600060405180830381865afa158015610fd1573d6000803e3d6000fd5b505050506040513d6000823e3d601f19601f82011682018060405250810190610ffa9190613a95565b8673ffffffffffffffffffffffffffffffffffffffff166323bd4d7a6040518163ffffffff1660e01b8152600401600060405180830381865afa158015611045573d6000803e3d6000fd5b505050506040513d6000823e3d601f19601f8201168201806040525081019061106e9190613a95565b894260405161108195949392919061405d565b60405180910390a2611094565b50611096565b505b80806110a1906140ed565b915050610d56565b508073ffffffffffffffffffffffffffffffffffffffff1663c74073a1846040518263ffffffff1660e01b81526004016110e391906134d8565b6020604051808303816000875af1158015611102573d6000803e3d6000fd5b505050506040513d601f19601f820116820180604052508101906111269190614007565b508173ffffffffffffffffffffffffffffffffffffffff167f9343271f905976f6466b93515ab914676ff8c6c6151a3d597d8c319dc3bc751386868473ffffffffffffffffffffffffffffffffffffffff166323bd4d7a6040518163ffffffff1660e01b8152600401600060405180830381865afa1580156111ac573d6000803e3d6000fd5b505050506040513d6000823e3d601f19601f820116820180604052508101906111d59190613a95565b87426040516111e8959493929190614136565b60405180910390a25050600160ca81905550505050565b6000600260ca541415611247576040517f08c379a000000000000000000000000000000000000000000000000000000000815260040161123e90613b2a565b60405180910390fd5b600260ca81905550600115156112a084848080601f016020809104026020016040519081016040528093929190818152602001838380828437600081840152601f19601f8201169050808301925050505050505061265c565b1515146112e2576040517f08c379a00000000000000000000000000000000000000000000000000000000081526004016112d9906141d7565b60405180910390fd5b600061133184848080601f016020809104026020016040519081016040528093929190818152602001838380828437600081840152601f19601f8201169050808301925050505050505061151f565b9050600081905060008173ffffffffffffffffffffffffffffffffffffffff1663c435e2aa336040518263ffffffff1660e01b815260040161137391906134d8565b602060405180830381865afa158015611390573d6000803e3d6000fd5b505050506040513d601f19601f820116820180604052508101906113b49190613fae565b90506113f86040518060400160405280600c81526020017f7375626d697373696f6e496400000000000000000000000000000000000000008152508260001c6129ba565b60006040518060400160405280600c81526020017f72616e646f6d537472696e67000000000000000000000000000000000000000081525090508273ffffffffffffffffffffffffffffffffffffffff1663f888c85683336040518363ffffffff1660e01b815260040161146d9291906141f7565b600060405180830381600087803b15801561148757600080fd5b505af115801561149b573d6000803e3d6000fd5b505050508273ffffffffffffffffffffffffffffffffffffffff1663072900f9336040518263ffffffff1660e01b81526004016114d891906134d8565b600060405180830381600087803b1580156114f257600080fd5b505af1158015611506573d6000803e3d6000fd5b5050505081945050505050600160ca8190555092915050565b6000600160009054906101000a900473ffffffffffffffffffffffffffffffffffffffff1673ffffffffffffffffffffffffffffffffffffffff16635c3aaab7836040518263ffffffff1660e01b815260040161157c91906133c1565b602060405180830381865afa158015611599573d6000803e3d6000fd5b505050506040513d601f19601f820116820180604052508101906115bd9190613be3565b9050919050565b7f000000000000000000000000000000000000000000000000000000000000000073ffffffffffffffffffffffffffffffffffffffff163073ffffffffffffffffffffffffffffffffffffffff161415611653576040517f08c379a000000000000000000000000000000000000000000000000000000000815260040161164a90613d54565b60405180910390fd5b7f000000000000000000000000000000000000000000000000000000000000000073ffffffffffffffffffffffffffffffffffffffff16611692612713565b73ffffffffffffffffffffffffffffffffffffffff16146116e8576040517f08c379a00000000000000000000000000000000000000000000000000000000081526004016116df90613de6565b60405180910390fd5b6116f18261276a565b6116fd828260016127e9565b5050565b6000600260ca541415611749576040517f08c379a000000000000000000000000000000000000000000000000000000000815260040161174090613b2a565b60405180910390fd5b600260ca819055506000859050600115156117d68273ffffffffffffffffffffffffffffffffffffffff1663c17bd75e6040518163ffffffff1660e01b8152600401600060405180830381865afa1580156117a8573d6000803e3d6000fd5b505050506040513d6000823e3d601f19601f820116820180604052508101906117d19190613a95565b61265c565b151514611818576040517f08c379a000000000000000000000000000000000000000000000000000000000815260040161180f9061426c565b60405180910390fd5b6000808273ffffffffffffffffffffffffffffffffffffffff1663d6fe0f4434338a8a8a6040518663ffffffff1660e01b815260040161185b949392919061428c565b604080518083038185885af1158015611878573d6000803e3d6000fd5b50505050506040513d601f19601f8201168201806040525081019061189d91906142e6565b915091508773ffffffffffffffffffffffffffffffffffffffff167faf36131f1dc94492cced7f049feaadaceaba10e417412ce818eccd383e16f563838573ffffffffffffffffffffffffffffffffffffffff1663c17bd75e6040518163ffffffff1660e01b8152600401600060405180830381865afa158015611925573d6000803e3d6000fd5b505050506040513d6000823e3d601f19601f8201168201806040525081019061194e9190613a95565b8673ffffffffffffffffffffffffffffffffffffffff166323bd4d7a6040518163ffffffff1660e01b8152600401600060405180830381865afa158015611999573d6000803e3d6000fd5b505050506040513d6000823e3d601f19601f820116820180604052508101906119c29190613a95565b8b42338c896040516119db989796959493929190614326565b60405180910390a260019350505050600160ca81905550949350505050565b6000600260ca541415611a42576040517f08c379a0000000000000000000000000000000000000000000000000000000008152600401611a3990613b2a565b60405180910390fd5b600260ca81905550600082905060011515611acf8273ffffffffffffffffffffffffffffffffffffffff1663c17bd75e6040518163ffffffff1660e01b8152600401600060405180830381865afa158015611aa1573d6000803e3d6000fd5b505050506040513d6000823e3d601f19601f82011682018060405250810190611aca9190613a95565b61265c565b151514611b11576040517f08c379a0000000000000000000000000000000000000000000000000000000008152600401611b08906143fe565b60405180910390fd5b3373ffffffffffffffffffffffffffffffffffffffff168173ffffffffffffffffffffffffffffffffffffffff166359ba8344866040518263ffffffff1660e01b8152600401611b619190613645565b602060405180830381865afa158015611b7e573d6000803e3d6000fd5b505050506040513d601f19601f82011682018060405250810190611ba29190613be3565b73ffffffffffffffffffffffffffffffffffffffff1614611bf8576040517f08c379a0000000000000000000000000000000000000000000000000000000008152600401611bef9061446a565b60405180910390fd5b611cfd8173ffffffffffffffffffffffffffffffffffffffff166356406fa5866040518263ffffffff1660e01b8152600401611c349190613645565b602060405180830381865afa158015611c51573d6000803e3d6000fd5b505050506040513d601f19601f82011682018060405250810190611c75919061448a565b8273ffffffffffffffffffffffffffffffffffffffff1663968b098f876040518263ffffffff1660e01b8152600401611cae9190613645565b602060405180830381865afa158015611ccb573d6000803e3d6000fd5b505050506040513d601f19601f82011682018060405250810190611cef919061448a565b612a5690919063ffffffff16565b421015611d3f576040517f08c379a0000000000000000000000000000000000000000000000000000000008152600401611d3690614503565b60405180910390fd5b8073ffffffffffffffffffffffffffffffffffffffff1663641411f885336040518363ffffffff1660e01b8152600401611d7a9291906141f7565b6020604051808303816000875af1158015611d99573d6000803e3d6000fd5b505050506040513d601f19601f82011682018060405250810190611dbd9190614007565b508273ffffffffffffffffffffffffffffffffffffffff167f5cfacced9b0054c7760e6620dfb8bb83cae10b8c701ad759b2e68e0d6707bfd4858373ffffffffffffffffffffffffffffffffffffffff1663c17bd75e6040518163ffffffff1660e01b8152600401600060405180830381865afa158015611e42573d6000803e3d6000fd5b505050506040513d6000823e3d601f19601f82011682018060405250810190611e6b9190613a95565b8473ffffffffffffffffffffffffffffffffffffffff166323bd4d7a6040518163ffffffff1660e01b8152600401600060405180830381865afa158015611eb6573d6000803e3d6000fd5b505050506040513d6000823e3d601f19601f82011682018060405250810190611edf9190613a95565b42604051611ef09493929190614523565b60405180910390a26001915050600160ca8190555092915050565b611f13612a6c565b73ffffffffffffffffffffffffffffffffffffffff16611f316122c1565b73ffffffffffffffffffffffffffffffffffffffff1614611f87576040517f08c379a0000000000000000000000000000000000000000000000000000000008152600401611f7e906145c2565b60405180910390fd5b611f916000612a74565b565b600060fc60009054906101000a900473ffffffffffffffffffffffffffffffffffffffff16905090565b6000611fc7611f93565b905090565b6000600260ca541415612014576040517f08c379a000000000000000000000000000000000000000000000000000000000815260040161200b90613b2a565b60405180910390fd5b600260ca819055506000859050600115156120a18273ffffffffffffffffffffffffffffffffffffffff1663c17bd75e6040518163ffffffff1660e01b8152600401600060405180830381865afa158015612073573d6000803e3d6000fd5b505050506040513d6000823e3d601f19601f8201168201806040525081019061209c9190613a95565b61265c565b1515146120e3576040517f08c379a00000000000000000000000000000000000000000000000000000000081526004016120da9061426c565b60405180910390fd5b60008173ffffffffffffffffffffffffffffffffffffffff1663e129b333338888886040518563ffffffff1660e01b8152600401612124949392919061428c565b6020604051808303816000875af1158015612143573d6000803e3d6000fd5b505050506040513d601f19601f820116820180604052508101906121679190613fae565b90508673ffffffffffffffffffffffffffffffffffffffff167f787b2d0c3b917fe6a118b5225b044e4a4ba6d2d1cfa26f9b156fc1b1e263dee7828473ffffffffffffffffffffffffffffffffffffffff1663c17bd75e6040518163ffffffff1660e01b8152600401600060405180830381865afa1580156121ed573d6000803e3d6000fd5b505050506040513d6000823e3d601f19601f820116820180604052508101906122169190613a95565b8573ffffffffffffffffffffffffffffffffffffffff166323bd4d7a6040518163ffffffff1660e01b8152600401600060405180830381865afa158015612261573d6000803e3d6000fd5b505050506040513d6000823e3d601f19601f8201168201806040525081019061228a9190613a95565b8a42338b8d6040516122a3989796959493929190614326565b60405180910390a2600192505050600160ca81905550949350505050565b6000606660009054906101000a900473ffffffffffffffffffffffffffffffffffffffff16905090565b60006122f5612713565b905090565b600160009054906101000a900473ffffffffffffffffffffffffffffffffffffffff1681565b600160159054906101000a900460ff1661234a57600160149054906101000a900460ff1615612353565b612352612b3a565b5b612392576040517f08c379a000000000000000000000000000000000000000000000000000000000815260040161238990614654565b60405180910390fd5b6000600160159054906101000a900460ff1615905080156123e25760018060156101000a81548160ff02191690831515021790555060018060146101000a81548160ff0219169083151502179055505b6123ea612b4b565b6123f2612bac565b6123fb82612c0d565b612403612ca0565b8015612425576000600160156101000a81548160ff0219169083151502179055505b5050565b612431612a6c565b73ffffffffffffffffffffffffffffffffffffffff1661244f6122c1565b73ffffffffffffffffffffffffffffffffffffffff16146124a5576040517f08c379a000000000000000000000000000000000000000000000000000000000815260040161249c906145c2565b60405180910390fd5b600073ffffffffffffffffffffffffffffffffffffffff168173ffffffffffffffffffffffffffffffffffffffff161415612515576040517f08c379a000000000000000000000000000000000000000000000000000000000815260040161250c906146e6565b60405180910390fd5b61251e81612cf9565b50565b612529612a6c565b73ffffffffffffffffffffffffffffffffffffffff166125476122c1565b73ffffffffffffffffffffffffffffffffffffffff161461259d576040517f08c379a0000000000000000000000000000000000000000000000000000000008152600401612594906145c2565b60405180910390fd5b600073ffffffffffffffffffffffffffffffffffffffff168173ffffffffffffffffffffffffffffffffffffffff16141561260d576040517f08c379a000000000000000000000000000000000000000000000000000000000815260040161260490614778565b60405180910390fd5b61261681612a74565b50565b806000806101000a81548173ffffffffffffffffffffffffffffffffffffffff021916908373ffffffffffffffffffffffffffffffffffffffff16021790555050565b6000806126688361151f565b90506000819050600080600181111561268457612683614798565b5b8273ffffffffffffffffffffffffffffffffffffffff1663200d2ed26040518163ffffffff1660e01b8152600401602060405180830381865afa1580156126cf573d6000803e3d6000fd5b505050506040513d601f19601f820116820180604052508101906126f391906147ec565b600181111561270557612704614798565b5b149050809350505050919050565b60006127417f360894a13ba1a3210667c828492db98dca3e2076cc3735a920a3ca505d382bbc60001b612dbf565b60000160009054906101000a900473ffffffffffffffffffffffffffffffffffffffff16905090565b612772612a6c565b73ffffffffffffffffffffffffffffffffffffffff166127906122c1565b73ffffffffffffffffffffffffffffffffffffffff16146127e6576040517f08c379a00000000000000000000000000000000000000000000000000000000081526004016127dd906145c2565b60405180910390fd5b50565b60006127f3612713565b90506127fe84612dc9565b60008351118061280b5750815b1561281c5761281a8484612e82565b505b600061284a7f4910fdfa16fed3260ed0e7147f7cc6da11a60208b5b9406d12a635614ffd914360001b612f66565b90508060000160009054906101000a900460ff166129b35760018160000160006101000a81548160ff021916908315150217905550612916858360405160240161289491906134d8565b6040516020818303038152906040527f3659cfe6000000000000000000000000000000000000000000000000000000007bffffffffffffffffffffffffffffffffffffffffffffffffffffffff19166020820180517bffffffffffffffffffffffffffffffffffffffffffffffffffffffff8381831617835250505050612e82565b5060008160000160006101000a81548160ff02191690831515021790555061293c612713565b73ffffffffffffffffffffffffffffffffffffffff168273ffffffffffffffffffffffffffffffffffffffff16146129a9576040517f08c379a00000000000000000000000000000000000000000000000000000000081526004016129a09061488b565b60405180910390fd5b6129b285612f70565b5b5050505050565b612a5282826040516024016129d09291906148ab565b6040516020818303038152906040527f9710a9d0000000000000000000000000000000000000000000000000000000007bffffffffffffffffffffffffffffffffffffffffffffffffffffffff19166020820180517bffffffffffffffffffffffffffffffffffffffffffffffffffffffff8381831617835250505050612fbf565b5050565b60008183612a6491906148db565b905092915050565b600033905090565b6000606660009054906101000a900473ffffffffffffffffffffffffffffffffffffffff16905081606660006101000a81548173ffffffffffffffffffffffffffffffffffffffff021916908373ffffffffffffffffffffffffffffffffffffffff1602179055508173ffffffffffffffffffffffffffffffffffffffff168173ffffffffffffffffffffffffffffffffffffffff167f8be0079c531659141344cd1fd0a4f28419497f9722a3daafe3b4186f6b6457e060405160405180910390a35050565b6000612b4530612fe8565b15905090565b600160159054906101000a900460ff16612b9a576040517f08c379a0000000000000000000000000000000000000000000000000000000008152600401612b91906149a3565b60405180910390fd5b612ba2612ffb565b612baa61304c565b565b600160159054906101000a900460ff16612bfb576040517f08c379a0000000000000000000000000000000000000000000000000000000008152600401612bf2906149a3565b60405180910390fd5b612c036130ad565b612c0b6130fe565b565b600160159054906101000a900460ff16612c5c576040517f08c379a0000000000000000000000000000000000000000000000000000000008152600401612c53906149a3565b60405180910390fd5b8060fc60006101000a81548173ffffffffffffffffffffffffffffffffffffffff021916908373ffffffffffffffffffffffffffffffffffffffff16021790555050565b600160159054906101000a900460ff16612cef576040517f08c379a0000000000000000000000000000000000000000000000000000000008152600401612ce6906149a3565b60405180910390fd5b612cf761314f565b565b600060fc60009054906101000a900473ffffffffffffffffffffffffffffffffffffffff1690508160fc60006101000a81548173ffffffffffffffffffffffffffffffffffffffff021916908373ffffffffffffffffffffffffffffffffffffffff1602179055508173ffffffffffffffffffffffffffffffffffffffff168173ffffffffffffffffffffffffffffffffffffffff167f9b0948b943e24ff3413cb400b2eeae4337138739aaf31759dc6e813e8076fbc360405160405180910390a35050565b6000819050919050565b612dd281612fe8565b612e11576040517f08c379a0000000000000000000000000000000000000000000000000000000008152600401612e0890614a35565b60405180910390fd5b80612e3e7f360894a13ba1a3210667c828492db98dca3e2076cc3735a920a3ca505d382bbc60001b612dbf565b60000160006101000a81548173ffffffffffffffffffffffffffffffffffffffff021916908373ffffffffffffffffffffffffffffffffffffffff16021790555050565b6060612e8d83612fe8565b612ecc576040517f08c379a0000000000000000000000000000000000000000000000000000000008152600401612ec390614ac7565b60405180910390fd5b6000808473ffffffffffffffffffffffffffffffffffffffff1684604051612ef49190614b2e565b600060405180830381855af49150503d8060008114612f2f576040519150601f19603f3d011682016040523d82523d6000602084013e612f34565b606091505b5091509150612f5c8282604051806060016040528060278152602001614b46602791396131a8565b9250505092915050565b6000819050919050565b612f7981612dc9565b8073ffffffffffffffffffffffffffffffffffffffff167fbc7cd75a20ee27fd9adebab32041f755214dbc6bffa90cc0225b39da2e5c2d3b60405160405180910390a250565b60008151905060006a636f6e736f6c652e6c6f679050602083016000808483855afa5050505050565b600080823b905060008111915050919050565b600160159054906101000a900460ff1661304a576040517f08c379a0000000000000000000000000000000000000000000000000000000008152600401613041906149a3565b60405180910390fd5b565b600160159054906101000a900460ff1661309b576040517f08c379a0000000000000000000000000000000000000000000000000000000008152600401613092906149a3565b60405180910390fd5b6130ab6130a6612a6c565b612a74565b565b600160159054906101000a900460ff166130fc576040517f08c379a00000000000000000000000000000000000000000000000000000000081526004016130f3906149a3565b60405180910390fd5b565b600160159054906101000a900460ff1661314d576040517f08c379a0000000000000000000000000000000000000000000000000000000008152600401613144906149a3565b60405180910390fd5b565b600160159054906101000a900460ff1661319e576040517f08c379a0000000000000000000000000000000000000000000000000000000008152600401613195906149a3565b60405180910390fd5b600160ca81905550565b606083156131b857829050613208565b6000835111156131cb5782518084602001fd5b816040517f08c379a00000000000000000000000000000000000000000000000000000000081526004016131ff91906133c1565b60405180910390fd5b9392505050565b600073ffffffffffffffffffffffffffffffffffffffff82169050919050565b6000819050919050565b600061325461324f61324a8461320f565b61322f565b61320f565b9050919050565b600061326682613239565b9050919050565b60006132788261325b565b9050919050565b6132888161326d565b82525050565b60006020820190506132a3600083018461327f565b92915050565b6000604051905090565b600080fd5b600080fd5b60006132c88261320f565b9050919050565b6132d8816132bd565b81146132e357600080fd5b50565b6000813590506132f5816132cf565b92915050565b600060208284031215613311576133106132b3565b5b600061331f848285016132e6565b91505092915050565b600081519050919050565b600082825260208201905092915050565b60005b83811015613362578082015181840152602081019050613347565b83811115613371576000848401525b50505050565b6000601f19601f8301169050919050565b600061339382613328565b61339d8185613333565b93506133ad818560208601613344565b6133b681613377565b840191505092915050565b600060208201905081810360008301526133db8184613388565b905092915050565b600080fd5b600080fd5b600080fd5b60008083601f840112613408576134076133e3565b5b8235905067ffffffffffffffff811115613425576134246133e8565b5b602083019150836001820283011115613441576134406133ed565b5b9250929050565b60008060008060408587031215613462576134616132b3565b5b600085013567ffffffffffffffff8111156134805761347f6132b8565b5b61348c878288016133f2565b9450945050602085013567ffffffffffffffff8111156134af576134ae6132b8565b5b6134bb878288016133f2565b925092505092959194509250565b6134d2816132bd565b82525050565b60006020820190506134ed60008301846134c9565b92915050565b6000819050919050565b613506816134f3565b811461351157600080fd5b50565b600081359050613523816134fd565b92915050565b600080600060408486031215613542576135416132b3565b5b600061355086828701613514565b935050602084013567ffffffffffffffff811115613571576135706132b8565b5b61357d868287016133f2565b92509250509250925092565b6000806000604084860312156135a2576135a16132b3565b5b600084013567ffffffffffffffff8111156135c0576135bf6132b8565b5b6135cc868287016133f2565b935093505060206135df868287016132e6565b9150509250925092565b60008060208385031215613600576135ff6132b3565b5b600083013567ffffffffffffffff81111561361e5761361d6132b8565b5b61362a858286016133f2565b92509250509250929050565b61363f816134f3565b82525050565b600060208201905061365a6000830184613636565b92915050565b600080fd5b7f4e487b7100000000000000000000000000000000000000000000000000000000600052604160045260246000fd5b61369d82613377565b810181811067ffffffffffffffff821117156136bc576136bb613665565b5b80604052505050565b60006136cf6132a9565b90506136db8282613694565b919050565b600067ffffffffffffffff8211156136fb576136fa613665565b5b61370482613377565b9050602081019050919050565b82818337600083830152505050565b600061373361372e846136e0565b6136c5565b90508281526020810184848401111561374f5761374e613660565b5b61375a848285613711565b509392505050565b600082601f830112613777576137766133e3565b5b8135613787848260208601613720565b91505092915050565b6000602082840312156137a6576137a56132b3565b5b600082013567ffffffffffffffff8111156137c4576137c36132b8565b5b6137d084828501613762565b91505092915050565b600067ffffffffffffffff8211156137f4576137f3613665565b5b6137fd82613377565b9050602081019050919050565b600061381d613818846137d9565b6136c5565b90508281526020810184848401111561383957613838613660565b5b613844848285613711565b509392505050565b600082601f830112613861576138606133e3565b5b813561387184826020860161380a565b91505092915050565b60008060408385031215613891576138906132b3565b5b600061389f858286016132e6565b925050602083013567ffffffffffffffff8111156138c0576138bf6132b8565b5b6138cc8582860161384c565b9150509250929050565b6000819050919050565b6138e9816138d6565b81146138f457600080fd5b50565b600081359050613906816138e0565b92915050565b60008060008060808587031215613926576139256132b3565b5b6000613934878288016132e6565b9450506020613945878288016132e6565b9350506040613956878288016138f7565b9250506060613967878288016138f7565b91505092959194509250565b60008115159050919050565b61398881613973565b82525050565b60006020820190506139a3600083018461397f565b92915050565b600080604083850312156139c0576139bf6132b3565b5b60006139ce85828601613514565b92505060206139df858286016132e6565b9150509250929050565b60006139f48261325b565b9050919050565b613a04816139e9565b82525050565b6000602082019050613a1f60008301846139fb565b92915050565b6000613a38613a33846136e0565b6136c5565b905082815260208101848484011115613a5457613a53613660565b5b613a5f848285613344565b509392505050565b600082601f830112613a7c57613a7b6133e3565b5b8151613a8c848260208601613a25565b91505092915050565b600060208284031215613aab57613aaa6132b3565b5b600082015167ffffffffffffffff811115613ac957613ac86132b8565b5b613ad584828501613a67565b91505092915050565b7f5265656e7472616e637947756172643a207265656e7472616e742063616c6c00600082015250565b6000613b14601f83613333565b9150613b1f82613ade565b602082019050919050565b60006020820190508181036000830152613b4381613b07565b9050919050565b6000613b568385613333565b9350613b63838584613711565b613b6c83613377565b840190509392505050565b60006080820190508181036000830152613b9281888a613b4a565b9050613ba160208301876134c9565b8181036040830152613bb4818587613b4a565b9050613bc360608301846134c9565b979650505050505050565b600081519050613bdd816132cf565b92915050565b600060208284031215613bf957613bf86132b3565b5b6000613c0784828501613bce565b91505092915050565b613c19816138d6565b82525050565b60006080820190508181036000830152613c3a81888a613b4a565b90508181036020830152613c4f818688613b4a565b9050613c5e60408301856134c9565b613c6b6060830184613c10565b979650505050505050565b7f4a554447494e475f434c4f5345445f424f554e54590000000000000000000000600082015250565b6000613cac601583613333565b9150613cb782613c76565b602082019050919050565b60006020820190508181036000830152613cdb81613c9f565b9050919050565b7f46756e6374696f6e206d7573742062652063616c6c6564207468726f7567682060008201527f64656c656761746563616c6c0000000000000000000000000000000000000000602082015250565b6000613d3e602c83613333565b9150613d4982613ce2565b604082019050919050565b60006020820190508181036000830152613d6d81613d31565b9050919050565b7f46756e6374696f6e206d7573742062652063616c6c6564207468726f7567682060008201527f6163746976652070726f78790000000000000000000000000000000000000000602082015250565b6000613dd0602c83613333565b9150613ddb82613d74565b604082019050919050565b60006020820190508181036000830152613dff81613dc3565b9050919050565b7f434c41494d494e475f434c4f5345445f424f554e545900000000000000000000600082015250565b6000613e3c601683613333565b9150613e4782613e06565b602082019050919050565b60006020820190508181036000830152613e6b81613e2f565b9050919050565b600067ffffffffffffffff821115613e8d57613e8c613665565b5b602082029050602081019050919050565b600081519050613ead816134fd565b92915050565b6000613ec6613ec184613e72565b6136c5565b90508083825260208201905060208402830185811115613ee957613ee86133ed565b5b835b81811015613f125780613efe8882613e9e565b845260208401935050602081019050613eeb565b5050509392505050565b600082601f830112613f3157613f306133e3565b5b8151613f41848260208601613eb3565b91505092915050565b600060208284031215613f6057613f5f6132b3565b5b600082015167ffffffffffffffff811115613f7e57613f7d6132b8565b5b613f8a84828501613f1c565b91505092915050565b6000602082019050613fa86000830184613c10565b92915050565b600060208284031215613fc457613fc36132b3565b5b6000613fd284828501613e9e565b91505092915050565b613fe481613973565b8114613fef57600080fd5b50565b60008151905061400181613fdb565b92915050565b60006020828403121561401d5761401c6132b3565b5b600061402b84828501613ff2565b91505092915050565b600060408201905061404960008301856134c9565b6140566020830184613636565b9392505050565b600060a0820190506140726000830188613636565b81810360208301526140848187613388565b905081810360408301526140988186613388565b90506140a760608301856134c9565b6140b46080830184613c10565b9695505050505050565b7f4e487b7100000000000000000000000000000000000000000000000000000000600052601160045260246000fd5b60006140f8826138d6565b91507fffffffffffffffffffffffffffffffffffffffffffffffffffffffffffffffff82141561412b5761412a6140be565b5b600182019050919050565b60006080820190508181036000830152614151818789613b4a565b905081810360208301526141658186613388565b905061417460408301856134c9565b6141816060830184613c10565b9695505050505050565b7f5355424d495353494f4e535f434c4f5345440000000000000000000000000000600082015250565b60006141c1601283613333565b91506141cc8261418b565b602082019050919050565b600060208201905081810360008301526141f0816141b4565b9050919050565b600060408201905061420c6000830185613636565b61421960208301846134c9565b9392505050565b7f46554e44494e475f434c4f5345445f424f554e54590000000000000000000000600082015250565b6000614256601583613333565b915061426182614220565b602082019050919050565b6000602082019050818103600083015261428581614249565b9050919050565b60006080820190506142a160008301876134c9565b6142ae60208301866134c9565b6142bb6040830185613c10565b6142c86060830184613c10565b95945050505050565b6000815190506142e0816138e0565b92915050565b600080604083850312156142fd576142fc6132b3565b5b600061430b85828601613e9e565b925050602061431c858286016142d1565b9150509250929050565b60006101008201905061433c600083018b613636565b818103602083015261434e818a613388565b905081810360408301526143628189613388565b905061437160608301886134c9565b61437e6080830187613c10565b61438b60a08301866134c9565b61439860c0830185613c10565b6143a560e0830184613c10565b9998505050505050505050565b7f524546554e44494e475f434c4f5345445f424f554e5459000000000000000000600082015250565b60006143e8601783613333565b91506143f3826143b2565b602082019050919050565b60006020820190508181036000830152614417816143db565b9050919050565b7f4f4e4c595f46554e4445525f43414e5f524551554553545f524546554e440000600082015250565b6000614454601e83613333565b915061445f8261441e565b602082019050919050565b6000602082019050818103600083015261448381614447565b9050919050565b6000602082840312156144a05761449f6132b3565b5b60006144ae848285016142d1565b91505092915050565b7f5052454d41545552455f524546554e445f524551554553540000000000000000600082015250565b60006144ed601883613333565b91506144f8826144b7565b602082019050919050565b6000602082019050818103600083015261451c816144e0565b9050919050565b60006080820190506145386000830187613636565b818103602083015261454a8186613388565b9050818103604083015261455e8185613388565b905061456d6060830184613c10565b95945050505050565b7f4f776e61626c653a2063616c6c6572206973206e6f7420746865206f776e6572600082015250565b60006145ac602083613333565b91506145b782614576565b602082019050919050565b600060208201905081810360008301526145db8161459f565b9050919050565b7f496e697469616c697a61626c653a20636f6e747261637420697320616c72656160008201527f647920696e697469616c697a6564000000000000000000000000000000000000602082015250565b600061463e602e83613333565b9150614649826145e2565b604082019050919050565b6000602082019050818103600083015261466d81614631565b9050919050565b7f4f7261636c697a653a206e6577206f7261636c6520697320746865207a65726f60008201527f2061646472657373000000000000000000000000000000000000000000000000602082015250565b60006146d0602883613333565b91506146db82614674565b604082019050919050565b600060208201905081810360008301526146ff816146c3565b9050919050565b7f4f776e61626c653a206e6577206f776e657220697320746865207a65726f206160008201527f6464726573730000000000000000000000000000000000000000000000000000602082015250565b6000614762602683613333565b915061476d82614706565b604082019050919050565b6000602082019050818103600083015261479181614755565b9050919050565b7f4e487b7100000000000000000000000000000000000000000000000000000000600052602160045260246000fd5b600281106147d457600080fd5b50565b6000815190506147e6816147c7565b92915050565b600060208284031215614802576148016132b3565b5b6000614810848285016147d7565b91505092915050565b7f45524331393637557067726164653a207570677261646520627265616b73206660008201527f7572746865722075706772616465730000000000000000000000000000000000602082015250565b6000614875602f83613333565b915061488082614819565b604082019050919050565b600060208201905081810360008301526148a481614868565b9050919050565b600060408201905081810360008301526148c58185613388565b90506148d46020830184613c10565b9392505050565b60006148e6826138d6565b91506148f1836138d6565b9250827fffffffffffffffffffffffffffffffffffffffffffffffffffffffffffffffff03821115614926576149256140be565b5b828201905092915050565b7f496e697469616c697a61626c653a20636f6e7472616374206973206e6f74206960008201527f6e697469616c697a696e67000000000000000000000000000000000000000000602082015250565b600061498d602b83613333565b915061499882614931565b604082019050919050565b600060208201905081810360008301526149bc81614980565b9050919050565b7f455243313936373a206e657720696d706c656d656e746174696f6e206973206e60008201527f6f74206120636f6e747261637400000000000000000000000000000000000000602082015250565b6000614a1f602d83613333565b9150614a2a826149c3565b604082019050919050565b60006020820190508181036000830152614a4e81614a12565b9050919050565b7f416464726573733a2064656c65676174652063616c6c20746f206e6f6e2d636f60008201527f6e74726163740000000000000000000000000000000000000000000000000000602082015250565b6000614ab1602683613333565b9150614abc82614a55565b604082019050919050565b60006020820190508181036000830152614ae081614aa4565b9050919050565b600081519050919050565b600081905092915050565b6000614b0882614ae7565b614b128185614af2565b9350614b22818560208601613344565b80840191505092915050565b6000614b3a8284614afd565b91508190509291505056fe416464726573733a206c6f772d6c6576656c2064656c65676174652063616c6c206661696c6564a2646970667358221220d7f87d72f74511fd2e639689e9503201f11a32106474f131b4c55de0a92b1f7964736f6c634300080b0033",
  "linkReferences": {},
  "deployedLinkReferences": {}
}