{
  "_format": "hh-sol-artifact-1",
  "contractName": "BountyFactory",
  "sourceName": "contracts/BountyFactory/BountyFactory.sol",
  "abi": [
    {
      "inputs": [],
      "stateMutability": "nonpayable",
      "type": "constructor"
    },
    {
      "inputs": [],
      "name": "bountyImplementation",
      "outputs": [
        {
          "internalType": "address",
          "name": "",
          "type": "address"
        }
      ],
      "stateMutability": "view",
      "type": "function"
    },
    {
      "inputs": [
        {
          "internalType": "string",
          "name": "_id",
          "type": "string"
        },
        {
          "internalType": "address",
          "name": "_issuer",
          "type": "address"
        },
        {
          "internalType": "string",
          "name": "_organization",
          "type": "string"
        },
        {
          "internalType": "address",
          "name": "_openQ",
          "type": "address"
        }
      ],
      "name": "mintBounty",
      "outputs": [
        {
          "internalType": "address",
          "name": "",
          "type": "address"
        }
      ],
      "stateMutability": "nonpayable",
      "type": "function"
    },
    {
      "inputs": [
        {
          "internalType": "string",
          "name": "_id",
          "type": "string"
        }
      ],
      "name": "predictDeterministicAddress",
      "outputs": [
        {
          "internalType": "address",
          "name": "predicted",
          "type": "address"
        }
      ],
      "stateMutability": "view",
      "type": "function"
    }
  ],
  "bytecode": "0x60a060405234801561001057600080fd5b5060405161001d90610072565b604051809103906000f080158015610039573d6000803e3d6000fd5b5073ffffffffffffffffffffffffffffffffffffffff1660808173ffffffffffffffffffffffffffffffffffffffff168152505061007f565b6144bd8061087b83390190565b6080516107d46100a76000396000818160cc0152818161019d01526101f201526107d46000f3fe608060405234801561001057600080fd5b50600436106100415760003560e01c806355e2ba40146100465780635c3aaab714610076578063cae38faa146100a6575b600080fd5b610060600480360381019061005b9190610523565b6100c4565b60405161006d91906105d1565b60405180910390f35b610090600480360381019061008b91906105ec565b610196565b60405161009d91906105d1565b60405180910390f35b6100ae6101f0565b6040516100bb91906105d1565b60405180910390f35b6000806101177f0000000000000000000000000000000000000000000000000000000000000000876040516020016100fc91906106bd565b60405160208183030381529060405280519060200120610214565b90508073ffffffffffffffffffffffffffffffffffffffff16631ecfacee878787876040518563ffffffff1660e01b815260040161015894939291906106df565b600060405180830381600087803b15801561017257600080fd5b505af1158015610186573d6000803e3d6000fd5b5050505080915050949350505050565b60006101e97f0000000000000000000000000000000000000000000000000000000000000000836040516020016101cd91906106bd565b60405160208183030381529060405280519060200120306102eb565b9050919050565b7f000000000000000000000000000000000000000000000000000000000000000081565b60006040517f3d602d80600a3d3981f3363d3d373d3d3d363d7300000000000000000000000081528360601b60148201527f5af43d82803e903d91602b57fd5bf300000000000000000000000000000000006028820152826037826000f5915050600073ffffffffffffffffffffffffffffffffffffffff168173ffffffffffffffffffffffffffffffffffffffff1614156102e5576040517f08c379a00000000000000000000000000000000000000000000000000000000081526004016102dc9061077e565b60405180910390fd5b92915050565b60006040517f3d602d80600a3d3981f3363d3d373d3d3d363d7300000000000000000000000081528460601b60148201527f5af43d82803e903d91602b57fd5bf3ff0000000000000000000000000000000060288201528260601b603882015283604c82015260378120606c820152605560378201209150509392505050565b6000604051905090565b600080fd5b600080fd5b600080fd5b600080fd5b6000601f19601f8301169050919050565b7f4e487b7100000000000000000000000000000000000000000000000000000000600052604160045260246000fd5b6103d282610389565b810181811067ffffffffffffffff821117156103f1576103f061039a565b5b80604052505050565b600061040461036b565b905061041082826103c9565b919050565b600067ffffffffffffffff8211156104305761042f61039a565b5b61043982610389565b9050602081019050919050565b82818337600083830152505050565b600061046861046384610415565b6103fa565b90508281526020810184848401111561048457610483610384565b5b61048f848285610446565b509392505050565b600082601f8301126104ac576104ab61037f565b5b81356104bc848260208601610455565b91505092915050565b600073ffffffffffffffffffffffffffffffffffffffff82169050919050565b60006104f0826104c5565b9050919050565b610500816104e5565b811461050b57600080fd5b50565b60008135905061051d816104f7565b92915050565b6000806000806080858703121561053d5761053c610375565b5b600085013567ffffffffffffffff81111561055b5761055a61037a565b5b61056787828801610497565b94505060206105788782880161050e565b935050604085013567ffffffffffffffff8111156105995761059861037a565b5b6105a587828801610497565b92505060606105b68782880161050e565b91505092959194509250565b6105cb816104e5565b82525050565b60006020820190506105e660008301846105c2565b92915050565b60006020828403121561060257610601610375565b5b600082013567ffffffffffffffff8111156106205761061f61037a565b5b61062c84828501610497565b91505092915050565b600081519050919050565b600082825260208201905092915050565b60005b8381101561066f578082015181840152602081019050610654565b8381111561067e576000848401525b50505050565b600061068f82610635565b6106998185610640565b93506106a9818560208601610651565b6106b281610389565b840191505092915050565b600060208201905081810360008301526106d78184610684565b905092915050565b600060808201905081810360008301526106f98187610684565b905061070860208301866105c2565b818103604083015261071a8185610684565b905061072960608301846105c2565b95945050505050565b7f455243313136373a2063726561746532206661696c6564000000000000000000600082015250565b6000610768601783610640565b915061077382610732565b602082019050919050565b600060208201905081810360008301526107978161075b565b905091905056fea264697066735822122007cef9cbf22f292e7c2baf72db3af62c45ad93de0f4179dad9d4b5939f870d1264736f6c634300080b0033608060405234801561001057600080fd5b5061449d806100206000396000f3fe6080604052600436106102135760003560e01c8063995280b011610118578063cb4436b7116100a0578063e129b3331161006f578063e129b33314610895578063f05e0f7e146108d2578063f23217251461090f578063f888c8561461094c578063fc2db777146109755761021a565b8063cb4436b7146107bf578063cc3c0f06146107ea578063d2c83c0314610827578063d6fe0f44146108645761021a565b8063b99bb990116100e7578063b99bb990146106a0578063c17bd75e146106dd578063c435e2aa14610708578063c74073a114610745578063c8622c24146107825761021a565b8063995280b0146105d0578063ae4dac41146105fb578063b02c43d014610626578063b588d225146106635761021a565b806356406fa51161019b5780636b149d871161016a5780636b149d87146104d55780637044f282146105005780637dc81fa21461052b578063968b098f1461055657806397bb3ce9146105935761021a565b806356406fa5146103f357806359ba8344146104305780635bcb2fc61461046d578063641411f8146104985761021a565b80631d143848116101e25780631d1438481461030c5780631ecfacee14610337578063200d2ed214610360578063235b2b941461038b57806323bd4d7a146103c85761021a565b8063072900f91461022c5780630a2a34a514610255578063150b7a02146102925780631595eea4146102cf5761021a565b3661021a57005b34801561022657600080fd5b50600080fd5b34801561023857600080fd5b50610253600480360381019061024e9190612ed7565b6109b2565b005b34801561026157600080fd5b5061027c60048036038101906102779190612f9f565b610a18565b604051610289919061300e565b60405180910390f35b34801561029e57600080fd5b506102b960048036038101906102b491906130b5565b610c71565b6040516102c69190613178565b60405180910390f35b3480156102db57600080fd5b506102f660048036038101906102f19190613193565b610c9f565b60405161030391906131cf565b60405180910390f35b34801561031857600080fd5b50610321610cb7565b60405161032e919061300e565b60405180910390f35b34801561034357600080fd5b5061035e6004803603810190610359919061332b565b610cdd565b005b34801561036c57600080fd5b50610375610f0e565b6040516103829190613441565b60405180910390f35b34801561039757600080fd5b506103b260048036038101906103ad9190613193565b610f21565b6040516103bf9190613477565b60405180910390f35b3480156103d457600080fd5b506103dd610f41565b6040516103ea919061351a565b60405180910390f35b3480156103ff57600080fd5b5061041a60048036038101906104159190613193565b610fcf565b60405161042791906131cf565b60405180910390f35b34801561043c57600080fd5b5061045760048036038101906104529190613193565b610fe7565b604051610464919061300e565b60405180910390f35b34801561047957600080fd5b5061048261101a565b60405161048f919061354b565b60405180910390f35b3480156104a457600080fd5b506104bf60048036038101906104ba9190613566565b61129f565b6040516104cc9190613477565b60405180910390f35b3480156104e157600080fd5b506104ea611731565b6040516104f79190613664565b60405180910390f35b34801561050c57600080fd5b50610515611789565b604051610522919061300e565b60405180910390f35b34801561053757600080fd5b506105406117af565b60405161054d919061300e565b60405180910390f35b34801561056257600080fd5b5061057d60048036038101906105789190613193565b6117d5565b60405161058a91906131cf565b60405180910390f35b34801561059f57600080fd5b506105ba60048036038101906105b59190613193565b6117ed565b6040516105c7919061300e565b60405180910390f35b3480156105dc57600080fd5b506105e5611820565b6040516105f291906131cf565b60405180910390f35b34801561060757600080fd5b50610610611826565b60405161061d9190613744565b60405180910390f35b34801561063257600080fd5b5061064d60048036038101906106489190613766565b6118b4565b60405161065a919061354b565b60405180910390f35b34801561066f57600080fd5b5061068a60048036038101906106859190612ed7565b6118d8565b60405161069791906131cf565b60405180910390f35b3480156106ac57600080fd5b506106c760048036038101906106c29190613193565b611960565b6040516106d4919061300e565b60405180910390f35b3480156106e957600080fd5b506106f2611993565b6040516106ff919061351a565b60405180910390f35b34801561071457600080fd5b5061072f600480360381019061072a9190612ed7565b611a21565b60405161073c919061354b565b60405180910390f35b34801561075157600080fd5b5061076c60048036038101906107679190612ed7565b611a5a565b6040516107799190613477565b60405180910390f35b34801561078e57600080fd5b506107a960048036038101906107a49190613793565b611c3d565b6040516107b69190613477565b60405180910390f35b3480156107cb57600080fd5b506107d461209c565b6040516107e191906131cf565b60405180910390f35b3480156107f657600080fd5b50610811600480360381019061080c9190613193565b6120a2565b60405161081e9190613477565b60405180910390f35b34801561083357600080fd5b5061084e60048036038101906108499190613193565b6120c2565b60405161085b919061300e565b60405180910390f35b61087e600480360381019061087991906137d3565b6120f5565b60405161088c92919061383a565b60405180910390f35b3480156108a157600080fd5b506108bc60048036038101906108b791906137d3565b6123cd565b6040516108c9919061354b565b60405180910390f35b3480156108de57600080fd5b506108f960048036038101906108f49190613193565b61261a565b6040516109069190613477565b60405180910390f35b34801561091b57600080fd5b5061093660048036038101906109319190613193565b61263a565b60405161094391906131cf565b60405180910390f35b34801561095857600080fd5b50610973600480360381019061096e9190613566565b612652565b005b34801561098157600080fd5b5061099c60048036038101906109979190613766565b6126a8565b6040516109a9919061300e565b60405180910390f35b6045819080600181540180825580915050600190039060005260206000200160009091909190916101000a81548173ffffffffffffffffffffffffffffffffffffffff021916908373ffffffffffffffffffffffffffffffffffffffff16021790555050565b6000603360009054906101000a900473ffffffffffffffffffffffffffffffffffffffff1673ffffffffffffffffffffffffffffffffffffffff163373ffffffffffffffffffffffffffffffffffffffff1614610aaa576040517f08c379a0000000000000000000000000000000000000000000000000000000008152600401610aa1906138af565b60405180910390fd5b60026001541415610af0576040517f08c379a0000000000000000000000000000000000000000000000000000000008152600401610ae79061391b565b60405180910390fd5b600260018190555060006001811115610b0c57610b0b6133ca565b5b3073ffffffffffffffffffffffffffffffffffffffff1663200d2ed26040518163ffffffff1660e01b8152600401602060405180830381865afa158015610b57573d6000803e3d6000fd5b505050506040513d601f19601f82011682018060405250810190610b7b9190613960565b6001811115610b8d57610b8c6133ca565b5b14610bcd576040517f08c379a0000000000000000000000000000000000000000000000000000000008152600401610bc4906139d9565b60405180910390fd5b603760009054906101000a900473ffffffffffffffffffffffffffffffffffffffff1673ffffffffffffffffffffffffffffffffffffffff163373ffffffffffffffffffffffffffffffffffffffff1614610c2757600080fd5b60006044600086815260200190815260200160002060009054906101000a900473ffffffffffffffffffffffffffffffffffffffff16905080915050600180819055509392505050565b60007f150b7a023d4804d13e8c85fb27262cb750cf6ba9f9dd3bb30d90f482ceeb4b1f905095945050505050565b603c6020528060005260406000206000915090505481565b603760009054906101000a900473ffffffffffffffffffffffffffffffffffffffff1681565b600060019054906101000a900460ff16610d055760008054906101000a900460ff1615610d0e565b610d0d6126e7565b5b610d4d576040517f08c379a0000000000000000000000000000000000000000000000000000000008152600401610d4490613a6b565b60405180910390fd5b60008060019054906101000a900460ff161590508015610d9d576001600060016101000a81548160ff02191690831515021790555060016000806101000a81548160ff0219169083151502179055505b600085511415610de2576040517f08c379a0000000000000000000000000000000000000000000000000000000008152600401610dd990613ad7565b60405180910390fd5b600083511415610e27576040517f08c379a0000000000000000000000000000000000000000000000000000000008152600401610e1e90613b43565b60405180910390fd5b8460349080519060200190610e3d929190612dc2565b5083603760006101000a81548173ffffffffffffffffffffffffffffffffffffffff021916908373ffffffffffffffffffffffffffffffffffffffff1602179055508260389080519060200190610e95929190612dc2565b5081603360006101000a81548173ffffffffffffffffffffffffffffffffffffffff021916908373ffffffffffffffffffffffffffffffffffffffff16021790555042603581905550610ee66126f8565b8015610f075760008060016101000a81548160ff0219169083151502179055505b5050505050565b603960149054906101000a900460ff1681565b60436020528060005260406000206000915054906101000a900460ff1681565b60388054610f4e90613b92565b80601f0160208091040260200160405190810160405280929190818152602001828054610f7a90613b92565b8015610fc75780601f10610f9c57610100808354040283529160200191610fc7565b820191906000526020600020905b815481529060010190602001808311610faa57829003601f168201915b505050505081565b60426020528060005260406000206000915090505481565b603a6020528060005260406000206000915054906101000a900473ffffffffffffffffffffffffffffffffffffffff1681565b6000603360009054906101000a900473ffffffffffffffffffffffffffffffffffffffff1673ffffffffffffffffffffffffffffffffffffffff163373ffffffffffffffffffffffffffffffffffffffff16146110ac576040517f08c379a00000000000000000000000000000000000000000000000000000000081526004016110a3906138af565b60405180910390fd5b600260015414156110f2576040517f08c379a00000000000000000000000000000000000000000000000000000000081526004016110e99061391b565b60405180910390fd5b60026001819055506000600181111561110e5761110d6133ca565b5b3073ffffffffffffffffffffffffffffffffffffffff1663200d2ed26040518163ffffffff1660e01b8152600401602060405180830381865afa158015611159573d6000803e3d6000fd5b505050506040513d601f19601f8201168201806040525081019061117d9190613960565b600181111561118f5761118e6133ca565b5b146111cf576040517f08c379a00000000000000000000000000000000000000000000000000000000081526004016111c690613c10565b60405180910390fd5b60006111da33611a21565b9050336044600083815260200190815260200160002060006101000a81548173ffffffffffffffffffffffffffffffffffffffff021916908373ffffffffffffffffffffffffffffffffffffffff1602179055506045339080600181540180825580915050600190039060005260206000200160009091909190916101000a81548173ffffffffffffffffffffffffffffffffffffffff021916908373ffffffffffffffffffffffffffffffffffffffff160217905550809150506001808190555090565b6000603360009054906101000a900473ffffffffffffffffffffffffffffffffffffffff1673ffffffffffffffffffffffffffffffffffffffff163373ffffffffffffffffffffffffffffffffffffffff1614611331576040517f08c379a0000000000000000000000000000000000000000000000000000000008152600401611328906138af565b60405180910390fd5b60026001541415611377576040517f08c379a000000000000000000000000000000000000000000000000000000000815260040161136e9061391b565b60405180910390fd5b600260018190555060001515603e600085815260200190815260200160002060009054906101000a900460ff161515146113e6576040517f08c379a00000000000000000000000000000000000000000000000000000000081526004016113dd90613c7c565b60405180910390fd5b8173ffffffffffffffffffffffffffffffffffffffff16603a600085815260200190815260200160002060009054906101000a900473ffffffffffffffffffffffffffffffffffffffff1673ffffffffffffffffffffffffffffffffffffffff1614611487576040517f08c379a000000000000000000000000000000000000000000000000000000000815260040161147e90613ce8565b60405180910390fd5b6114c06042600085815260200190815260200160002054603d60008681526020019081526020016000205461275190919063ffffffff16565b421015611502576040517f08c379a00000000000000000000000000000000000000000000000000000000081526004016114f990613d54565b60405180910390fd5b6001603e600085815260200190815260200160002060006101000a81548160ff021916908315150217905550600073ffffffffffffffffffffffffffffffffffffffff16603b600085815260200190815260200160002060009054906101000a900473ffffffffffffffffffffffffffffffffffffffff1673ffffffffffffffffffffffffffffffffffffffff1614156115eb576115e6603a600085815260200190815260200160002060009054906101000a900473ffffffffffffffffffffffffffffffffffffffff16603c600086815260200190815260200160002054612767565b611720565b6043600084815260200190815260200160002060009054906101000a900460ff161561169a57611695603b600085815260200190815260200160002060009054906101000a900473ffffffffffffffffffffffffffffffffffffffff16603a600086815260200190815260200160002060009054906101000a900473ffffffffffffffffffffffffffffffffffffffff1660416000878152602001908152602001600020546127b2565b61171f565b61171e603b600085815260200190815260200160002060009054906101000a900473ffffffffffffffffffffffffffffffffffffffff16603a600086815260200190815260200160002060009054906101000a900473ffffffffffffffffffffffffffffffffffffffff16603c60008781526020019081526020016000205461282c565b5b5b600190506001808190555092915050565b6060604680548060200260200160405190810160405280929190818152602001828054801561177f57602002820191906000526020600020905b81548152602001906001019080831161176b575b5050505050905090565b603960009054906101000a900473ffffffffffffffffffffffffffffffffffffffff1681565b603360009054906101000a900473ffffffffffffffffffffffffffffffffffffffff1681565b603d6020528060005260406000206000915090505481565b603b6020528060005260406000206000915054906101000a900473ffffffffffffffffffffffffffffffffffffffff1681565b60355481565b606060458054806020026020016040519081016040528092919081815260200182805480156118aa57602002820191906000526020600020905b8160009054906101000a900473ffffffffffffffffffffffffffffffffffffffff1673ffffffffffffffffffffffffffffffffffffffff1681526020019060010190808311611860575b5050505050905090565b604681815481106118c457600080fd5b906000526020600020016000915090505481565b6000808290508073ffffffffffffffffffffffffffffffffffffffff166370a08231306040518263ffffffff1660e01b8152600401611917919061300e565b602060405180830381865afa158015611934573d6000803e3d6000fd5b505050506040513d601f19601f820116820180604052508101906119589190613d89565b915050919050565b60406020528060005260406000206000915054906101000a900473ffffffffffffffffffffffffffffffffffffffff1681565b603480546119a090613b92565b80601f01602080910402602001604051908101604052809291908181526020018280546119cc90613b92565b8015611a195780601f106119ee57610100808354040283529160200191611a19565b820191906000526020600020905b8154815290600101906020018083116119fc57829003601f168201915b505050505081565b60008160458054905042604051602001611a3d93929190613db6565b604051602081830303815290604052805190602001209050919050565b6000603360009054906101000a900473ffffffffffffffffffffffffffffffffffffffff1673ffffffffffffffffffffffffffffffffffffffff163373ffffffffffffffffffffffffffffffffffffffff1614611aec576040517f08c379a0000000000000000000000000000000000000000000000000000000008152600401611ae3906138af565b60405180910390fd5b60006001811115611b0057611aff6133ca565b5b3073ffffffffffffffffffffffffffffffffffffffff1663200d2ed26040518163ffffffff1660e01b8152600401602060405180830381865afa158015611b4b573d6000803e3d6000fd5b505050506040513d601f19601f82011682018060405250810190611b6f9190613960565b6001811115611b8157611b806133ca565b5b14611bc1576040517f08c379a0000000000000000000000000000000000000000000000000000000008152600401611bb890613e39565b60405180910390fd5b6001603960146101000a81548160ff02191690836001811115611be757611be66133ca565b5b021790555081603960006101000a81548173ffffffffffffffffffffffffffffffffffffffff021916908373ffffffffffffffffffffffffffffffffffffffff1602179055504260368190555060019050919050565b6000603360009054906101000a900473ffffffffffffffffffffffffffffffffffffffff1673ffffffffffffffffffffffffffffffffffffffff163373ffffffffffffffffffffffffffffffffffffffff1614611ccf576040517f08c379a0000000000000000000000000000000000000000000000000000000008152600401611cc6906138af565b60405180910390fd5b60026001541415611d15576040517f08c379a0000000000000000000000000000000000000000000000000000000008152600401611d0c9061391b565b60405180910390fd5b600260018190555060006001811115611d3157611d306133ca565b5b3073ffffffffffffffffffffffffffffffffffffffff1663200d2ed26040518163ffffffff1660e01b8152600401602060405180830381865afa158015611d7c573d6000803e3d6000fd5b505050506040513d601f19601f82011682018060405250810190611da09190613960565b6001811115611db257611db16133ca565b5b14611df2576040517f08c379a0000000000000000000000000000000000000000000000000000000008152600401611de990613ea5565b60405180910390fd5b603e600083815260200190815260200160002060009054906101000a900460ff1615611e53576040517f08c379a0000000000000000000000000000000000000000000000000000000008152600401611e4a90613f11565b60405180910390fd5b603f600083815260200190815260200160002060009054906101000a900460ff1615611eb4576040517f08c379a0000000000000000000000000000000000000000000000000000000008152600401611eab90613f7d565b60405180910390fd5b600073ffffffffffffffffffffffffffffffffffffffff16603b600084815260200190815260200160002060009054906101000a900473ffffffffffffffffffffffffffffffffffffffff1673ffffffffffffffffffffffffffffffffffffffff161415611f3e57611f3983603c600085815260200190815260200160002054612767565b61200d565b6043600083815260200190815260200160002060009054906101000a900460ff1615611fba57611fb5603b600084815260200190815260200160002060009054906101000a900473ffffffffffffffffffffffffffffffffffffffff168460416000868152602001908152602001600020546127b2565b61200c565b61200b603b600084815260200190815260200160002060009054906101000a900473ffffffffffffffffffffffffffffffffffffffff1684603c60008681526020019081526020016000205461282c565b5b5b6001603f600084815260200190815260200160002060006101000a81548160ff021916908315150217905550826040600084815260200190815260200160002060006101000a81548173ffffffffffffffffffffffffffffffffffffffff021916908373ffffffffffffffffffffffffffffffffffffffff160217905550600190506001808190555092915050565b60365481565b603f6020528060005260406000206000915054906101000a900460ff1681565b60446020528060005260406000206000915054906101000a900473ffffffffffffffffffffffffffffffffffffffff1681565b600080603360009054906101000a900473ffffffffffffffffffffffffffffffffffffffff1673ffffffffffffffffffffffffffffffffffffffff163373ffffffffffffffffffffffffffffffffffffffff1614612188576040517f08c379a000000000000000000000000000000000000000000000000000000000815260040161217f906138af565b60405180910390fd5b600260015414156121ce576040517f08c379a00000000000000000000000000000000000000000000000000000000081526004016121c59061391b565b60405180910390fd5b6002600181905550600084141561221a576040517f08c379a000000000000000000000000000000000000000000000000000000000815260040161221190613fe9565b60405180910390fd5b60006122268787612862565b905060008073ffffffffffffffffffffffffffffffffffffffff168773ffffffffffffffffffffffffffffffffffffffff16141561226657349050612274565b61227187898861289c565b90505b87603a600084815260200190815260200160002060006101000a81548173ffffffffffffffffffffffffffffffffffffffff021916908373ffffffffffffffffffffffffffffffffffffffff16021790555086603b600084815260200190815260200160002060006101000a81548173ffffffffffffffffffffffffffffffffffffffff021916908373ffffffffffffffffffffffffffffffffffffffff16021790555080603c60008481526020019081526020016000208190555042603d60008481526020019081526020016000208190555084604260008481526020019081526020016000208190555060006043600084815260200190815260200160002060006101000a81548160ff021916908315150217905550604682908060018154018082558091505060019003906000526020600020016000909190919091505581819350935050506001808190555094509492505050565b6000603360009054906101000a900473ffffffffffffffffffffffffffffffffffffffff1673ffffffffffffffffffffffffffffffffffffffff163373ffffffffffffffffffffffffffffffffffffffff161461245f576040517f08c379a0000000000000000000000000000000000000000000000000000000008152600401612456906138af565b60405180910390fd5b600260015414156124a5576040517f08c379a000000000000000000000000000000000000000000000000000000000815260040161249c9061391b565b60405180910390fd5b60026001819055506124b884868561294b565b60006124c48686612862565b905085603a600083815260200190815260200160002060006101000a81548173ffffffffffffffffffffffffffffffffffffffff021916908373ffffffffffffffffffffffffffffffffffffffff16021790555084603b600083815260200190815260200160002060006101000a81548173ffffffffffffffffffffffffffffffffffffffff021916908373ffffffffffffffffffffffffffffffffffffffff16021790555042603d60008381526020019081526020016000208190555083604160008381526020019081526020016000208190555082604260008381526020019081526020016000208190555060016043600083815260200190815260200160002060006101000a81548160ff02191690831515021790555060468190806001815401808255809150506001900390600052602060002001600090919091909150558091505060018081905550949350505050565b603e6020528060005260406000206000915054906101000a900460ff1681565b60416020528060005260406000206000915090505481565b806044600084815260200190815260200160002060006101000a81548173ffffffffffffffffffffffffffffffffffffffff021916908373ffffffffffffffffffffffffffffffffffffffff1602179055505050565b604581815481106126b857600080fd5b906000526020600020016000915054906101000a900473ffffffffffffffffffffffffffffffffffffffff1681565b60006126f2306129c5565b15905090565b600060019054906101000a900460ff16612747576040517f08c379a000000000000000000000000000000000000000000000000000000000815260040161273e9061407b565b60405180910390fd5b61274f6129d8565b565b6000818361275f91906140ca565b905092915050565b8173ffffffffffffffffffffffffffffffffffffffff166108fc829081150290604051600060405180830381858888f193505050501580156127ad573d6000803e3d6000fd5b505050565b60008390508073ffffffffffffffffffffffffffffffffffffffff166342842e0e3085856040518463ffffffff1660e01b81526004016127f493929190614120565b600060405180830381600087803b15801561280e57600080fd5b505af1158015612822573d6000803e3d6000fd5b5050505050505050565b600083905061285c83838373ffffffffffffffffffffffffffffffffffffffff16612a309092919063ffffffff16565b50505050565b6000828260468054905060405160200161287e93929190614120565b60405160208183030381529060405280519060200120905092915050565b6000806128a8856118d8565b905060008590506128dc8530868473ffffffffffffffffffffffffffffffffffffffff16612ab6909392919063ffffffff16565b60006128e7876118d8565b90508281101561292c576040517f08c379a0000000000000000000000000000000000000000000000000000000008152600401612923906141a3565b60405180910390fd5b61293f8382612b3f90919063ffffffff16565b93505050509392505050565b60008390508073ffffffffffffffffffffffffffffffffffffffff166342842e0e8430856040518463ffffffff1660e01b815260040161298d93929190614120565b600060405180830381600087803b1580156129a757600080fd5b505af11580156129bb573d6000803e3d6000fd5b5050505050505050565b600080823b905060008111915050919050565b600060019054906101000a900460ff16612a27576040517f08c379a0000000000000000000000000000000000000000000000000000000008152600401612a1e9061407b565b60405180910390fd5b60018081905550565b612ab18363a9059cbb60e01b8484604051602401612a4f9291906141c3565b604051602081830303815290604052907bffffffffffffffffffffffffffffffffffffffffffffffffffffffff19166020820180517bffffffffffffffffffffffffffffffffffffffffffffffffffffffff8381831617835250505050612b55565b505050565b612b39846323b872dd60e01b858585604051602401612ad793929190614120565b604051602081830303815290604052907bffffffffffffffffffffffffffffffffffffffffffffffffffffffff19166020820180517bffffffffffffffffffffffffffffffffffffffffffffffffffffffff8381831617835250505050612b55565b50505050565b60008183612b4d91906141ec565b905092915050565b6000612bb7826040518060400160405280602081526020017f5361666545524332303a206c6f772d6c6576656c2063616c6c206661696c65648152508573ffffffffffffffffffffffffffffffffffffffff16612c1c9092919063ffffffff16565b9050600081511115612c175780806020019051810190612bd7919061424c565b612c16576040517f08c379a0000000000000000000000000000000000000000000000000000000008152600401612c0d906142eb565b60405180910390fd5b5b505050565b6060612c2b8484600085612c34565b90509392505050565b606082471015612c79576040517f08c379a0000000000000000000000000000000000000000000000000000000008152600401612c709061437d565b60405180910390fd5b612c8285612d48565b612cc1576040517f08c379a0000000000000000000000000000000000000000000000000000000008152600401612cb8906143e9565b60405180910390fd5b6000808673ffffffffffffffffffffffffffffffffffffffff168587604051612cea9190614450565b60006040518083038185875af1925050503d8060008114612d27576040519150601f19603f3d011682016040523d82523d6000602084013e612d2c565b606091505b5091509150612d3c828286612d5b565b92505050949350505050565b600080823b905060008111915050919050565b60608315612d6b57829050612dbb565b600083511115612d7e5782518084602001fd5b816040517f08c379a0000000000000000000000000000000000000000000000000000000008152600401612db2919061351a565b60405180910390fd5b9392505050565b828054612dce90613b92565b90600052602060002090601f016020900481019282612df05760008555612e37565b82601f10612e0957805160ff1916838001178555612e37565b82800160010185558215612e37579182015b82811115612e36578251825591602001919060010190612e1b565b5b509050612e449190612e48565b5090565b5b80821115612e61576000816000905550600101612e49565b5090565b6000604051905090565b600080fd5b600080fd5b600073ffffffffffffffffffffffffffffffffffffffff82169050919050565b6000612ea482612e79565b9050919050565b612eb481612e99565b8114612ebf57600080fd5b50565b600081359050612ed181612eab565b92915050565b600060208284031215612eed57612eec612e6f565b5b6000612efb84828501612ec2565b91505092915050565b6000819050919050565b612f1781612f04565b8114612f2257600080fd5b50565b600081359050612f3481612f0e565b92915050565b600080fd5b600080fd5b600080fd5b60008083601f840112612f5f57612f5e612f3a565b5b8235905067ffffffffffffffff811115612f7c57612f7b612f3f565b5b602083019150836001820283011115612f9857612f97612f44565b5b9250929050565b600080600060408486031215612fb857612fb7612e6f565b5b6000612fc686828701612f25565b935050602084013567ffffffffffffffff811115612fe757612fe6612e74565b5b612ff386828701612f49565b92509250509250925092565b61300881612e99565b82525050565b60006020820190506130236000830184612fff565b92915050565b6000819050919050565b61303c81613029565b811461304757600080fd5b50565b60008135905061305981613033565b92915050565b60008083601f84011261307557613074612f3a565b5b8235905067ffffffffffffffff81111561309257613091612f3f565b5b6020830191508360018202830111156130ae576130ad612f44565b5b9250929050565b6000806000806000608086880312156130d1576130d0612e6f565b5b60006130df88828901612ec2565b95505060206130f088828901612ec2565b94505060406131018882890161304a565b935050606086013567ffffffffffffffff81111561312257613121612e74565b5b61312e8882890161305f565b92509250509295509295909350565b60007fffffffff0000000000000000000000000000000000000000000000000000000082169050919050565b6131728161313d565b82525050565b600060208201905061318d6000830184613169565b92915050565b6000602082840312156131a9576131a8612e6f565b5b60006131b784828501612f25565b91505092915050565b6131c981613029565b82525050565b60006020820190506131e460008301846131c0565b92915050565b600080fd5b6000601f19601f8301169050919050565b7f4e487b7100000000000000000000000000000000000000000000000000000000600052604160045260246000fd5b613238826131ef565b810181811067ffffffffffffffff8211171561325757613256613200565b5b80604052505050565b600061326a612e65565b9050613276828261322f565b919050565b600067ffffffffffffffff82111561329657613295613200565b5b61329f826131ef565b9050602081019050919050565b82818337600083830152505050565b60006132ce6132c98461327b565b613260565b9050828152602081018484840111156132ea576132e96131ea565b5b6132f58482856132ac565b509392505050565b600082601f83011261331257613311612f3a565b5b81356133228482602086016132bb565b91505092915050565b6000806000806080858703121561334557613344612e6f565b5b600085013567ffffffffffffffff81111561336357613362612e74565b5b61336f878288016132fd565b945050602061338087828801612ec2565b935050604085013567ffffffffffffffff8111156133a1576133a0612e74565b5b6133ad878288016132fd565b92505060606133be87828801612ec2565b91505092959194509250565b7f4e487b7100000000000000000000000000000000000000000000000000000000600052602160045260246000fd5b6002811061340a576134096133ca565b5b50565b600081905061341b826133f9565b919050565b600061342b8261340d565b9050919050565b61343b81613420565b82525050565b60006020820190506134566000830184613432565b92915050565b60008115159050919050565b6134718161345c565b82525050565b600060208201905061348c6000830184613468565b92915050565b600081519050919050565b600082825260208201905092915050565b60005b838110156134cc5780820151818401526020810190506134b1565b838111156134db576000848401525b50505050565b60006134ec82613492565b6134f6818561349d565b93506135068185602086016134ae565b61350f816131ef565b840191505092915050565b6000602082019050818103600083015261353481846134e1565b905092915050565b61354581612f04565b82525050565b6000602082019050613560600083018461353c565b92915050565b6000806040838503121561357d5761357c612e6f565b5b600061358b85828601612f25565b925050602061359c85828601612ec2565b9150509250929050565b600081519050919050565b600082825260208201905092915050565b6000819050602082019050919050565b6135db81612f04565b82525050565b60006135ed83836135d2565b60208301905092915050565b6000602082019050919050565b6000613611826135a6565b61361b81856135b1565b9350613626836135c2565b8060005b8381101561365757815161363e88826135e1565b9750613649836135f9565b92505060018101905061362a565b5085935050505092915050565b6000602082019050818103600083015261367e8184613606565b905092915050565b600081519050919050565b600082825260208201905092915050565b6000819050602082019050919050565b6136bb81612e99565b82525050565b60006136cd83836136b2565b60208301905092915050565b6000602082019050919050565b60006136f182613686565b6136fb8185613691565b9350613706836136a2565b8060005b8381101561373757815161371e88826136c1565b9750613729836136d9565b92505060018101905061370a565b5085935050505092915050565b6000602082019050818103600083015261375e81846136e6565b905092915050565b60006020828403121561377c5761377b612e6f565b5b600061378a8482850161304a565b91505092915050565b600080604083850312156137aa576137a9612e6f565b5b60006137b885828601612ec2565b92505060206137c985828601612f25565b9150509250929050565b600080600080608085870312156137ed576137ec612e6f565b5b60006137fb87828801612ec2565b945050602061380c87828801612ec2565b935050604061381d8782880161304a565b925050606061382e8782880161304a565b91505092959194509250565b600060408201905061384f600083018561353c565b61385c60208301846131c0565b9392505050565b7f4d6574686f64206973206f6e6c792063616c6c61626c65206279204f70656e51600082015250565b600061389960208361349d565b91506138a482613863565b602082019050919050565b600060208201905081810360008301526138c88161388c565b9050919050565b7f5265656e7472616e637947756172643a207265656e7472616e742063616c6c00600082015250565b6000613905601f8361349d565b9150613910826138cf565b602082019050919050565b60006020820190508181036000830152613934816138f8565b9050919050565b6002811061394857600080fd5b50565b60008151905061395a8161393b565b92915050565b60006020828403121561397657613975612e6f565b5b60006139848482850161394b565b91505092915050565b7f4a554447494e475f434c4f5345445f424f554e54590000000000000000000000600082015250565b60006139c360158361349d565b91506139ce8261398d565b602082019050919050565b600060208201905081810360008301526139f2816139b6565b9050919050565b7f496e697469616c697a61626c653a20636f6e747261637420697320616c72656160008201527f647920696e697469616c697a6564000000000000000000000000000000000000602082015250565b6000613a55602e8361349d565b9150613a60826139f9565b604082019050919050565b60006020820190508181036000830152613a8481613a48565b9050919050565b7f4e4f5f454d5054595f424f554e54595f49440000000000000000000000000000600082015250565b6000613ac160128361349d565b9150613acc82613a8b565b602082019050919050565b60006020820190508181036000830152613af081613ab4565b9050919050565b7f4e4f5f454d5054595f4f5247414e495a4154494f4e0000000000000000000000600082015250565b6000613b2d60158361349d565b9150613b3882613af7565b602082019050919050565b60006020820190508181036000830152613b5c81613b20565b9050919050565b7f4e487b7100000000000000000000000000000000000000000000000000000000600052602260045260246000fd5b60006002820490506001821680613baa57607f821691505b60208210811415613bbe57613bbd613b63565b5b50919050565b7f434c4f5345445f424f554e545900000000000000000000000000000000000000600082015250565b6000613bfa600d8361349d565b9150613c0582613bc4565b602082019050919050565b60006020820190508181036000830152613c2981613bed565b9050919050565b7f424f554e54595f414c52454144595f524546554e444544000000000000000000600082015250565b6000613c6660178361349d565b9150613c7182613c30565b602082019050919050565b60006020820190508181036000830152613c9581613c59565b9050919050565b7f4f4e4c595f46554e4445525f43414e5f524551554553545f524546554e440000600082015250565b6000613cd2601e8361349d565b9150613cdd82613c9c565b602082019050919050565b60006020820190508181036000830152613d0181613cc5565b9050919050565b7f5052454d41545552455f524546554e445f524551554553540000000000000000600082015250565b6000613d3e60188361349d565b9150613d4982613d08565b602082019050919050565b60006020820190508181036000830152613d6d81613d31565b9050919050565b600081519050613d8381613033565b92915050565b600060208284031215613d9f57613d9e612e6f565b5b6000613dad84828501613d74565b91505092915050565b6000606082019050613dcb6000830186612fff565b613dd860208301856131c0565b613de560408301846131c0565b949350505050565b7f434c4f53494e475f434c4f5345445f424f554e54590000000000000000000000600082015250565b6000613e2360158361349d565b9150613e2e82613ded565b602082019050919050565b60006020820190508181036000830152613e5281613e16565b9050919050565b7f434c41494d494e475f434c4f5345445f424f554e545900000000000000000000600082015250565b6000613e8f60168361349d565b9150613e9a82613e59565b602082019050919050565b60006020820190508181036000830152613ebe81613e82565b9050919050565b7f434c41494d494e475f524546554e4445445f4445504f53495400000000000000600082015250565b6000613efb60198361349d565b9150613f0682613ec5565b602082019050919050565b60006020820190508181036000830152613f2a81613eee565b9050919050565b7f434c41494d494e475f434c41494d45445f4445504f5349540000000000000000600082015250565b6000613f6760188361349d565b9150613f7282613f31565b602082019050919050565b60006020820190508181036000830152613f9681613f5a565b9050919050565b7f5a45524f5f564f4c554d455f53454e5400000000000000000000000000000000600082015250565b6000613fd360108361349d565b9150613fde82613f9d565b602082019050919050565b6000602082019050818103600083015261400281613fc6565b9050919050565b7f496e697469616c697a61626c653a20636f6e7472616374206973206e6f74206960008201527f6e697469616c697a696e67000000000000000000000000000000000000000000602082015250565b6000614065602b8361349d565b915061407082614009565b604082019050919050565b6000602082019050818103600083015261409481614058565b9050919050565b7f4e487b7100000000000000000000000000000000000000000000000000000000600052601160045260246000fd5b60006140d582613029565b91506140e083613029565b9250827fffffffffffffffffffffffffffffffffffffffffffffffffffffffffffffffff038211156141155761411461409b565b5b828201905092915050565b60006060820190506141356000830186612fff565b6141426020830185612fff565b61414f60408301846131c0565b949350505050565b7f544f4b454e5f5452414e534645525f494e5f4f564552464c4f57000000000000600082015250565b600061418d601a8361349d565b915061419882614157565b602082019050919050565b600060208201905081810360008301526141bc81614180565b9050919050565b60006040820190506141d86000830185612fff565b6141e560208301846131c0565b9392505050565b60006141f782613029565b915061420283613029565b9250828210156142155761421461409b565b5b828203905092915050565b6142298161345c565b811461423457600080fd5b50565b60008151905061424681614220565b92915050565b60006020828403121561426257614261612e6f565b5b600061427084828501614237565b91505092915050565b7f5361666545524332303a204552433230206f7065726174696f6e20646964206e60008201527f6f74207375636365656400000000000000000000000000000000000000000000602082015250565b60006142d5602a8361349d565b91506142e082614279565b604082019050919050565b60006020820190508181036000830152614304816142c8565b9050919050565b7f416464726573733a20696e73756666696369656e742062616c616e636520666f60008201527f722063616c6c0000000000000000000000000000000000000000000000000000602082015250565b600061436760268361349d565b91506143728261430b565b604082019050919050565b600060208201905081810360008301526143968161435a565b9050919050565b7f416464726573733a2063616c6c20746f206e6f6e2d636f6e7472616374000000600082015250565b60006143d3601d8361349d565b91506143de8261439d565b602082019050919050565b60006020820190508181036000830152614402816143c6565b9050919050565b600081519050919050565b600081905092915050565b600061442a82614409565b6144348185614414565b93506144448185602086016134ae565b80840191505092915050565b600061445c828461441f565b91508190509291505056fea2646970667358221220a5db90a04c08dca94958a7e33a52851d648b90e92f8d28a6e7e5c301ff43913e64736f6c634300080b0033",
  "linkReferences": {},
  "deployedLinkReferences": {}
}