{
  "_format": "hh-sol-artifact-1",
  "contractName": "BountyV0",
  "sourceName": "contracts/Bounty/Implementations/BountyV0.sol",
  "abi": [
    {
      "stateMutability": "nonpayable",
      "type": "fallback"
    },
    {
      "inputs": [
        {
          "internalType": "address",
          "name": "_sender",
          "type": "address"
        }
      ],
      "name": "_generateSubmissionId",
      "outputs": [
        {
          "internalType": "bytes32",
          "name": "",
          "type": "bytes32"
        }
      ],
      "stateMutability": "view",
      "type": "function"
    },
    {
      "inputs": [
        {
          "internalType": "address",
          "name": "submitter",
          "type": "address"
        }
      ],
      "name": "addSubmitter",
      "outputs": [],
      "stateMutability": "nonpayable",
      "type": "function"
    },
    {
      "inputs": [],
      "name": "bountyClosedTime",
      "outputs": [
        {
          "internalType": "uint256",
          "name": "",
          "type": "uint256"
        }
      ],
      "stateMutability": "view",
      "type": "function"
    },
    {
      "inputs": [],
      "name": "bountyCreatedTime",
      "outputs": [
        {
          "internalType": "uint256",
          "name": "",
          "type": "uint256"
        }
      ],
      "stateMutability": "view",
      "type": "function"
    },
    {
      "inputs": [],
      "name": "bountyId",
      "outputs": [
        {
          "internalType": "string",
          "name": "",
          "type": "string"
        }
      ],
      "stateMutability": "view",
      "type": "function"
    },
    {
      "inputs": [
        {
          "internalType": "address",
          "name": "_payoutAddress",
          "type": "address"
        },
        {
          "internalType": "bytes32",
          "name": "depositId",
          "type": "bytes32"
        }
      ],
      "name": "claim",
      "outputs": [
        {
          "internalType": "bool",
          "name": "success",
          "type": "bool"
        }
      ],
      "stateMutability": "nonpayable",
      "type": "function"
    },
    {
      "inputs": [
        {
          "internalType": "bytes32",
          "name": "",
          "type": "bytes32"
        }
      ],
      "name": "claimed",
      "outputs": [
        {
          "internalType": "bool",
          "name": "",
          "type": "bool"
        }
      ],
      "stateMutability": "view",
      "type": "function"
    },
    {
      "inputs": [
        {
          "internalType": "address",
          "name": "_payoutAddress",
          "type": "address"
        }
      ],
      "name": "close",
      "outputs": [
        {
          "internalType": "bool",
          "name": "success",
          "type": "bool"
        }
      ],
      "stateMutability": "nonpayable",
      "type": "function"
    },
    {
      "inputs": [],
      "name": "closer",
      "outputs": [
        {
          "internalType": "address",
          "name": "",
          "type": "address"
        }
      ],
      "stateMutability": "view",
      "type": "function"
    },
    {
      "inputs": [
        {
          "internalType": "bytes32",
          "name": "",
          "type": "bytes32"
        }
      ],
      "name": "depositTime",
      "outputs": [
        {
          "internalType": "uint256",
          "name": "",
          "type": "uint256"
        }
      ],
      "stateMutability": "view",
      "type": "function"
    },
    {
      "inputs": [
        {
          "internalType": "uint256",
          "name": "",
          "type": "uint256"
        }
      ],
      "name": "deposits",
      "outputs": [
        {
          "internalType": "bytes32",
          "name": "",
          "type": "bytes32"
        }
      ],
      "stateMutability": "view",
      "type": "function"
    },
    {
      "inputs": [
        {
          "internalType": "bytes32",
          "name": "",
          "type": "bytes32"
        }
      ],
      "name": "expiration",
      "outputs": [
        {
          "internalType": "uint256",
          "name": "",
          "type": "uint256"
        }
      ],
      "stateMutability": "view",
      "type": "function"
    },
    {
      "inputs": [
        {
          "internalType": "bytes32",
          "name": "",
          "type": "bytes32"
        }
      ],
      "name": "funder",
      "outputs": [
        {
          "internalType": "address",
          "name": "",
          "type": "address"
        }
      ],
      "stateMutability": "view",
      "type": "function"
    },
    {
      "inputs": [],
      "name": "getDeposits",
      "outputs": [
        {
          "internalType": "bytes32[]",
          "name": "",
          "type": "bytes32[]"
        }
      ],
      "stateMutability": "view",
      "type": "function"
    },
    {
      "inputs": [
        {
          "internalType": "address",
          "name": "_tokenAddress",
          "type": "address"
        }
      ],
      "name": "getERC20Balance",
      "outputs": [
        {
          "internalType": "uint256",
          "name": "balance",
          "type": "uint256"
        }
      ],
      "stateMutability": "view",
      "type": "function"
    },
    {
      "inputs": [],
      "name": "getSubmitters",
      "outputs": [
        {
          "internalType": "address[]",
          "name": "",
          "type": "address[]"
        }
      ],
      "stateMutability": "view",
      "type": "function"
    },
    {
      "inputs": [
        {
          "internalType": "string",
          "name": "_bountyId",
          "type": "string"
        },
        {
          "internalType": "address",
          "name": "_issuer",
          "type": "address"
        },
        {
          "internalType": "string",
          "name": "_organization",
          "type": "string"
        },
        {
          "internalType": "address",
          "name": "_openQ",
          "type": "address"
        }
      ],
      "name": "initialize",
      "outputs": [],
      "stateMutability": "nonpayable",
      "type": "function"
    },
    {
      "inputs": [
        {
          "internalType": "bytes32",
          "name": "",
          "type": "bytes32"
        }
      ],
      "name": "isNFT",
      "outputs": [
        {
          "internalType": "bool",
          "name": "",
          "type": "bool"
        }
      ],
      "stateMutability": "view",
      "type": "function"
    },
    {
      "inputs": [],
      "name": "issuer",
      "outputs": [
        {
          "internalType": "address",
          "name": "",
          "type": "address"
        }
      ],
      "stateMutability": "view",
      "type": "function"
    },
    {
      "inputs": [
        {
          "internalType": "address",
          "name": "operator",
          "type": "address"
        },
        {
          "internalType": "address",
          "name": "from",
          "type": "address"
        },
        {
          "internalType": "uint256",
          "name": "tokenId",
          "type": "uint256"
        },
        {
          "internalType": "bytes",
          "name": "data",
          "type": "bytes"
        }
      ],
      "name": "onERC721Received",
      "outputs": [
        {
          "internalType": "bytes4",
          "name": "",
          "type": "bytes4"
        }
      ],
      "stateMutability": "nonpayable",
      "type": "function"
    },
    {
      "inputs": [],
      "name": "openQ",
      "outputs": [
        {
          "internalType": "address",
          "name": "",
          "type": "address"
        }
      ],
      "stateMutability": "view",
      "type": "function"
    },
    {
      "inputs": [],
      "name": "organization",
      "outputs": [
        {
          "internalType": "string",
          "name": "",
          "type": "string"
        }
      ],
      "stateMutability": "view",
      "type": "function"
    },
    {
      "inputs": [
        {
          "internalType": "bytes32",
          "name": "",
          "type": "bytes32"
        }
      ],
      "name": "payoutAddress",
      "outputs": [
        {
          "internalType": "address",
          "name": "",
          "type": "address"
        }
      ],
      "stateMutability": "view",
      "type": "function"
    },
    {
      "inputs": [
        {
          "internalType": "address",
          "name": "_funder",
          "type": "address"
        },
        {
          "internalType": "address",
          "name": "_tokenAddress",
          "type": "address"
        },
        {
          "internalType": "uint256",
          "name": "_volume",
          "type": "uint256"
        },
        {
          "internalType": "uint256",
          "name": "_expiration",
          "type": "uint256"
        }
      ],
      "name": "receiveFunds",
      "outputs": [
        {
          "internalType": "bytes32",
          "name": "",
          "type": "bytes32"
        },
        {
          "internalType": "uint256",
          "name": "",
          "type": "uint256"
        }
      ],
      "stateMutability": "payable",
      "type": "function"
    },
    {
      "inputs": [
        {
          "internalType": "address",
          "name": "_sender",
          "type": "address"
        },
        {
          "internalType": "address",
          "name": "_tokenAddress",
          "type": "address"
        },
        {
          "internalType": "uint256",
          "name": "_tokenId",
          "type": "uint256"
        },
        {
          "internalType": "uint256",
          "name": "_expiration",
          "type": "uint256"
        }
      ],
      "name": "receiveNft",
      "outputs": [
        {
          "internalType": "bytes32",
          "name": "",
          "type": "bytes32"
        }
      ],
      "stateMutability": "nonpayable",
      "type": "function"
    },
    {
      "inputs": [
        {
          "internalType": "bytes32",
          "name": "_depositId",
          "type": "bytes32"
        },
        {
          "internalType": "address",
          "name": "_funder",
          "type": "address"
        }
      ],
      "name": "refundDeposit",
      "outputs": [
        {
          "internalType": "bool",
          "name": "success",
          "type": "bool"
        }
      ],
      "stateMutability": "nonpayable",
      "type": "function"
    },
    {
      "inputs": [
        {
          "internalType": "bytes32",
          "name": "",
          "type": "bytes32"
        }
      ],
      "name": "refunded",
      "outputs": [
        {
          "internalType": "bool",
          "name": "",
          "type": "bool"
        }
      ],
      "stateMutability": "view",
      "type": "function"
    },
    {
      "inputs": [
        {
          "internalType": "bytes32",
          "name": "submissionId",
          "type": "bytes32"
        },
        {
          "internalType": "string",
          "name": "_bountyId",
          "type": "string"
        }
      ],
      "name": "select",
      "outputs": [
        {
          "internalType": "address",
          "name": "",
          "type": "address"
        }
      ],
      "stateMutability": "nonpayable",
      "type": "function"
    },
    {
      "inputs": [
        {
          "internalType": "bytes32",
          "name": "submittalId",
          "type": "bytes32"
        },
        {
          "internalType": "address",
          "name": "submitter",
          "type": "address"
        }
      ],
      "name": "setSubmittal",
      "outputs": [],
      "stateMutability": "nonpayable",
      "type": "function"
    },
    {
      "inputs": [],
      "name": "status",
      "outputs": [
        {
          "internalType": "enum Bounty.BountyStatus",
          "name": "",
          "type": "uint8"
        }
      ],
      "stateMutability": "view",
      "type": "function"
    },
    {
      "inputs": [
        {
          "internalType": "bytes32",
          "name": "",
          "type": "bytes32"
        }
      ],
      "name": "submissionIdToAddress",
      "outputs": [
        {
          "internalType": "address",
          "name": "",
          "type": "address"
        }
      ],
      "stateMutability": "view",
      "type": "function"
    },
    {
      "inputs": [],
      "name": "submit",
      "outputs": [
        {
          "internalType": "bytes32",
          "name": "",
          "type": "bytes32"
        }
      ],
      "stateMutability": "nonpayable",
      "type": "function"
    },
    {
      "inputs": [
        {
          "internalType": "uint256",
          "name": "",
          "type": "uint256"
        }
      ],
      "name": "submitters",
      "outputs": [
        {
          "internalType": "address",
          "name": "",
          "type": "address"
        }
      ],
      "stateMutability": "view",
      "type": "function"
    },
    {
      "inputs": [
        {
          "internalType": "bytes32",
          "name": "",
          "type": "bytes32"
        }
      ],
      "name": "tokenAddress",
      "outputs": [
        {
          "internalType": "address",
          "name": "",
          "type": "address"
        }
      ],
      "stateMutability": "view",
      "type": "function"
    },
    {
      "inputs": [
        {
          "internalType": "bytes32",
          "name": "",
          "type": "bytes32"
        }
      ],
      "name": "tokenId",
      "outputs": [
        {
          "internalType": "uint256",
          "name": "",
          "type": "uint256"
        }
      ],
      "stateMutability": "view",
      "type": "function"
    },
    {
      "inputs": [
        {
          "internalType": "bytes32",
          "name": "",
          "type": "bytes32"
        }
      ],
      "name": "volume",
      "outputs": [
        {
          "internalType": "uint256",
          "name": "",
          "type": "uint256"
        }
      ],
      "stateMutability": "view",
      "type": "function"
    },
    {
      "stateMutability": "payable",
      "type": "receive"
    }
  ],
  "bytecode": "0x608060405234801561001057600080fd5b50614484806100206000396000f3fe6080604052600436106102135760003560e01c8063995280b011610118578063cb4436b7116100a0578063e129b3331161006f578063e129b33314610895578063f05e0f7e146108d2578063f23217251461090f578063f888c8561461094c578063fc2db777146109755761021a565b8063cb4436b7146107bf578063cc3c0f06146107ea578063d2c83c0314610827578063d6fe0f44146108645761021a565b8063b99bb990116100e7578063b99bb990146106a0578063c17bd75e146106dd578063c435e2aa14610708578063c74073a114610745578063c8622c24146107825761021a565b8063995280b0146105d0578063ae4dac41146105fb578063b02c43d014610626578063b588d225146106635761021a565b806356406fa51161019b5780636b149d871161016a5780636b149d87146104d55780637044f282146105005780637dc81fa21461052b578063968b098f1461055657806397bb3ce9146105935761021a565b806356406fa5146103f357806359ba8344146104305780635bcb2fc61461046d578063641411f8146104985761021a565b80631d143848116101e25780631d1438481461030c5780631ecfacee14610337578063200d2ed214610360578063235b2b941461038b57806323bd4d7a146103c85761021a565b8063072900f91461022c5780630a2a34a514610255578063150b7a02146102925780631595eea4146102cf5761021a565b3661021a57005b34801561022657600080fd5b50600080fd5b34801561023857600080fd5b50610253600480360381019061024e9190612ef5565b6109b2565b005b34801561026157600080fd5b5061027c60048036038101906102779190612fbd565b610a18565b604051610289919061302c565b60405180910390f35b34801561029e57600080fd5b506102b960048036038101906102b491906130d3565b610c71565b6040516102c69190613196565b60405180910390f35b3480156102db57600080fd5b506102f660048036038101906102f191906131b1565b610c9f565b60405161030391906131ed565b60405180910390f35b34801561031857600080fd5b50610321610cb7565b60405161032e919061302c565b60405180910390f35b34801561034357600080fd5b5061035e60048036038101906103599190613349565b610cdd565b005b34801561036c57600080fd5b50610375610f0e565b604051610382919061345f565b60405180910390f35b34801561039757600080fd5b506103b260048036038101906103ad91906131b1565b610f21565b6040516103bf9190613495565b60405180910390f35b3480156103d457600080fd5b506103dd610f41565b6040516103ea9190613538565b60405180910390f35b3480156103ff57600080fd5b5061041a600480360381019061041591906131b1565b610fcf565b60405161042791906131ed565b60405180910390f35b34801561043c57600080fd5b50610457600480360381019061045291906131b1565b610fe7565b604051610464919061302c565b60405180910390f35b34801561047957600080fd5b5061048261101a565b60405161048f9190613569565b60405180910390f35b3480156104a457600080fd5b506104bf60048036038101906104ba9190613584565b61129f565b6040516104cc9190613495565b60405180910390f35b3480156104e157600080fd5b506104ea611731565b6040516104f79190613682565b60405180910390f35b34801561050c57600080fd5b50610515611789565b604051610522919061302c565b60405180910390f35b34801561053757600080fd5b506105406117af565b60405161054d919061302c565b60405180910390f35b34801561056257600080fd5b5061057d600480360381019061057891906131b1565b6117d5565b60405161058a91906131ed565b60405180910390f35b34801561059f57600080fd5b506105ba60048036038101906105b591906131b1565b6117ed565b6040516105c7919061302c565b60405180910390f35b3480156105dc57600080fd5b506105e5611820565b6040516105f291906131ed565b60405180910390f35b34801561060757600080fd5b50610610611826565b60405161061d9190613762565b60405180910390f35b34801561063257600080fd5b5061064d60048036038101906106489190613784565b6118b4565b60405161065a9190613569565b60405180910390f35b34801561066f57600080fd5b5061068a60048036038101906106859190612ef5565b6118d8565b60405161069791906131ed565b60405180910390f35b3480156106ac57600080fd5b506106c760048036038101906106c291906131b1565b611960565b6040516106d4919061302c565b60405180910390f35b3480156106e957600080fd5b506106f2611993565b6040516106ff9190613538565b60405180910390f35b34801561071457600080fd5b5061072f600480360381019061072a9190612ef5565b611a21565b60405161073c9190613569565b60405180910390f35b34801561075157600080fd5b5061076c60048036038101906107679190612ef5565b611a58565b6040516107799190613495565b60405180910390f35b34801561078e57600080fd5b506107a960048036038101906107a491906137b1565b611c3b565b6040516107b69190613495565b60405180910390f35b3480156107cb57600080fd5b506107d461209a565b6040516107e191906131ed565b60405180910390f35b3480156107f657600080fd5b50610811600480360381019061080c91906131b1565b6120a0565b60405161081e9190613495565b60405180910390f35b34801561083357600080fd5b5061084e600480360381019061084991906131b1565b6120c0565b60405161085b919061302c565b60405180910390f35b61087e600480360381019061087991906137f1565b6120f3565b60405161088c929190613858565b60405180910390f35b3480156108a157600080fd5b506108bc60048036038101906108b791906137f1565b6123cb565b6040516108c99190613569565b60405180910390f35b3480156108de57600080fd5b506108f960048036038101906108f491906131b1565b612618565b6040516109069190613495565b60405180910390f35b34801561091b57600080fd5b50610936600480360381019061093191906131b1565b612638565b60405161094391906131ed565b60405180910390f35b34801561095857600080fd5b50610973600480360381019061096e9190613584565b612650565b005b34801561098157600080fd5b5061099c60048036038101906109979190613784565b6126a6565b6040516109a9919061302c565b60405180910390f35b6045819080600181540180825580915050600190039060005260206000200160009091909190916101000a81548173ffffffffffffffffffffffffffffffffffffffff021916908373ffffffffffffffffffffffffffffffffffffffff16021790555050565b6000603360009054906101000a900473ffffffffffffffffffffffffffffffffffffffff1673ffffffffffffffffffffffffffffffffffffffff163373ffffffffffffffffffffffffffffffffffffffff1614610aaa576040517f08c379a0000000000000000000000000000000000000000000000000000000008152600401610aa1906138cd565b60405180910390fd5b60026001541415610af0576040517f08c379a0000000000000000000000000000000000000000000000000000000008152600401610ae790613939565b60405180910390fd5b600260018190555060006001811115610b0c57610b0b6133e8565b5b3073ffffffffffffffffffffffffffffffffffffffff1663200d2ed26040518163ffffffff1660e01b8152600401602060405180830381865afa158015610b57573d6000803e3d6000fd5b505050506040513d601f19601f82011682018060405250810190610b7b919061397e565b6001811115610b8d57610b8c6133e8565b5b14610bcd576040517f08c379a0000000000000000000000000000000000000000000000000000000008152600401610bc4906139f7565b60405180910390fd5b603760009054906101000a900473ffffffffffffffffffffffffffffffffffffffff1673ffffffffffffffffffffffffffffffffffffffff163373ffffffffffffffffffffffffffffffffffffffff1614610c2757600080fd5b60006044600086815260200190815260200160002060009054906101000a900473ffffffffffffffffffffffffffffffffffffffff16905080915050600180819055509392505050565b60007f150b7a023d4804d13e8c85fb27262cb750cf6ba9f9dd3bb30d90f482ceeb4b1f905095945050505050565b603c6020528060005260406000206000915090505481565b603760009054906101000a900473ffffffffffffffffffffffffffffffffffffffff1681565b600060019054906101000a900460ff16610d055760008054906101000a900460ff1615610d0e565b610d0d6126e5565b5b610d4d576040517f08c379a0000000000000000000000000000000000000000000000000000000008152600401610d4490613a89565b60405180910390fd5b60008060019054906101000a900460ff161590508015610d9d576001600060016101000a81548160ff02191690831515021790555060016000806101000a81548160ff0219169083151502179055505b600085511415610de2576040517f08c379a0000000000000000000000000000000000000000000000000000000008152600401610dd990613af5565b60405180910390fd5b600083511415610e27576040517f08c379a0000000000000000000000000000000000000000000000000000000008152600401610e1e90613b61565b60405180910390fd5b8460349080519060200190610e3d929190612de0565b5083603760006101000a81548173ffffffffffffffffffffffffffffffffffffffff021916908373ffffffffffffffffffffffffffffffffffffffff1602179055508260389080519060200190610e95929190612de0565b5081603360006101000a81548173ffffffffffffffffffffffffffffffffffffffff021916908373ffffffffffffffffffffffffffffffffffffffff16021790555042603581905550610ee66126f6565b8015610f075760008060016101000a81548160ff0219169083151502179055505b5050505050565b603960149054906101000a900460ff1681565b60436020528060005260406000206000915054906101000a900460ff1681565b60388054610f4e90613bb0565b80601f0160208091040260200160405190810160405280929190818152602001828054610f7a90613bb0565b8015610fc75780601f10610f9c57610100808354040283529160200191610fc7565b820191906000526020600020905b815481529060010190602001808311610faa57829003601f168201915b505050505081565b60426020528060005260406000206000915090505481565b603a6020528060005260406000206000915054906101000a900473ffffffffffffffffffffffffffffffffffffffff1681565b6000603360009054906101000a900473ffffffffffffffffffffffffffffffffffffffff1673ffffffffffffffffffffffffffffffffffffffff163373ffffffffffffffffffffffffffffffffffffffff16146110ac576040517f08c379a00000000000000000000000000000000000000000000000000000000081526004016110a3906138cd565b60405180910390fd5b600260015414156110f2576040517f08c379a00000000000000000000000000000000000000000000000000000000081526004016110e990613939565b60405180910390fd5b60026001819055506000600181111561110e5761110d6133e8565b5b3073ffffffffffffffffffffffffffffffffffffffff1663200d2ed26040518163ffffffff1660e01b8152600401602060405180830381865afa158015611159573d6000803e3d6000fd5b505050506040513d601f19601f8201168201806040525081019061117d919061397e565b600181111561118f5761118e6133e8565b5b146111cf576040517f08c379a00000000000000000000000000000000000000000000000000000000081526004016111c690613c2e565b60405180910390fd5b60006111da33611a21565b9050336044600083815260200190815260200160002060006101000a81548173ffffffffffffffffffffffffffffffffffffffff021916908373ffffffffffffffffffffffffffffffffffffffff1602179055506045339080600181540180825580915050600190039060005260206000200160009091909190916101000a81548173ffffffffffffffffffffffffffffffffffffffff021916908373ffffffffffffffffffffffffffffffffffffffff160217905550809150506001808190555090565b6000603360009054906101000a900473ffffffffffffffffffffffffffffffffffffffff1673ffffffffffffffffffffffffffffffffffffffff163373ffffffffffffffffffffffffffffffffffffffff1614611331576040517f08c379a0000000000000000000000000000000000000000000000000000000008152600401611328906138cd565b60405180910390fd5b60026001541415611377576040517f08c379a000000000000000000000000000000000000000000000000000000000815260040161136e90613939565b60405180910390fd5b600260018190555060001515603e600085815260200190815260200160002060009054906101000a900460ff161515146113e6576040517f08c379a00000000000000000000000000000000000000000000000000000000081526004016113dd90613c9a565b60405180910390fd5b8173ffffffffffffffffffffffffffffffffffffffff16603a600085815260200190815260200160002060009054906101000a900473ffffffffffffffffffffffffffffffffffffffff1673ffffffffffffffffffffffffffffffffffffffff1614611487576040517f08c379a000000000000000000000000000000000000000000000000000000000815260040161147e90613d06565b60405180910390fd5b6114c06042600085815260200190815260200160002054603d60008681526020019081526020016000205461274f90919063ffffffff16565b421015611502576040517f08c379a00000000000000000000000000000000000000000000000000000000081526004016114f990613d72565b60405180910390fd5b6001603e600085815260200190815260200160002060006101000a81548160ff021916908315150217905550600073ffffffffffffffffffffffffffffffffffffffff16603b600085815260200190815260200160002060009054906101000a900473ffffffffffffffffffffffffffffffffffffffff1673ffffffffffffffffffffffffffffffffffffffff1614156115eb576115e6603a600085815260200190815260200160002060009054906101000a900473ffffffffffffffffffffffffffffffffffffffff16603c600086815260200190815260200160002054612765565b611720565b6043600084815260200190815260200160002060009054906101000a900460ff161561169a57611695603b600085815260200190815260200160002060009054906101000a900473ffffffffffffffffffffffffffffffffffffffff16603a600086815260200190815260200160002060009054906101000a900473ffffffffffffffffffffffffffffffffffffffff1660416000878152602001908152602001600020546127b0565b61171f565b61171e603b600085815260200190815260200160002060009054906101000a900473ffffffffffffffffffffffffffffffffffffffff16603a600086815260200190815260200160002060009054906101000a900473ffffffffffffffffffffffffffffffffffffffff16603c60008781526020019081526020016000205461282a565b5b5b600190506001808190555092915050565b6060604680548060200260200160405190810160405280929190818152602001828054801561177f57602002820191906000526020600020905b81548152602001906001019080831161176b575b5050505050905090565b603960009054906101000a900473ffffffffffffffffffffffffffffffffffffffff1681565b603360009054906101000a900473ffffffffffffffffffffffffffffffffffffffff1681565b603d6020528060005260406000206000915090505481565b603b6020528060005260406000206000915054906101000a900473ffffffffffffffffffffffffffffffffffffffff1681565b60355481565b606060458054806020026020016040519081016040528092919081815260200182805480156118aa57602002820191906000526020600020905b8160009054906101000a900473ffffffffffffffffffffffffffffffffffffffff1673ffffffffffffffffffffffffffffffffffffffff1681526020019060010190808311611860575b5050505050905090565b604681815481106118c457600080fd5b906000526020600020016000915090505481565b6000808290508073ffffffffffffffffffffffffffffffffffffffff166370a08231306040518263ffffffff1660e01b8152600401611917919061302c565b602060405180830381865afa158015611934573d6000803e3d6000fd5b505050506040513d601f19601f820116820180604052508101906119589190613da7565b915050919050565b60406020528060005260406000206000915054906101000a900473ffffffffffffffffffffffffffffffffffffffff1681565b603480546119a090613bb0565b80601f01602080910402602001604051908101604052809291908181526020018280546119cc90613bb0565b8015611a195780601f106119ee57610100808354040283529160200191611a19565b820191906000526020600020905b8154815290600101906020018083116119fc57829003601f168201915b505050505081565b600081604580549050604051602001611a3b929190613dd4565b604051602081830303815290604052805190602001209050919050565b6000603360009054906101000a900473ffffffffffffffffffffffffffffffffffffffff1673ffffffffffffffffffffffffffffffffffffffff163373ffffffffffffffffffffffffffffffffffffffff1614611aea576040517f08c379a0000000000000000000000000000000000000000000000000000000008152600401611ae1906138cd565b60405180910390fd5b60006001811115611afe57611afd6133e8565b5b3073ffffffffffffffffffffffffffffffffffffffff1663200d2ed26040518163ffffffff1660e01b8152600401602060405180830381865afa158015611b49573d6000803e3d6000fd5b505050506040513d601f19601f82011682018060405250810190611b6d919061397e565b6001811115611b7f57611b7e6133e8565b5b14611bbf576040517f08c379a0000000000000000000000000000000000000000000000000000000008152600401611bb690613e49565b60405180910390fd5b6001603960146101000a81548160ff02191690836001811115611be557611be46133e8565b5b021790555081603960006101000a81548173ffffffffffffffffffffffffffffffffffffffff021916908373ffffffffffffffffffffffffffffffffffffffff1602179055504260368190555060019050919050565b6000603360009054906101000a900473ffffffffffffffffffffffffffffffffffffffff1673ffffffffffffffffffffffffffffffffffffffff163373ffffffffffffffffffffffffffffffffffffffff1614611ccd576040517f08c379a0000000000000000000000000000000000000000000000000000000008152600401611cc4906138cd565b60405180910390fd5b60026001541415611d13576040517f08c379a0000000000000000000000000000000000000000000000000000000008152600401611d0a90613939565b60405180910390fd5b600260018190555060006001811115611d2f57611d2e6133e8565b5b3073ffffffffffffffffffffffffffffffffffffffff1663200d2ed26040518163ffffffff1660e01b8152600401602060405180830381865afa158015611d7a573d6000803e3d6000fd5b505050506040513d601f19601f82011682018060405250810190611d9e919061397e565b6001811115611db057611daf6133e8565b5b14611df0576040517f08c379a0000000000000000000000000000000000000000000000000000000008152600401611de790613eb5565b60405180910390fd5b603e600083815260200190815260200160002060009054906101000a900460ff1615611e51576040517f08c379a0000000000000000000000000000000000000000000000000000000008152600401611e4890613f21565b60405180910390fd5b603f600083815260200190815260200160002060009054906101000a900460ff1615611eb2576040517f08c379a0000000000000000000000000000000000000000000000000000000008152600401611ea990613f8d565b60405180910390fd5b600073ffffffffffffffffffffffffffffffffffffffff16603b600084815260200190815260200160002060009054906101000a900473ffffffffffffffffffffffffffffffffffffffff1673ffffffffffffffffffffffffffffffffffffffff161415611f3c57611f3783603c600085815260200190815260200160002054612765565b61200b565b6043600083815260200190815260200160002060009054906101000a900460ff1615611fb857611fb3603b600084815260200190815260200160002060009054906101000a900473ffffffffffffffffffffffffffffffffffffffff168460416000868152602001908152602001600020546127b0565b61200a565b612009603b600084815260200190815260200160002060009054906101000a900473ffffffffffffffffffffffffffffffffffffffff1684603c60008681526020019081526020016000205461282a565b5b5b6001603f600084815260200190815260200160002060006101000a81548160ff021916908315150217905550826040600084815260200190815260200160002060006101000a81548173ffffffffffffffffffffffffffffffffffffffff021916908373ffffffffffffffffffffffffffffffffffffffff160217905550600190506001808190555092915050565b60365481565b603f6020528060005260406000206000915054906101000a900460ff1681565b60446020528060005260406000206000915054906101000a900473ffffffffffffffffffffffffffffffffffffffff1681565b600080603360009054906101000a900473ffffffffffffffffffffffffffffffffffffffff1673ffffffffffffffffffffffffffffffffffffffff163373ffffffffffffffffffffffffffffffffffffffff1614612186576040517f08c379a000000000000000000000000000000000000000000000000000000000815260040161217d906138cd565b60405180910390fd5b600260015414156121cc576040517f08c379a00000000000000000000000000000000000000000000000000000000081526004016121c390613939565b60405180910390fd5b60026001819055506000841415612218576040517f08c379a000000000000000000000000000000000000000000000000000000000815260040161220f90613ff9565b60405180910390fd5b60006122248787612860565b905060008073ffffffffffffffffffffffffffffffffffffffff168773ffffffffffffffffffffffffffffffffffffffff16141561226457349050612272565b61226f87898861289a565b90505b87603a600084815260200190815260200160002060006101000a81548173ffffffffffffffffffffffffffffffffffffffff021916908373ffffffffffffffffffffffffffffffffffffffff16021790555086603b600084815260200190815260200160002060006101000a81548173ffffffffffffffffffffffffffffffffffffffff021916908373ffffffffffffffffffffffffffffffffffffffff16021790555080603c60008481526020019081526020016000208190555042603d60008481526020019081526020016000208190555084604260008481526020019081526020016000208190555060006043600084815260200190815260200160002060006101000a81548160ff021916908315150217905550604682908060018154018082558091505060019003906000526020600020016000909190919091505581819350935050506001808190555094509492505050565b6000603360009054906101000a900473ffffffffffffffffffffffffffffffffffffffff1673ffffffffffffffffffffffffffffffffffffffff163373ffffffffffffffffffffffffffffffffffffffff161461245d576040517f08c379a0000000000000000000000000000000000000000000000000000000008152600401612454906138cd565b60405180910390fd5b600260015414156124a3576040517f08c379a000000000000000000000000000000000000000000000000000000000815260040161249a90613939565b60405180910390fd5b60026001819055506124b6848685612949565b60006124c28686612860565b905085603a600083815260200190815260200160002060006101000a81548173ffffffffffffffffffffffffffffffffffffffff021916908373ffffffffffffffffffffffffffffffffffffffff16021790555084603b600083815260200190815260200160002060006101000a81548173ffffffffffffffffffffffffffffffffffffffff021916908373ffffffffffffffffffffffffffffffffffffffff16021790555042603d60008381526020019081526020016000208190555083604160008381526020019081526020016000208190555082604260008381526020019081526020016000208190555060016043600083815260200190815260200160002060006101000a81548160ff02191690831515021790555060468190806001815401808255809150506001900390600052602060002001600090919091909150558091505060018081905550949350505050565b603e6020528060005260406000206000915054906101000a900460ff1681565b60416020528060005260406000206000915090505481565b806044600084815260200190815260200160002060006101000a81548173ffffffffffffffffffffffffffffffffffffffff021916908373ffffffffffffffffffffffffffffffffffffffff1602179055505050565b604581815481106126b657600080fd5b906000526020600020016000915054906101000a900473ffffffffffffffffffffffffffffffffffffffff1681565b60006126f0306129c3565b15905090565b600060019054906101000a900460ff16612745576040517f08c379a000000000000000000000000000000000000000000000000000000000815260040161273c9061408b565b60405180910390fd5b61274d6129e6565b565b6000818361275d91906140da565b905092915050565b8173ffffffffffffffffffffffffffffffffffffffff166108fc829081150290604051600060405180830381858888f193505050501580156127ab573d6000803e3d6000fd5b505050565b60008390508073ffffffffffffffffffffffffffffffffffffffff166342842e0e3085856040518463ffffffff1660e01b81526004016127f293929190614130565b600060405180830381600087803b15801561280c57600080fd5b505af1158015612820573d6000803e3d6000fd5b5050505050505050565b600083905061285a83838373ffffffffffffffffffffffffffffffffffffffff16612a3e9092919063ffffffff16565b50505050565b6000828260468054905060405160200161287c93929190614130565b60405160208183030381529060405280519060200120905092915050565b6000806128a6856118d8565b905060008590506128da8530868473ffffffffffffffffffffffffffffffffffffffff16612ac4909392919063ffffffff16565b60006128e5876118d8565b90508281101561292a576040517f08c379a0000000000000000000000000000000000000000000000000000000008152600401612921906141b3565b60405180910390fd5b61293d8382612b4d90919063ffffffff16565b93505050509392505050565b60008390508073ffffffffffffffffffffffffffffffffffffffff166342842e0e8430856040518463ffffffff1660e01b815260040161298b93929190614130565b600060405180830381600087803b1580156129a557600080fd5b505af11580156129b9573d6000803e3d6000fd5b5050505050505050565b6000808273ffffffffffffffffffffffffffffffffffffffff163b119050919050565b600060019054906101000a900460ff16612a35576040517f08c379a0000000000000000000000000000000000000000000000000000000008152600401612a2c9061408b565b60405180910390fd5b60018081905550565b612abf8363a9059cbb60e01b8484604051602401612a5d929190613dd4565b604051602081830303815290604052907bffffffffffffffffffffffffffffffffffffffffffffffffffffffff19166020820180517bffffffffffffffffffffffffffffffffffffffffffffffffffffffff8381831617835250505050612b63565b505050565b612b47846323b872dd60e01b858585604051602401612ae593929190614130565b604051602081830303815290604052907bffffffffffffffffffffffffffffffffffffffffffffffffffffffff19166020820180517bffffffffffffffffffffffffffffffffffffffffffffffffffffffff8381831617835250505050612b63565b50505050565b60008183612b5b91906141d3565b905092915050565b6000612bc5826040518060400160405280602081526020017f5361666545524332303a206c6f772d6c6576656c2063616c6c206661696c65648152508573ffffffffffffffffffffffffffffffffffffffff16612c2a9092919063ffffffff16565b9050600081511115612c255780806020019051810190612be59190614233565b612c24576040517f08c379a0000000000000000000000000000000000000000000000000000000008152600401612c1b906142d2565b60405180910390fd5b5b505050565b6060612c398484600085612c42565b90509392505050565b606082471015612c87576040517f08c379a0000000000000000000000000000000000000000000000000000000008152600401612c7e90614364565b60405180910390fd5b612c9085612d56565b612ccf576040517f08c379a0000000000000000000000000000000000000000000000000000000008152600401612cc6906143d0565b60405180910390fd5b6000808673ffffffffffffffffffffffffffffffffffffffff168587604051612cf89190614437565b60006040518083038185875af1925050503d8060008114612d35576040519150601f19603f3d011682016040523d82523d6000602084013e612d3a565b606091505b5091509150612d4a828286612d79565b92505050949350505050565b6000808273ffffffffffffffffffffffffffffffffffffffff163b119050919050565b60608315612d8957829050612dd9565b600083511115612d9c5782518084602001fd5b816040517f08c379a0000000000000000000000000000000000000000000000000000000008152600401612dd09190613538565b60405180910390fd5b9392505050565b828054612dec90613bb0565b90600052602060002090601f016020900481019282612e0e5760008555612e55565b82601f10612e2757805160ff1916838001178555612e55565b82800160010185558215612e55579182015b82811115612e54578251825591602001919060010190612e39565b5b509050612e629190612e66565b5090565b5b80821115612e7f576000816000905550600101612e67565b5090565b6000604051905090565b600080fd5b600080fd5b600073ffffffffffffffffffffffffffffffffffffffff82169050919050565b6000612ec282612e97565b9050919050565b612ed281612eb7565b8114612edd57600080fd5b50565b600081359050612eef81612ec9565b92915050565b600060208284031215612f0b57612f0a612e8d565b5b6000612f1984828501612ee0565b91505092915050565b6000819050919050565b612f3581612f22565b8114612f4057600080fd5b50565b600081359050612f5281612f2c565b92915050565b600080fd5b600080fd5b600080fd5b60008083601f840112612f7d57612f7c612f58565b5b8235905067ffffffffffffffff811115612f9a57612f99612f5d565b5b602083019150836001820283011115612fb657612fb5612f62565b5b9250929050565b600080600060408486031215612fd657612fd5612e8d565b5b6000612fe486828701612f43565b935050602084013567ffffffffffffffff81111561300557613004612e92565b5b61301186828701612f67565b92509250509250925092565b61302681612eb7565b82525050565b6000602082019050613041600083018461301d565b92915050565b6000819050919050565b61305a81613047565b811461306557600080fd5b50565b60008135905061307781613051565b92915050565b60008083601f84011261309357613092612f58565b5b8235905067ffffffffffffffff8111156130b0576130af612f5d565b5b6020830191508360018202830111156130cc576130cb612f62565b5b9250929050565b6000806000806000608086880312156130ef576130ee612e8d565b5b60006130fd88828901612ee0565b955050602061310e88828901612ee0565b945050604061311f88828901613068565b935050606086013567ffffffffffffffff8111156131405761313f612e92565b5b61314c8882890161307d565b92509250509295509295909350565b60007fffffffff0000000000000000000000000000000000000000000000000000000082169050919050565b6131908161315b565b82525050565b60006020820190506131ab6000830184613187565b92915050565b6000602082840312156131c7576131c6612e8d565b5b60006131d584828501612f43565b91505092915050565b6131e781613047565b82525050565b600060208201905061320260008301846131de565b92915050565b600080fd5b6000601f19601f8301169050919050565b7f4e487b7100000000000000000000000000000000000000000000000000000000600052604160045260246000fd5b6132568261320d565b810181811067ffffffffffffffff821117156132755761327461321e565b5b80604052505050565b6000613288612e83565b9050613294828261324d565b919050565b600067ffffffffffffffff8211156132b4576132b361321e565b5b6132bd8261320d565b9050602081019050919050565b82818337600083830152505050565b60006132ec6132e784613299565b61327e565b90508281526020810184848401111561330857613307613208565b5b6133138482856132ca565b509392505050565b600082601f8301126133305761332f612f58565b5b81356133408482602086016132d9565b91505092915050565b6000806000806080858703121561336357613362612e8d565b5b600085013567ffffffffffffffff81111561338157613380612e92565b5b61338d8782880161331b565b945050602061339e87828801612ee0565b935050604085013567ffffffffffffffff8111156133bf576133be612e92565b5b6133cb8782880161331b565b92505060606133dc87828801612ee0565b91505092959194509250565b7f4e487b7100000000000000000000000000000000000000000000000000000000600052602160045260246000fd5b60028110613428576134276133e8565b5b50565b600081905061343982613417565b919050565b60006134498261342b565b9050919050565b6134598161343e565b82525050565b60006020820190506134746000830184613450565b92915050565b60008115159050919050565b61348f8161347a565b82525050565b60006020820190506134aa6000830184613486565b92915050565b600081519050919050565b600082825260208201905092915050565b60005b838110156134ea5780820151818401526020810190506134cf565b838111156134f9576000848401525b50505050565b600061350a826134b0565b61351481856134bb565b93506135248185602086016134cc565b61352d8161320d565b840191505092915050565b6000602082019050818103600083015261355281846134ff565b905092915050565b61356381612f22565b82525050565b600060208201905061357e600083018461355a565b92915050565b6000806040838503121561359b5761359a612e8d565b5b60006135a985828601612f43565b92505060206135ba85828601612ee0565b9150509250929050565b600081519050919050565b600082825260208201905092915050565b6000819050602082019050919050565b6135f981612f22565b82525050565b600061360b83836135f0565b60208301905092915050565b6000602082019050919050565b600061362f826135c4565b61363981856135cf565b9350613644836135e0565b8060005b8381101561367557815161365c88826135ff565b975061366783613617565b925050600181019050613648565b5085935050505092915050565b6000602082019050818103600083015261369c8184613624565b905092915050565b600081519050919050565b600082825260208201905092915050565b6000819050602082019050919050565b6136d981612eb7565b82525050565b60006136eb83836136d0565b60208301905092915050565b6000602082019050919050565b600061370f826136a4565b61371981856136af565b9350613724836136c0565b8060005b8381101561375557815161373c88826136df565b9750613747836136f7565b925050600181019050613728565b5085935050505092915050565b6000602082019050818103600083015261377c8184613704565b905092915050565b60006020828403121561379a57613799612e8d565b5b60006137a884828501613068565b91505092915050565b600080604083850312156137c8576137c7612e8d565b5b60006137d685828601612ee0565b92505060206137e785828601612f43565b9150509250929050565b6000806000806080858703121561380b5761380a612e8d565b5b600061381987828801612ee0565b945050602061382a87828801612ee0565b935050604061383b87828801613068565b925050606061384c87828801613068565b91505092959194509250565b600060408201905061386d600083018561355a565b61387a60208301846131de565b9392505050565b7f4d6574686f64206973206f6e6c792063616c6c61626c65206279204f70656e51600082015250565b60006138b76020836134bb565b91506138c282613881565b602082019050919050565b600060208201905081810360008301526138e6816138aa565b9050919050565b7f5265656e7472616e637947756172643a207265656e7472616e742063616c6c00600082015250565b6000613923601f836134bb565b915061392e826138ed565b602082019050919050565b6000602082019050818103600083015261395281613916565b9050919050565b6002811061396657600080fd5b50565b60008151905061397881613959565b92915050565b60006020828403121561399457613993612e8d565b5b60006139a284828501613969565b91505092915050565b7f4a554447494e475f434c4f5345445f424f554e54590000000000000000000000600082015250565b60006139e16015836134bb565b91506139ec826139ab565b602082019050919050565b60006020820190508181036000830152613a10816139d4565b9050919050565b7f496e697469616c697a61626c653a20636f6e747261637420697320616c72656160008201527f647920696e697469616c697a6564000000000000000000000000000000000000602082015250565b6000613a73602e836134bb565b9150613a7e82613a17565b604082019050919050565b60006020820190508181036000830152613aa281613a66565b9050919050565b7f4e4f5f454d5054595f424f554e54595f49440000000000000000000000000000600082015250565b6000613adf6012836134bb565b9150613aea82613aa9565b602082019050919050565b60006020820190508181036000830152613b0e81613ad2565b9050919050565b7f4e4f5f454d5054595f4f5247414e495a4154494f4e0000000000000000000000600082015250565b6000613b4b6015836134bb565b9150613b5682613b15565b602082019050919050565b60006020820190508181036000830152613b7a81613b3e565b9050919050565b7f4e487b7100000000000000000000000000000000000000000000000000000000600052602260045260246000fd5b60006002820490506001821680613bc857607f821691505b60208210811415613bdc57613bdb613b81565b5b50919050565b7f434c4f5345445f424f554e545900000000000000000000000000000000000000600082015250565b6000613c18600d836134bb565b9150613c2382613be2565b602082019050919050565b60006020820190508181036000830152613c4781613c0b565b9050919050565b7f424f554e54595f414c52454144595f524546554e444544000000000000000000600082015250565b6000613c846017836134bb565b9150613c8f82613c4e565b602082019050919050565b60006020820190508181036000830152613cb381613c77565b9050919050565b7f4f4e4c595f46554e4445525f43414e5f524551554553545f524546554e440000600082015250565b6000613cf0601e836134bb565b9150613cfb82613cba565b602082019050919050565b60006020820190508181036000830152613d1f81613ce3565b9050919050565b7f5052454d41545552455f524546554e445f524551554553540000000000000000600082015250565b6000613d5c6018836134bb565b9150613d6782613d26565b602082019050919050565b60006020820190508181036000830152613d8b81613d4f565b9050919050565b600081519050613da181613051565b92915050565b600060208284031215613dbd57613dbc612e8d565b5b6000613dcb84828501613d92565b91505092915050565b6000604082019050613de9600083018561301d565b613df660208301846131de565b9392505050565b7f434c4f53494e475f434c4f5345445f424f554e54590000000000000000000000600082015250565b6000613e336015836134bb565b9150613e3e82613dfd565b602082019050919050565b60006020820190508181036000830152613e6281613e26565b9050919050565b7f434c41494d494e475f434c4f5345445f424f554e545900000000000000000000600082015250565b6000613e9f6016836134bb565b9150613eaa82613e69565b602082019050919050565b60006020820190508181036000830152613ece81613e92565b9050919050565b7f434c41494d494e475f524546554e4445445f4445504f53495400000000000000600082015250565b6000613f0b6019836134bb565b9150613f1682613ed5565b602082019050919050565b60006020820190508181036000830152613f3a81613efe565b9050919050565b7f434c41494d494e475f434c41494d45445f4445504f5349540000000000000000600082015250565b6000613f776018836134bb565b9150613f8282613f41565b602082019050919050565b60006020820190508181036000830152613fa681613f6a565b9050919050565b7f5a45524f5f564f4c554d455f53454e5400000000000000000000000000000000600082015250565b6000613fe36010836134bb565b9150613fee82613fad565b602082019050919050565b6000602082019050818103600083015261401281613fd6565b9050919050565b7f496e697469616c697a61626c653a20636f6e7472616374206973206e6f74206960008201527f6e697469616c697a696e67000000000000000000000000000000000000000000602082015250565b6000614075602b836134bb565b915061408082614019565b604082019050919050565b600060208201905081810360008301526140a481614068565b9050919050565b7f4e487b7100000000000000000000000000000000000000000000000000000000600052601160045260246000fd5b60006140e582613047565b91506140f083613047565b9250827fffffffffffffffffffffffffffffffffffffffffffffffffffffffffffffffff03821115614125576141246140ab565b5b828201905092915050565b6000606082019050614145600083018661301d565b614152602083018561301d565b61415f60408301846131de565b949350505050565b7f544f4b454e5f5452414e534645525f494e5f4f564552464c4f57000000000000600082015250565b600061419d601a836134bb565b91506141a882614167565b602082019050919050565b600060208201905081810360008301526141cc81614190565b9050919050565b60006141de82613047565b91506141e983613047565b9250828210156141fc576141fb6140ab565b5b828203905092915050565b6142108161347a565b811461421b57600080fd5b50565b60008151905061422d81614207565b92915050565b60006020828403121561424957614248612e8d565b5b60006142578482850161421e565b91505092915050565b7f5361666545524332303a204552433230206f7065726174696f6e20646964206e60008201527f6f74207375636365656400000000000000000000000000000000000000000000602082015250565b60006142bc602a836134bb565b91506142c782614260565b604082019050919050565b600060208201905081810360008301526142eb816142af565b9050919050565b7f416464726573733a20696e73756666696369656e742062616c616e636520666f60008201527f722063616c6c0000000000000000000000000000000000000000000000000000602082015250565b600061434e6026836134bb565b9150614359826142f2565b604082019050919050565b6000602082019050818103600083015261437d81614341565b9050919050565b7f416464726573733a2063616c6c20746f206e6f6e2d636f6e7472616374000000600082015250565b60006143ba601d836134bb565b91506143c582614384565b602082019050919050565b600060208201905081810360008301526143e9816143ad565b9050919050565b600081519050919050565b600081905092915050565b6000614411826143f0565b61441b81856143fb565b935061442b8185602086016134cc565b80840191505092915050565b60006144438284614406565b91508190509291505056fea26469706673582212203af773c5b6ac0aa81f7f7f150849bc614659920466edbe05c669222fd750f4c064736f6c634300080b0033",
  "linkReferences": {},
  "deployedLinkReferences": {}
}